{"contracts/trinity/TrinityGSTToken.sol":{"TrinityGSTToken":{"abi":[{"inputs":[],"stateMutability":"nonpayable","type":"constructor"},{"anonymous":false,"inputs":[{"indexed":true,"internalType":"address","name":"user","type":"address"},{"indexed":false,"internalType":"uint256","name":"score","type":"uint256"}],"name":"AIEthicsVerified","type":"event"},{"anonymous":false,"inputs":[{"indexed":true,"internalType":"address","name":"owner","type":"address"},{"indexed":true,"internalType":"address","name":"spender","type":"address"},{"indexed":false,"internalType":"uint256","name":"value","type":"uint256"}],"name":"Approval","type":"event"},{"anonymous":false,"inputs":[{"indexed":true,"internalType":"address","name":"user","type":"address"},{"indexed":false,"internalType":"uint256","name":"score","type":"uint256"}],"name":"ComposabilityScoreUpdated","type":"event"},{"anonymous":false,"inputs":[{"indexed":true,"internalType":"address","name":"user","type":"address"},{"indexed":false,"internalType":"uint256","name":"environmental","type":"uint256"},{"indexed":false,"internalType":"uint256","name":"social","type":"uint256"},{"indexed":false,"internalType":"uint256","name":"governance","type":"uint256"},{"indexed":false,"internalType":"uint256","name":"aiEthics","type":"uint256"}],"name":"ESGImpactUpdated","type":"event"},{"anonymous":false,"inputs":[{"indexed":true,"internalType":"address","name":"user","type":"address"},{"indexed":false,"internalType":"uint256","name":"amount","type":"uint256"},{"indexed":false,"internalType":"string","name":"reason","type":"string"}],"name":"ESGRewardsClaimed","type":"event"},{"anonymous":false,"inputs":[{"indexed":true,"internalType":"address","name":"from","type":"address"},{"indexed":false,"internalType":"uint256","name":"amount","type":"uint256"}],"name":"GSTBurned","type":"event"},{"anonymous":false,"inputs":[{"indexed":true,"internalType":"address","name":"to","type":"address"},{"indexed":false,"internalType":"uint256","name":"amount","type":"uint256"}],"name":"GSTMinted","type":"event"},{"anonymous":false,"inputs":[{"indexed":true,"internalType":"address","name":"previousOwner","type":"address"},{"indexed":true,"internalType":"address","name":"newOwner","type":"address"}],"name":"OwnershipTransferred","type":"event"},{"anonymous":false,"inputs":[{"indexed":true,"internalType":"address","name":"token","type":"address"},{"indexed":false,"internalType":"bool","name":"composable","type":"bool"}],"name":"TokenComposed","type":"event"},{"anonymous":false,"inputs":[{"indexed":true,"internalType":"address","name":"from","type":"address"},{"indexed":true,"internalType":"address","name":"to","type":"address"},{"indexed":false,"internalType":"uint256","name":"value","type":"uint256"}],"name":"Transfer","type":"event"},{"anonymous":false,"inputs":[{"indexed":true,"internalType":"address","name":"user","type":"address"},{"indexed":false,"internalType":"uint256","name":"newScore","type":"uint256"},{"indexed":false,"internalType":"uint256","name":"timestamp","type":"uint256"}],"name":"TrustScoreUpdated","type":"event"},{"anonymous":false,"inputs":[{"indexed":false,"internalType":"uint256","name":"newVersion","type":"uint256"},{"indexed":false,"internalType":"string","name":"notes","type":"string"}],"name":"VersionUpgraded","type":"event"},{"inputs":[],"name":"INITIAL_SUPPLY","outputs":[{"internalType":"uint256","name":"","type":"uint256"}],"stateMutability":"view","type":"function"},{"inputs":[],"name":"MAX_SUPPLY","outputs":[{"internalType":"uint256","name":"","type":"uint256"}],"stateMutability":"view","type":"function"},{"inputs":[{"internalType":"address","name":"","type":"address"}],"name":"aiEthicsScore","outputs":[{"internalType":"uint256","name":"","type":"uint256"}],"stateMutability":"view","type":"function"},{"inputs":[{"internalType":"address","name":"owner","type":"address"},{"internalType":"address","name":"spender","type":"address"}],"name":"allowance","outputs":[{"internalType":"uint256","name":"","type":"uint256"}],"stateMutability":"view","type":"function"},{"inputs":[{"internalType":"address","name":"spender","type":"address"},{"internalType":"uint256","name":"amount","type":"uint256"}],"name":"approve","outputs":[{"internalType":"bool","name":"","type":"bool"}],"stateMutability":"nonpayable","type":"function"},{"inputs":[{"internalType":"address","name":"account","type":"address"}],"name":"balanceOf","outputs":[{"internalType":"uint256","name":"","type":"uint256"}],"stateMutability":"view","type":"function"},{"inputs":[{"internalType":"uint256","name":"amount","type":"uint256"}],"name":"burn","outputs":[],"stateMutability":"nonpayable","type":"function"},{"inputs":[{"internalType":"address","name":"account","type":"address"},{"internalType":"uint256","name":"amount","type":"uint256"}],"name":"burnFrom","outputs":[],"stateMutability":"nonpayable","type":"function"},{"inputs":[{"internalType":"address","name":"","type":"address"}],"name":"composabilityScore","outputs":[{"internalType":"uint256","name":"","type":"uint256"}],"stateMutability":"view","type":"function"},{"inputs":[],"name":"decimals","outputs":[{"internalType":"uint8","name":"","type":"uint8"}],"stateMutability":"view","type":"function"},{"inputs":[{"internalType":"address","name":"spender","type":"address"},{"internalType":"uint256","name":"subtractedValue","type":"uint256"}],"name":"decreaseAllowance","outputs":[{"internalType":"bool","name":"","type":"bool"}],"stateMutability":"nonpayable","type":"function"},{"inputs":[],"name":"getTrinityEcosystemStats","outputs":[{"internalType":"uint256","name":"totalSupply_","type":"uint256"},{"internalType":"uint256","name":"maxSupply_","type":"uint256"},{"internalType":"uint256","name":"version_","type":"uint256"},{"internalType":"uint256","name":"composableTokens_","type":"uint256"}],"stateMutability":"view","type":"function"},{"inputs":[{"internalType":"address","name":"user","type":"address"}],"name":"getTrinityProfile","outputs":[{"components":[{"internalType":"uint256","name":"transparency","type":"uint256"},{"internalType":"uint256","name":"decentralization","type":"uint256"},{"internalType":"uint256","name":"security","type":"uint256"},{"internalType":"uint256","name":"impact","type":"uint256"},{"internalType":"uint256","name":"totalScore","type":"uint256"},{"internalType":"uint256","name":"lastUpdate","type":"uint256"}],"internalType":"struct TrinityGSTToken.TrustScore","name":"trust","type":"tuple"},{"components":[{"internalType":"uint256","name":"environmental","type":"uint256"},{"internalType":"uint256","name":"social","type":"uint256"},{"internalType":"uint256","name":"governance","type":"uint256"},{"internalType":"uint256","name":"aiEthics","type":"uint256"},{"internalType":"uint256","name":"totalImpact","type":"uint256"},{"internalType":"uint256","name":"lastUpdate","type":"uint256"}],"internalType":"struct TrinityGSTToken.ESGImpact","name":"esg","type":"tuple"},{"internalType":"uint256","name":"composability","type":"uint256"},{"internalType":"uint256","name":"trinityScore","type":"uint256"}],"stateMutability":"view","type":"function"},{"inputs":[{"internalType":"address","name":"user","type":"address"}],"name":"getTrinityScore","outputs":[{"internalType":"uint256","name":"trinityScore","type":"uint256"}],"stateMutability":"view","type":"function"},{"inputs":[{"internalType":"address","name":"spender","type":"address"},{"internalType":"uint256","name":"addedValue","type":"uint256"}],"name":"increaseAllowance","outputs":[{"internalType":"bool","name":"","type":"bool"}],"stateMutability":"nonpayable","type":"function"},{"inputs":[{"internalType":"address","name":"","type":"address"}],"name":"isAIEthicsVerified","outputs":[{"internalType":"bool","name":"","type":"bool"}],"stateMutability":"view","type":"function"},{"inputs":[{"internalType":"address","name":"","type":"address"}],"name":"isComposableToken","outputs":[{"internalType":"bool","name":"","type":"bool"}],"stateMutability":"view","type":"function"},{"inputs":[{"internalType":"address","name":"to","type":"address"},{"internalType":"uint256","name":"amount","type":"uint256"}],"name":"mint","outputs":[],"stateMutability":"nonpayable","type":"function"},{"inputs":[],"name":"name","outputs":[{"internalType":"string","name":"","type":"string"}],"stateMutability":"view","type":"function"},{"inputs":[],"name":"owner","outputs":[{"internalType":"address","name":"","type":"address"}],"stateMutability":"view","type":"function"},{"inputs":[],"name":"renounceOwnership","outputs":[],"stateMutability":"nonpayable","type":"function"},{"inputs":[{"internalType":"address","name":"token","type":"address"},{"internalType":"bool","name":"composable","type":"bool"}],"name":"setComposableToken","outputs":[],"stateMutability":"nonpayable","type":"function"},{"inputs":[],"name":"symbol","outputs":[{"internalType":"string","name":"","type":"string"}],"stateMutability":"view","type":"function"},{"inputs":[{"internalType":"address","name":"","type":"address"}],"name":"totalESGRewards","outputs":[{"internalType":"uint256","name":"","type":"uint256"}],"stateMutability":"view","type":"function"},{"inputs":[],"name":"totalSupply","outputs":[{"internalType":"uint256","name":"","type":"uint256"}],"stateMutability":"view","type":"function"},{"inputs":[{"internalType":"address","name":"","type":"address"}],"name":"totalTrustRewards","outputs":[{"internalType":"uint256","name":"","type":"uint256"}],"stateMutability":"view","type":"function"},{"inputs":[{"internalType":"address","name":"to","type":"address"},{"internalType":"uint256","name":"amount","type":"uint256"}],"name":"transfer","outputs":[{"internalType":"bool","name":"","type":"bool"}],"stateMutability":"nonpayable","type":"function"},{"inputs":[{"internalType":"address","name":"from","type":"address"},{"internalType":"address","name":"to","type":"address"},{"internalType":"uint256","name":"amount","type":"uint256"}],"name":"transferFrom","outputs":[{"internalType":"bool","name":"","type":"bool"}],"stateMutability":"nonpayable","type":"function"},{"inputs":[{"internalType":"address","name":"newOwner","type":"address"}],"name":"transferOwnership","outputs":[],"stateMutability":"nonpayable","type":"function"},{"inputs":[{"internalType":"address","name":"user","type":"address"},{"internalType":"uint256","name":"score","type":"uint256"}],"name":"updateComposabilityScore","outputs":[],"stateMutability":"nonpayable","type":"function"},{"inputs":[{"internalType":"address","name":"user","type":"address"},{"internalType":"uint256","name":"environmental","type":"uint256"},{"internalType":"uint256","name":"social","type":"uint256"},{"internalType":"uint256","name":"governance","type":"uint256"},{"internalType":"uint256","name":"aiEthics","type":"uint256"}],"name":"updateESGImpact","outputs":[],"stateMutability":"nonpayable","type":"function"},{"inputs":[{"internalType":"address","name":"user","type":"address"},{"internalType":"uint256","name":"transparency","type":"uint256"},{"internalType":"uint256","name":"decentralization","type":"uint256"},{"internalType":"uint256","name":"security","type":"uint256"},{"internalType":"uint256","name":"impact","type":"uint256"}],"name":"updateTrustScore","outputs":[],"stateMutability":"nonpayable","type":"function"},{"inputs":[{"internalType":"uint256","name":"newVersion","type":"uint256"},{"internalType":"string","name":"notes","type":"string"}],"name":"upgradeVersion","outputs":[],"stateMutability":"nonpayable","type":"function"},{"inputs":[{"internalType":"address","name":"","type":"address"}],"name":"userESGImpacts","outputs":[{"internalType":"uint256","name":"environmental","type":"uint256"},{"internalType":"uint256","name":"social","type":"uint256"},{"internalType":"uint256","name":"governance","type":"uint256"},{"internalType":"uint256","name":"aiEthics","type":"uint256"},{"internalType":"uint256","name":"totalImpact","type":"uint256"},{"internalType":"uint256","name":"lastUpdate","type":"uint256"}],"stateMutability":"view","type":"function"},{"inputs":[{"internalType":"address","name":"","type":"address"}],"name":"userTrustScores","outputs":[{"internalType":"uint256","name":"transparency","type":"uint256"},{"internalType":"uint256","name":"decentralization","type":"uint256"},{"internalType":"uint256","name":"security","type":"uint256"},{"internalType":"uint256","name":"impact","type":"uint256"},{"internalType":"uint256","name":"totalScore","type":"uint256"},{"internalType":"uint256","name":"lastUpdate","type":"uint256"}],"stateMutability":"view","type":"function"},{"inputs":[{"internalType":"address","name":"user","type":"address"},{"internalType":"uint256","name":"score","type":"uint256"}],"name":"verifyAIEthics","outputs":[],"stateMutability":"nonpayable","type":"function"},{"inputs":[],"name":"version","outputs":[{"internalType":"uint256","name":"","type":"uint256"}],"stateMutability":"view","type":"function"},{"inputs":[{"internalType":"uint256","name":"","type":"uint256"}],"name":"versionNotes","outputs":[{"internalType":"string","name":"","type":"string"}],"stateMutability":"view","type":"function"}],"evm":{"bytecode":{"linkReferences":{},"object":"60806040526001600b553480156200001657600080fd5b50604051806040016040528060118152602001702a3934b734ba3c9023a9aa102a37b5b2b760791b8152506040518060400160405280600381526020016211d4d560ea1b81525081600390816200006e9190620002bf565b5060046200007d8282620002bf565b5050506200009a62000094620000fa60201b60201c565b620000fe565b6001600655620000b53369d3c21bcecceda100000062000150565b60405169d3c21bcecceda1000000815233907f09db28e3abbb6b6787009e61396f8120369d79065259be6f3090b7301b3f4cf69060200160405180910390a2620003b3565b3390565b600580546001600160a01b038381166001600160a01b0319831681179093556040519116919082907f8be0079c531659141344cd1fd0a4f28419497f9722a3daafe3b4186f6b6457e090600090a35050565b6001600160a01b038216620001ab5760405162461bcd60e51b815260206004820152601f60248201527f45524332303a206d696e7420746f20746865207a65726f206164647265737300604482015260640160405180910390fd5b8060026000828254620001bf91906200038b565b90915550506001600160a01b038216600081815260208181526040808320805486019055518481527fddf252ad1be2c89b69c2b068fc378daa952ba7f163c4a11628f55a4df523b3ef910160405180910390a35050565b505050565b634e487b7160e01b600052604160045260246000fd5b600181811c908216806200024657607f821691505b6020821081036200026757634e487b7160e01b600052602260045260246000fd5b50919050565b601f8211156200021657600081815260208120601f850160051c81016020861015620002965750805b601f850160051c820191505b81811015620002b757828155600101620002a2565b505050505050565b81516001600160401b03811115620002db57620002db6200021b565b620002f381620002ec845462000231565b846200026d565b602080601f8311600181146200032b5760008415620003125750858301515b600019600386901b1c1916600185901b178555620002b7565b600085815260208120601f198616915b828110156200035c578886015182559484019460019091019084016200033b565b50858210156200037b5787850151600019600388901b60f8161c191681555b5050505050600190811b01905550565b80820180821115620003ad57634e487b7160e01b600052601160045260246000fd5b92915050565b611f1680620003c36000396000f3fe608060405234801561001057600080fd5b50600436106102325760003560e01c806370a0823111610130578063a457c2d7116100b8578063beee03db1161007c578063beee03db1461059d578063d98bcd98146105bd578063dd62ed3e146105e0578063e5b31bb4146105f3578063f2fde38b1461061357600080fd5b8063a457c2d71461050e578063a9059cbb14610521578063b17c714514610534578063b25ace9414610547578063b5a039fc1461058a57600080fd5b806385873ba0116100ff57806385873ba0146104955780638960f1a5146104a85780638da5cb5b146104c857806395d89b41146104e35780639f6b1879146104eb57600080fd5b806370a0823114610429578063715018a6146104525780637221dd9d1461045a57806379cc67901461048257600080fd5b80632ff2e9dc116101be57806340c10f191161018257806340c10f19146103c757806342966c68146103da5780634fee8794146103ed57806354fd4d50146104005780636641373a1461040957600080fd5b80632ff2e9dc1461036f578063313ce5671461038057806332cb6b0c1461038f57806339509351146103a15780633f7b63d9146103b457600080fd5b806318160ddd1161020557806318160ddd146102ae5780631e886d28146102b65780632281c4b3146102d957806323b872dd146102ec5780632d891779146102ff57600080fd5b806306fdde0314610237578063095ea7b3146102555780630ca8f20c146102785780630f1c37c314610299575b600080fd5b61023f610626565b60405161024c9190611a0c565b60405180910390f35b610268610263366004611a42565b6106b8565b604051901515815260200161024c565b61028b610286366004611a6c565b6106d2565b60405190815260200161024c565b6102ac6102a7366004611a9d565b6107e1565b005b60025461028b565b6102686102c4366004611a6c565b60096020526000908152604090205460ff1681565b61023f6102e7366004611b58565b610893565b6102686102fa366004611b71565b61092d565b61034261030d366004611a6c565b600d60205260009081526040902080546001820154600283015460038401546004850154600590950154939492939192909186565b604080519687526020870195909552938501929092526060840152608083015260a082015260c00161024c565b61028b69d3c21bcecceda100000081565b6040516012815260200161024c565b61028b6a115eec47f6cf7e3500000081565b6102686103af366004611a42565b610951565b6102ac6103c2366004611bad565b610973565b6102ac6103d5366004611a42565b610ae1565b6102ac6103e8366004611b58565b610bb0565b6102ac6103fb366004611a42565b610c04565b61028b600b5481565b61028b610417366004611a6c565b600a6020526000908152604090205481565b61028b610437366004611a6c565b6001600160a01b031660009081526020819052604090205490565b6102ac610cc4565b610462610cd8565b60408051948552602085019390935291830152606082015260800161024c565b6102ac610490366004611a42565b610d05565b6102ac6104a3366004611bef565b610d1a565b61028b6104b6366004611a6c565b60106020526000908152604090205481565b6005546040516001600160a01b03909116815260200161024c565b61023f610d7a565b6104fe6104f9366004611a6c565b610d89565b60405161024c9493929190611c2b565b61026861051c366004611a42565b610ec6565b61026861052f366004611a42565b610f41565b6102ac610542366004611bad565b610f4f565b610342610555366004611a6c565b600760205260009081526040902080546001820154600283015460038401546004850154600590950154939492939192909186565b6102ac610598366004611a42565b6110c2565b61028b6105ab366004611a6c565b600e6020526000908152604090205481565b6102686105cb366004611a6c565b600f6020526000908152604090205460ff1681565b61028b6105ee366004611cc0565b611169565b61028b610601366004611a6c565b60086020526000908152604090205481565b6102ac610621366004611a6c565b611194565b60606003805461063590611cf3565b80601f016020809104026020016040519081016040528092919081815260200182805461066190611cf3565b80156106ae5780601f10610683576101008083540402835291602001916106ae565b820191906000526020600020905b81548152906001019060200180831161069157829003601f168201915b5050505050905090565b6000336106c681858561120a565b60019150505b92915050565b6001600160a01b0381166000818152600760209081526040808320815160c0808201845282548252600180840154838701526002808501548487015260038086015460608087019190915260048088015460808089019190915260059889015460a0808a019182528e8e52600d8d528b8e208c51998a018d5280548a5297880154898e015295870154888c0152938601549287019290925284015490850152919094015493820193909352958552600a90935290832054905192939192158061079d575060a0820151155b156107ad57506000949350505050565b600381836080015185608001516107c49190611d2d565b6107ce9190611d2d565b6107d89190611d4e565b95945050505050565b6107e961132e565b600b5482116108385760405162461bcd60e51b81526020600482015260166024820152752b32b939b4b7b71036bab9ba103132903434b3b432b960511b60448201526064015b60405180910390fd5b600b8290556000828152600c602052604090206108558282611dbe565b507f62c1c9a2ffba1704e05c9454b0fcacfb88baa64140b0c7c33a08546f85e9a27b8282604051610887929190611e7e565b60405180910390a15050565b600c60205260009081526040902080546108ac90611cf3565b80601f01602080910402602001604051908101604052809291908181526020018280546108d890611cf3565b80156109255780601f106108fa57610100808354040283529160200191610925565b820191906000526020600020905b81548152906001019060200180831161090857829003601f168201915b505050505081565b60003361093b858285611388565b610946858585611402565b506001949350505050565b6000336106c68185856109648383611169565b61096e9190611d2d565b61120a565b61097b61132e565b6109836115a6565b6103e8841115801561099757506103e88311155b80156109a557506103e88211155b80156109b357506103e88111155b6109cf5760405162461bcd60e51b815260040161082f90611e9f565b6000600482846109df8789611d2d565b6109e99190611d2d565b6109f39190611d2d565b6109fd9190611d4e565b6040805160c081018252878152602080820188815282840188815260608401888152608085018781524260a087019081526001600160a01b038f166000818152600d90975295889020965187559351600187015591516002860155516003850155516004840155516005909201919091559051919250907f936973e1add8318bb8d863767bd002d9c9965b731ebf0b7b315373406a5ee4d590610abd90889088908890889093845260208401929092526040830152606082015260800190565b60405180910390a2610acf86826115ff565b50610ada6001600655565b5050505050565b610ae961132e565b610af16115a6565b6a115eec47f6cf7e3500000081610b0760025490565b610b119190611d2d565b1115610b555760405162461bcd60e51b815260206004820152601360248201527213585e081cdd5c1c1b1e48195e18d959591959606a1b604482015260640161082f565b610b5f82826116f9565b816001600160a01b03167f09db28e3abbb6b6787009e61396f8120369d79065259be6f3090b7301b3f4cf682604051610b9a91815260200190565b60405180910390a2610bac6001600655565b5050565b610bb86115a6565b610bc233826117b8565b60405181815233907fbf67f1e00dc3e7ac716abc072a4e6e12688c126cdd4ec23da2a6c8107b56ec4a9060200160405180910390a2610c016001600655565b50565b610c0c61132e565b6103e8811115610c5e5760405162461bcd60e51b815260206004820181905260248201527f53636f7265206d757374206265206265747765656e203020616e642031303030604482015260640161082f565b6001600160a01b0382166000818152600f60209081526040808320805460ff19166001179055601082529182902084905590518381527f1f848810a712462e7e0f30baebd3d1af1406d07ef73a6c5ea2bf2e800ef1358d91015b60405180910390a25050565b610ccc61132e565b610cd660006118ea565b565b600080600080610ce760025490565b600b5490956a115eec47f6cf7e350000009550909350600092509050565b610d10823383611388565b610bac82826117b8565b610d2261132e565b6001600160a01b038216600081815260096020908152604091829020805460ff191685151590811790915591519182527ffe56f435bf1fa24e3c0f49004084052dec9652fe978ce6ea44ebd0a788280ee39101610cb8565b60606004805461063590611cf3565b610dc26040518060c001604052806000815260200160008152602001600081526020016000815260200160008152602001600081525090565b610dfb6040518060c001604052806000815260200160008152602001600081526020016000815260200160008152602001600081525090565b50506001600160a01b0381166000818152600760209081526040808320815160c0808201845282548252600180840154838701526002808501548487015260038086015460608087019190915260048088015460808089019190915260059889015460a0808a01919091528d8d52600d8c528a8d208b519889018c528054895296870154888d015294860154878b015292850154918601919091528301549084015293015492810192909252948452600a9092528220549091610ebd856106d2565b90509193509193565b60003381610ed48286611169565b905083811015610f345760405162461bcd60e51b815260206004820152602560248201527f45524332303a2064656372656173656420616c6c6f77616e63652062656c6f77604482015264207a65726f60d81b606482015260840161082f565b610946828686840361120a565b6000336106c6818585611402565b610f5761132e565b610f5f6115a6565b6103e88411158015610f7357506103e88311155b8015610f8157506103e88211155b8015610f8f57506103e88111155b610fab5760405162461bcd60e51b815260040161082f90611e9f565b600060048284610fbb8789611d2d565b610fc59190611d2d565b610fcf9190611d2d565b610fd99190611d4e565b90506040518060c001604052808681526020018581526020018481526020018381526020018281526020014281525060076000886001600160a01b03166001600160a01b03168152602001908152602001600020600082015181600001556020820151816001015560408201518160020155606082015181600301556080820151816004015560a08201518160050155905050856001600160a01b03167f15dd57e0cde9af9083c846eb39c9da382e907c0036818e4a163ecd167e5f327682426040516110b0929190918252602082015260400190565b60405180910390a2610acf868261193c565b6110ca61132e565b6103e881111561111c5760405162461bcd60e51b815260206004820181905260248201527f53636f7265206d757374206265206265747765656e203020616e642031303030604482015260640161082f565b6001600160a01b0382166000818152600a602052604090819020839055517feae7b3c31b8a39ca50e23e7ae7a6982e45d0a6cbc0576e375027f2490a8ba6c090610cb89084815260200190565b6001600160a01b03918216600090815260016020908152604080832093909416825291909152205490565b61119c61132e565b6001600160a01b0381166112015760405162461bcd60e51b815260206004820152602660248201527f4f776e61626c653a206e6577206f776e657220697320746865207a65726f206160448201526564647265737360d01b606482015260840161082f565b610c01816118ea565b6001600160a01b03831661126c5760405162461bcd60e51b8152602060048201526024808201527f45524332303a20617070726f76652066726f6d20746865207a65726f206164646044820152637265737360e01b606482015260840161082f565b6001600160a01b0382166112cd5760405162461bcd60e51b815260206004820152602260248201527f45524332303a20617070726f766520746f20746865207a65726f206164647265604482015261737360f01b606482015260840161082f565b6001600160a01b0383811660008181526001602090815260408083209487168084529482529182902085905590518481527f8c5be1e5ebec7d5bd14f71427d1e84f3dd0314c0f7b2291e5b200ac8c7c3b925910160405180910390a3505050565b6005546001600160a01b03163314610cd65760405162461bcd60e51b815260206004820181905260248201527f4f776e61626c653a2063616c6c6572206973206e6f7420746865206f776e6572604482015260640161082f565b60006113948484611169565b905060001981146113fc57818110156113ef5760405162461bcd60e51b815260206004820152601d60248201527f45524332303a20696e73756666696369656e7420616c6c6f77616e6365000000604482015260640161082f565b6113fc848484840361120a565b50505050565b6001600160a01b0383166114665760405162461bcd60e51b815260206004820152602560248201527f45524332303a207472616e736665722066726f6d20746865207a65726f206164604482015264647265737360d81b606482015260840161082f565b6001600160a01b0382166114c85760405162461bcd60e51b815260206004820152602360248201527f45524332303a207472616e7366657220746f20746865207a65726f206164647260448201526265737360e81b606482015260840161082f565b6001600160a01b038316600090815260208190526040902054818110156115405760405162461bcd60e51b815260206004820152602660248201527f45524332303a207472616e7366657220616d6f756e7420657863656564732062604482015265616c616e636560d01b606482015260840161082f565b6001600160a01b03848116600081815260208181526040808320878703905593871680835291849020805487019055925185815290927fddf252ad1be2c89b69c2b068fc378daa952ba7f163c4a11628f55a4df523b3ef910160405180910390a36113fc565b6002600654036115f85760405162461bcd60e51b815260206004820152601f60248201527f5265656e7472616e637947756172643a207265656e7472616e742063616c6c00604482015260640161082f565b6002600655565b6000610384821061161a5750680ad78ebc5ac6200000611648565b6103208210611633575068056bc75e2d63100000611648565b6102bc821061164857506802b5e3af16b18800005b80156116f4576116588382610ae1565b6001600160a01b0383166000908152600e602052604081208054839290611680908490611d2d565b92505081905550826001600160a01b03167fff96a5cc0a74f0430449f2f6c9940e12c1f089cc93c3fc4664c987c3c30c0d52826040516116eb918152604060208201819052601190820152701154d1c8125b5c1858dd0814995dd85c99607a1b606082015260800190565b60405180910390a25b505050565b6001600160a01b03821661174f5760405162461bcd60e51b815260206004820152601f60248201527f45524332303a206d696e7420746f20746865207a65726f206164647265737300604482015260640161082f565b80600260008282546117619190611d2d565b90915550506001600160a01b038216600081815260208181526040808320805486019055518481527fddf252ad1be2c89b69c2b068fc378daa952ba7f163c4a11628f55a4df523b3ef910160405180910390a35050565b6001600160a01b0382166118185760405162461bcd60e51b815260206004820152602160248201527f45524332303a206275726e2066726f6d20746865207a65726f206164647265736044820152607360f81b606482015260840161082f565b6001600160a01b0382166000908152602081905260409020548181101561188c5760405162461bcd60e51b815260206004820152602260248201527f45524332303a206275726e20616d6f756e7420657863656564732062616c616e604482015261636560f01b606482015260840161082f565b6001600160a01b0383166000818152602081815260408083208686039055600280548790039055518581529192917fddf252ad1be2c89b69c2b068fc378daa952ba7f163c4a11628f55a4df523b3ef910160405180910390a3505050565b600580546001600160a01b038381166001600160a01b0319831681179093556040519116919082907f8be0079c531659141344cd1fd0a4f28419497f9722a3daafe3b4186f6b6457e090600090a35050565b60006103848210611957575068056bc75e2d63100000611984565b610320821061197057506802b5e3af16b1880000611984565b6102bc82106119845750678ac7230489e800005b80156116f4576119948382610ae1565b6001600160a01b038316600090815260086020526040812080548392906119bc908490611d2d565b9091555050505050565b6000815180845260005b818110156119ec576020818501810151868301820152016119d0565b506000602082860101526020601f19601f83011685010191505092915050565b602081526000611a1f60208301846119c6565b9392505050565b80356001600160a01b0381168114611a3d57600080fd5b919050565b60008060408385031215611a5557600080fd5b611a5e83611a26565b946020939093013593505050565b600060208284031215611a7e57600080fd5b611a1f82611a26565b634e487b7160e01b600052604160045260246000fd5b60008060408385031215611ab057600080fd5b82359150602083013567ffffffffffffffff80821115611acf57600080fd5b818501915085601f830112611ae357600080fd5b813581811115611af557611af5611a87565b604051601f8201601f19908116603f01168101908382118183101715611b1d57611b1d611a87565b81604052828152886020848701011115611b3657600080fd5b8260208601602083013760006020848301015280955050505050509250929050565b600060208284031215611b6a57600080fd5b5035919050565b600080600060608486031215611b8657600080fd5b611b8f84611a26565b9250611b9d60208501611a26565b9150604084013590509250925092565b600080600080600060a08688031215611bc557600080fd5b611bce86611a26565b97602087013597506040870135966060810135965060800135945092505050565b60008060408385031215611c0257600080fd5b611c0b83611a26565b915060208301358015158114611c2057600080fd5b809150509250929050565b6101c08101611c6f8287805182526020810151602083015260408101516040830152606081015160608301526080810151608083015260a081015160a08301525050565b845160c0830152602085015160e083015260408501516101008301526060850151610120830152608085015161014083015260a08501516101608301526101808201939093526101a0015292915050565b60008060408385031215611cd357600080fd5b611cdc83611a26565b9150611cea60208401611a26565b90509250929050565b600181811c90821680611d0757607f821691505b602082108103611d2757634e487b7160e01b600052602260045260246000fd5b50919050565b808201808211156106cc57634e487b7160e01b600052601160045260246000fd5b600082611d6b57634e487b7160e01b600052601260045260246000fd5b500490565b601f8211156116f457600081815260208120601f850160051c81016020861015611d975750805b601f850160051c820191505b81811015611db657828155600101611da3565b505050505050565b815167ffffffffffffffff811115611dd857611dd8611a87565b611dec81611de68454611cf3565b84611d70565b602080601f831160018114611e215760008415611e095750858301515b600019600386901b1c1916600185901b178555611db6565b600085815260208120601f198616915b82811015611e5057888601518255948401946001909101908401611e31565b5085821015611e6e5787850151600019600388901b60f8161c191681555b5050505050600190811b01905550565b828152604060208201526000611e9760408301846119c6565b949350505050565b60208082526021908201527f53636f726573206d757374206265206265747765656e203020616e64203130306040820152600360fc1b60608201526080019056fea2646970667358221220d3a40eb12eb6478eb5483862043c2ea2c7e2c57e970d2a8fec1bb9fbd43908d564736f6c63430008140033","opcodes":"PUSH1 0x80 PUSH1 0x40 MSTORE PUSH1 0x1 PUSH1 0xB SSTORE CALLVALUE DUP1 ISZERO PUSH3 0x16 JUMPI PUSH1 0x0 DUP1 REVERT JUMPDEST POP PUSH1 0x40 MLOAD DUP1 PUSH1 0x40 ADD PUSH1 0x40 MSTORE DUP1 PUSH1 0x11 DUP2 MSTORE PUSH1 0x20 ADD PUSH17 0x2A3934B734BA3C9023A9AA102A37B5B2B7 PUSH1 0x79 SHL DUP2 MSTORE POP PUSH1 0x40 MLOAD DUP1 PUSH1 0x40 ADD PUSH1 0x40 MSTORE DUP1 PUSH1 0x3 DUP2 MSTORE PUSH1 0x20 ADD PUSH3 0x11D4D5 PUSH1 0xEA SHL DUP2 MSTORE POP DUP2 PUSH1 0x3 SWAP1 DUP2 PUSH3 0x6E SWAP2 SWAP1 PUSH3 0x2BF JUMP JUMPDEST POP PUSH1 0x4 PUSH3 0x7D DUP3 DUP3 PUSH3 0x2BF JUMP JUMPDEST POP POP POP PUSH3 0x9A PUSH3 0x94 PUSH3 0xFA PUSH1 0x20 SHL PUSH1 0x20 SHR JUMP JUMPDEST PUSH3 0xFE JUMP JUMPDEST PUSH1 0x1 PUSH1 0x6 SSTORE PUSH3 0xB5 CALLER PUSH10 0xD3C21BCECCEDA1000000 PUSH3 0x150 JUMP JUMPDEST PUSH1 0x40 MLOAD PUSH10 0xD3C21BCECCEDA1000000 DUP2 MSTORE CALLER SWAP1 PUSH32 0x9DB28E3ABBB6B6787009E61396F8120369D79065259BE6F3090B7301B3F4CF6 SWAP1 PUSH1 0x20 ADD PUSH1 0x40 MLOAD DUP1 SWAP2 SUB SWAP1 LOG2 PUSH3 0x3B3 JUMP JUMPDEST CALLER SWAP1 JUMP JUMPDEST PUSH1 0x5 DUP1 SLOAD PUSH1 0x1 PUSH1 0x1 PUSH1 0xA0 SHL SUB DUP4 DUP2 AND PUSH1 0x1 PUSH1 0x1 PUSH1 0xA0 SHL SUB NOT DUP4 AND DUP2 OR SWAP1 SWAP4 SSTORE PUSH1 0x40 MLOAD SWAP2 AND SWAP2 SWAP1 DUP3 SWAP1 PUSH32 0x8BE0079C531659141344CD1FD0A4F28419497F9722A3DAAFE3B4186F6B6457E0 SWAP1 PUSH1 0x0 SWAP1 LOG3 POP POP JUMP JUMPDEST PUSH1 0x1 PUSH1 0x1 PUSH1 0xA0 SHL SUB DUP3 AND PUSH3 0x1AB JUMPI PUSH1 0x40 MLOAD PUSH3 0x461BCD PUSH1 0xE5 SHL DUP2 MSTORE PUSH1 0x20 PUSH1 0x4 DUP3 ADD MSTORE PUSH1 0x1F PUSH1 0x24 DUP3 ADD MSTORE PUSH32 0x45524332303A206D696E7420746F20746865207A65726F206164647265737300 PUSH1 0x44 DUP3 ADD MSTORE PUSH1 0x64 ADD PUSH1 0x40 MLOAD DUP1 SWAP2 SUB SWAP1 REVERT JUMPDEST DUP1 PUSH1 0x2 PUSH1 0x0 DUP3 DUP3 SLOAD PUSH3 0x1BF SWAP2 SWAP1 PUSH3 0x38B JUMP JUMPDEST SWAP1 SWAP2 SSTORE POP POP PUSH1 0x1 PUSH1 0x1 PUSH1 0xA0 SHL SUB DUP3 AND PUSH1 0x0 DUP2 DUP2 MSTORE PUSH1 0x20 DUP2 DUP2 MSTORE PUSH1 0x40 DUP1 DUP4 KECCAK256 DUP1 SLOAD DUP7 ADD SWAP1 SSTORE MLOAD DUP5 DUP2 MSTORE PUSH32 0xDDF252AD1BE2C89B69C2B068FC378DAA952BA7F163C4A11628F55A4DF523B3EF SWAP2 ADD PUSH1 0x40 MLOAD DUP1 SWAP2 SUB SWAP1 LOG3 POP POP JUMP JUMPDEST POP POP POP JUMP JUMPDEST PUSH4 0x4E487B71 PUSH1 0xE0 SHL PUSH1 0x0 MSTORE PUSH1 0x41 PUSH1 0x4 MSTORE PUSH1 0x24 PUSH1 0x0 REVERT JUMPDEST PUSH1 0x1 DUP2 DUP2 SHR SWAP1 DUP3 AND DUP1 PUSH3 0x246 JUMPI PUSH1 0x7F DUP3 AND SWAP2 POP JUMPDEST PUSH1 0x20 DUP3 LT DUP2 SUB PUSH3 0x267 JUMPI PUSH4 0x4E487B71 PUSH1 0xE0 SHL PUSH1 0x0 MSTORE PUSH1 0x22 PUSH1 0x4 MSTORE PUSH1 0x24 PUSH1 0x0 REVERT JUMPDEST POP SWAP2 SWAP1 POP JUMP JUMPDEST PUSH1 0x1F DUP3 GT ISZERO PUSH3 0x216 JUMPI PUSH1 0x0 DUP2 DUP2 MSTORE PUSH1 0x20 DUP2 KECCAK256 PUSH1 0x1F DUP6 ADD PUSH1 0x5 SHR DUP2 ADD PUSH1 0x20 DUP7 LT ISZERO PUSH3 0x296 JUMPI POP DUP1 JUMPDEST PUSH1 0x1F DUP6 ADD PUSH1 0x5 SHR DUP3 ADD SWAP2 POP JUMPDEST DUP2 DUP2 LT ISZERO PUSH3 0x2B7 JUMPI DUP3 DUP2 SSTORE PUSH1 0x1 ADD PUSH3 0x2A2 JUMP JUMPDEST POP POP POP POP POP POP JUMP JUMPDEST DUP2 MLOAD PUSH1 0x1 PUSH1 0x1 PUSH1 0x40 SHL SUB DUP2 GT ISZERO PUSH3 0x2DB JUMPI PUSH3 0x2DB PUSH3 0x21B JUMP JUMPDEST PUSH3 0x2F3 DUP2 PUSH3 0x2EC DUP5 SLOAD PUSH3 0x231 JUMP JUMPDEST DUP5 PUSH3 0x26D JUMP JUMPDEST PUSH1 0x20 DUP1 PUSH1 0x1F DUP4 GT PUSH1 0x1 DUP2 EQ PUSH3 0x32B JUMPI PUSH1 0x0 DUP5 ISZERO PUSH3 0x312 JUMPI POP DUP6 DUP4 ADD MLOAD JUMPDEST PUSH1 0x0 NOT PUSH1 0x3 DUP7 SWAP1 SHL SHR NOT AND PUSH1 0x1 DUP6 SWAP1 SHL OR DUP6 SSTORE PUSH3 0x2B7 JUMP JUMPDEST PUSH1 0x0 DUP6 DUP2 MSTORE PUSH1 0x20 DUP2 KECCAK256 PUSH1 0x1F NOT DUP7 AND SWAP2 JUMPDEST DUP3 DUP2 LT ISZERO PUSH3 0x35C JUMPI DUP9 DUP7 ADD MLOAD DUP3 SSTORE SWAP5 DUP5 ADD SWAP5 PUSH1 0x1 SWAP1 SWAP2 ADD SWAP1 DUP5 ADD PUSH3 0x33B JUMP JUMPDEST POP DUP6 DUP3 LT ISZERO PUSH3 0x37B JUMPI DUP8 DUP6 ADD MLOAD PUSH1 0x0 NOT PUSH1 0x3 DUP9 SWAP1 SHL PUSH1 0xF8 AND SHR NOT AND DUP2 SSTORE JUMPDEST POP POP POP POP POP PUSH1 0x1 SWAP1 DUP2 SHL ADD SWAP1 SSTORE POP JUMP JUMPDEST DUP1 DUP3 ADD DUP1 DUP3 GT ISZERO PUSH3 0x3AD JUMPI PUSH4 0x4E487B71 PUSH1 0xE0 SHL PUSH1 0x0 MSTORE PUSH1 0x11 PUSH1 0x4 MSTORE PUSH1 0x24 PUSH1 0x0 REVERT JUMPDEST SWAP3 SWAP2 POP POP JUMP JUMPDEST PUSH2 0x1F16 DUP1 PUSH3 0x3C3 PUSH1 0x0 CODECOPY PUSH1 0x0 RETURN INVALID PUSH1 0x80 PUSH1 0x40 MSTORE CALLVALUE DUP1 ISZERO PUSH2 0x10 JUMPI PUSH1 0x0 DUP1 REVERT JUMPDEST POP PUSH1 0x4 CALLDATASIZE LT PUSH2 0x232 JUMPI PUSH1 0x0 CALLDATALOAD PUSH1 0xE0 SHR DUP1 PUSH4 0x70A08231 GT PUSH2 0x130 JUMPI DUP1 PUSH4 0xA457C2D7 GT PUSH2 0xB8 JUMPI DUP1 PUSH4 0xBEEE03DB GT PUSH2 0x7C JUMPI DUP1 PUSH4 0xBEEE03DB EQ PUSH2 0x59D JUMPI DUP1 PUSH4 0xD98BCD98 EQ PUSH2 0x5BD JUMPI DUP1 PUSH4 0xDD62ED3E EQ PUSH2 0x5E0 JUMPI DUP1 PUSH4 0xE5B31BB4 EQ PUSH2 0x5F3 JUMPI DUP1 PUSH4 0xF2FDE38B EQ PUSH2 0x613 JUMPI PUSH1 0x0 DUP1 REVERT JUMPDEST DUP1 PUSH4 0xA457C2D7 EQ PUSH2 0x50E JUMPI DUP1 PUSH4 0xA9059CBB EQ PUSH2 0x521 JUMPI DUP1 PUSH4 0xB17C7145 EQ PUSH2 0x534 JUMPI DUP1 PUSH4 0xB25ACE94 EQ PUSH2 0x547 JUMPI DUP1 PUSH4 0xB5A039FC EQ PUSH2 0x58A JUMPI PUSH1 0x0 DUP1 REVERT JUMPDEST DUP1 PUSH4 0x85873BA0 GT PUSH2 0xFF JUMPI DUP1 PUSH4 0x85873BA0 EQ PUSH2 0x495 JUMPI DUP1 PUSH4 0x8960F1A5 EQ PUSH2 0x4A8 JUMPI DUP1 PUSH4 0x8DA5CB5B EQ PUSH2 0x4C8 JUMPI DUP1 PUSH4 0x95D89B41 EQ PUSH2 0x4E3 JUMPI DUP1 PUSH4 0x9F6B1879 EQ PUSH2 0x4EB JUMPI PUSH1 0x0 DUP1 REVERT JUMPDEST DUP1 PUSH4 0x70A08231 EQ PUSH2 0x429 JUMPI DUP1 PUSH4 0x715018A6 EQ PUSH2 0x452 JUMPI DUP1 PUSH4 0x7221DD9D EQ PUSH2 0x45A JUMPI DUP1 PUSH4 0x79CC6790 EQ PUSH2 0x482 JUMPI PUSH1 0x0 DUP1 REVERT JUMPDEST DUP1 PUSH4 0x2FF2E9DC GT PUSH2 0x1BE JUMPI DUP1 PUSH4 0x40C10F19 GT PUSH2 0x182 JUMPI DUP1 PUSH4 0x40C10F19 EQ PUSH2 0x3C7 JUMPI DUP1 PUSH4 0x42966C68 EQ PUSH2 0x3DA JUMPI DUP1 PUSH4 0x4FEE8794 EQ PUSH2 0x3ED JUMPI DUP1 PUSH4 0x54FD4D50 EQ PUSH2 0x400 JUMPI DUP1 PUSH4 0x6641373A EQ PUSH2 0x409 JUMPI PUSH1 0x0 DUP1 REVERT JUMPDEST DUP1 PUSH4 0x2FF2E9DC EQ PUSH2 0x36F JUMPI DUP1 PUSH4 0x313CE567 EQ PUSH2 0x380 JUMPI DUP1 PUSH4 0x32CB6B0C EQ PUSH2 0x38F JUMPI DUP1 PUSH4 0x39509351 EQ PUSH2 0x3A1 JUMPI DUP1 PUSH4 0x3F7B63D9 EQ PUSH2 0x3B4 JUMPI PUSH1 0x0 DUP1 REVERT JUMPDEST DUP1 PUSH4 0x18160DDD GT PUSH2 0x205 JUMPI DUP1 PUSH4 0x18160DDD EQ PUSH2 0x2AE JUMPI DUP1 PUSH4 0x1E886D28 EQ PUSH2 0x2B6 JUMPI DUP1 PUSH4 0x2281C4B3 EQ PUSH2 0x2D9 JUMPI DUP1 PUSH4 0x23B872DD EQ PUSH2 0x2EC JUMPI DUP1 PUSH4 0x2D891779 EQ PUSH2 0x2FF JUMPI PUSH1 0x0 DUP1 REVERT JUMPDEST DUP1 PUSH4 0x6FDDE03 EQ PUSH2 0x237 JUMPI DUP1 PUSH4 0x95EA7B3 EQ PUSH2 0x255 JUMPI DUP1 PUSH4 0xCA8F20C EQ PUSH2 0x278 JUMPI DUP1 PUSH4 0xF1C37C3 EQ PUSH2 0x299 JUMPI JUMPDEST PUSH1 0x0 DUP1 REVERT JUMPDEST PUSH2 0x23F PUSH2 0x626 JUMP JUMPDEST PUSH1 0x40 MLOAD PUSH2 0x24C SWAP2 SWAP1 PUSH2 0x1A0C JUMP JUMPDEST PUSH1 0x40 MLOAD DUP1 SWAP2 SUB SWAP1 RETURN JUMPDEST PUSH2 0x268 PUSH2 0x263 CALLDATASIZE PUSH1 0x4 PUSH2 0x1A42 JUMP JUMPDEST PUSH2 0x6B8 JUMP JUMPDEST PUSH1 0x40 MLOAD SWAP1 ISZERO ISZERO DUP2 MSTORE PUSH1 0x20 ADD PUSH2 0x24C JUMP JUMPDEST PUSH2 0x28B PUSH2 0x286 CALLDATASIZE PUSH1 0x4 PUSH2 0x1A6C JUMP JUMPDEST PUSH2 0x6D2 JUMP JUMPDEST PUSH1 0x40 MLOAD SWAP1 DUP2 MSTORE PUSH1 0x20 ADD PUSH2 0x24C JUMP JUMPDEST PUSH2 0x2AC PUSH2 0x2A7 CALLDATASIZE PUSH1 0x4 PUSH2 0x1A9D JUMP JUMPDEST PUSH2 0x7E1 JUMP JUMPDEST STOP JUMPDEST PUSH1 0x2 SLOAD PUSH2 0x28B JUMP JUMPDEST PUSH2 0x268 PUSH2 0x2C4 CALLDATASIZE PUSH1 0x4 PUSH2 0x1A6C JUMP JUMPDEST PUSH1 0x9 PUSH1 0x20 MSTORE PUSH1 0x0 SWAP1 DUP2 MSTORE PUSH1 0x40 SWAP1 KECCAK256 SLOAD PUSH1 0xFF AND DUP2 JUMP JUMPDEST PUSH2 0x23F PUSH2 0x2E7 CALLDATASIZE PUSH1 0x4 PUSH2 0x1B58 JUMP JUMPDEST PUSH2 0x893 JUMP JUMPDEST PUSH2 0x268 PUSH2 0x2FA CALLDATASIZE PUSH1 0x4 PUSH2 0x1B71 JUMP JUMPDEST PUSH2 0x92D JUMP JUMPDEST PUSH2 0x342 PUSH2 0x30D CALLDATASIZE PUSH1 0x4 PUSH2 0x1A6C JUMP JUMPDEST PUSH1 0xD PUSH1 0x20 MSTORE PUSH1 0x0 SWAP1 DUP2 MSTORE PUSH1 0x40 SWAP1 KECCAK256 DUP1 SLOAD PUSH1 0x1 DUP3 ADD SLOAD PUSH1 0x2 DUP4 ADD SLOAD PUSH1 0x3 DUP5 ADD SLOAD PUSH1 0x4 DUP6 ADD SLOAD PUSH1 0x5 SWAP1 SWAP6 ADD SLOAD SWAP4 SWAP5 SWAP3 SWAP4 SWAP2 SWAP3 SWAP1 SWAP2 DUP7 JUMP JUMPDEST PUSH1 0x40 DUP1 MLOAD SWAP7 DUP8 MSTORE PUSH1 0x20 DUP8 ADD SWAP6 SWAP1 SWAP6 MSTORE SWAP4 DUP6 ADD SWAP3 SWAP1 SWAP3 MSTORE PUSH1 0x60 DUP5 ADD MSTORE PUSH1 0x80 DUP4 ADD MSTORE PUSH1 0xA0 DUP3 ADD MSTORE PUSH1 0xC0 ADD PUSH2 0x24C JUMP JUMPDEST PUSH2 0x28B PUSH10 0xD3C21BCECCEDA1000000 DUP2 JUMP JUMPDEST PUSH1 0x40 MLOAD PUSH1 0x12 DUP2 MSTORE PUSH1 0x20 ADD PUSH2 0x24C JUMP JUMPDEST PUSH2 0x28B PUSH11 0x115EEC47F6CF7E35000000 DUP2 JUMP JUMPDEST PUSH2 0x268 PUSH2 0x3AF CALLDATASIZE PUSH1 0x4 PUSH2 0x1A42 JUMP JUMPDEST PUSH2 0x951 JUMP JUMPDEST PUSH2 0x2AC PUSH2 0x3C2 CALLDATASIZE PUSH1 0x4 PUSH2 0x1BAD JUMP JUMPDEST PUSH2 0x973 JUMP JUMPDEST PUSH2 0x2AC PUSH2 0x3D5 CALLDATASIZE PUSH1 0x4 PUSH2 0x1A42 JUMP JUMPDEST PUSH2 0xAE1 JUMP JUMPDEST PUSH2 0x2AC PUSH2 0x3E8 CALLDATASIZE PUSH1 0x4 PUSH2 0x1B58 JUMP JUMPDEST PUSH2 0xBB0 JUMP JUMPDEST PUSH2 0x2AC PUSH2 0x3FB CALLDATASIZE PUSH1 0x4 PUSH2 0x1A42 JUMP JUMPDEST PUSH2 0xC04 JUMP JUMPDEST PUSH2 0x28B PUSH1 0xB SLOAD DUP2 JUMP JUMPDEST PUSH2 0x28B PUSH2 0x417 CALLDATASIZE PUSH1 0x4 PUSH2 0x1A6C JUMP JUMPDEST PUSH1 0xA PUSH1 0x20 MSTORE PUSH1 0x0 SWAP1 DUP2 MSTORE PUSH1 0x40 SWAP1 KECCAK256 SLOAD DUP2 JUMP JUMPDEST PUSH2 0x28B PUSH2 0x437 CALLDATASIZE PUSH1 0x4 PUSH2 0x1A6C JUMP JUMPDEST PUSH1 0x1 PUSH1 0x1 PUSH1 0xA0 SHL SUB AND PUSH1 0x0 SWAP1 DUP2 MSTORE PUSH1 0x20 DUP2 SWAP1 MSTORE PUSH1 0x40 SWAP1 KECCAK256 SLOAD SWAP1 JUMP JUMPDEST PUSH2 0x2AC PUSH2 0xCC4 JUMP JUMPDEST PUSH2 0x462 PUSH2 0xCD8 JUMP JUMPDEST PUSH1 0x40 DUP1 MLOAD SWAP5 DUP6 MSTORE PUSH1 0x20 DUP6 ADD SWAP4 SWAP1 SWAP4 MSTORE SWAP2 DUP4 ADD MSTORE PUSH1 0x60 DUP3 ADD MSTORE PUSH1 0x80 ADD PUSH2 0x24C JUMP JUMPDEST PUSH2 0x2AC PUSH2 0x490 CALLDATASIZE PUSH1 0x4 PUSH2 0x1A42 JUMP JUMPDEST PUSH2 0xD05 JUMP JUMPDEST PUSH2 0x2AC PUSH2 0x4A3 CALLDATASIZE PUSH1 0x4 PUSH2 0x1BEF JUMP JUMPDEST PUSH2 0xD1A JUMP JUMPDEST PUSH2 0x28B PUSH2 0x4B6 CALLDATASIZE PUSH1 0x4 PUSH2 0x1A6C JUMP JUMPDEST PUSH1 0x10 PUSH1 0x20 MSTORE PUSH1 0x0 SWAP1 DUP2 MSTORE PUSH1 0x40 SWAP1 KECCAK256 SLOAD DUP2 JUMP JUMPDEST PUSH1 0x5 SLOAD PUSH1 0x40 MLOAD PUSH1 0x1 PUSH1 0x1 PUSH1 0xA0 SHL SUB SWAP1 SWAP2 AND DUP2 MSTORE PUSH1 0x20 ADD PUSH2 0x24C JUMP JUMPDEST PUSH2 0x23F PUSH2 0xD7A JUMP JUMPDEST PUSH2 0x4FE PUSH2 0x4F9 CALLDATASIZE PUSH1 0x4 PUSH2 0x1A6C JUMP JUMPDEST PUSH2 0xD89 JUMP JUMPDEST PUSH1 0x40 MLOAD PUSH2 0x24C SWAP5 SWAP4 SWAP3 SWAP2 SWAP1 PUSH2 0x1C2B JUMP JUMPDEST PUSH2 0x268 PUSH2 0x51C CALLDATASIZE PUSH1 0x4 PUSH2 0x1A42 JUMP JUMPDEST PUSH2 0xEC6 JUMP JUMPDEST PUSH2 0x268 PUSH2 0x52F CALLDATASIZE PUSH1 0x4 PUSH2 0x1A42 JUMP JUMPDEST PUSH2 0xF41 JUMP JUMPDEST PUSH2 0x2AC PUSH2 0x542 CALLDATASIZE PUSH1 0x4 PUSH2 0x1BAD JUMP JUMPDEST PUSH2 0xF4F JUMP JUMPDEST PUSH2 0x342 PUSH2 0x555 CALLDATASIZE PUSH1 0x4 PUSH2 0x1A6C JUMP JUMPDEST PUSH1 0x7 PUSH1 0x20 MSTORE PUSH1 0x0 SWAP1 DUP2 MSTORE PUSH1 0x40 SWAP1 KECCAK256 DUP1 SLOAD PUSH1 0x1 DUP3 ADD SLOAD PUSH1 0x2 DUP4 ADD SLOAD PUSH1 0x3 DUP5 ADD SLOAD PUSH1 0x4 DUP6 ADD SLOAD PUSH1 0x5 SWAP1 SWAP6 ADD SLOAD SWAP4 SWAP5 SWAP3 SWAP4 SWAP2 SWAP3 SWAP1 SWAP2 DUP7 JUMP JUMPDEST PUSH2 0x2AC PUSH2 0x598 CALLDATASIZE PUSH1 0x4 PUSH2 0x1A42 JUMP JUMPDEST PUSH2 0x10C2 JUMP JUMPDEST PUSH2 0x28B PUSH2 0x5AB CALLDATASIZE PUSH1 0x4 PUSH2 0x1A6C JUMP JUMPDEST PUSH1 0xE PUSH1 0x20 MSTORE PUSH1 0x0 SWAP1 DUP2 MSTORE PUSH1 0x40 SWAP1 KECCAK256 SLOAD DUP2 JUMP JUMPDEST PUSH2 0x268 PUSH2 0x5CB CALLDATASIZE PUSH1 0x4 PUSH2 0x1A6C JUMP JUMPDEST PUSH1 0xF PUSH1 0x20 MSTORE PUSH1 0x0 SWAP1 DUP2 MSTORE PUSH1 0x40 SWAP1 KECCAK256 SLOAD PUSH1 0xFF AND DUP2 JUMP JUMPDEST PUSH2 0x28B PUSH2 0x5EE CALLDATASIZE PUSH1 0x4 PUSH2 0x1CC0 JUMP JUMPDEST PUSH2 0x1169 JUMP JUMPDEST PUSH2 0x28B PUSH2 0x601 CALLDATASIZE PUSH1 0x4 PUSH2 0x1A6C JUMP JUMPDEST PUSH1 0x8 PUSH1 0x20 MSTORE PUSH1 0x0 SWAP1 DUP2 MSTORE PUSH1 0x40 SWAP1 KECCAK256 SLOAD DUP2 JUMP JUMPDEST PUSH2 0x2AC PUSH2 0x621 CALLDATASIZE PUSH1 0x4 PUSH2 0x1A6C JUMP JUMPDEST PUSH2 0x1194 JUMP JUMPDEST PUSH1 0x60 PUSH1 0x3 DUP1 SLOAD PUSH2 0x635 SWAP1 PUSH2 0x1CF3 JUMP JUMPDEST DUP1 PUSH1 0x1F ADD PUSH1 0x20 DUP1 SWAP2 DIV MUL PUSH1 0x20 ADD PUSH1 0x40 MLOAD SWAP1 DUP2 ADD PUSH1 0x40 MSTORE DUP1 SWAP3 SWAP2 SWAP1 DUP2 DUP2 MSTORE PUSH1 0x20 ADD DUP3 DUP1 SLOAD PUSH2 0x661 SWAP1 PUSH2 0x1CF3 JUMP JUMPDEST DUP1 ISZERO PUSH2 0x6AE JUMPI DUP1 PUSH1 0x1F LT PUSH2 0x683 JUMPI PUSH2 0x100 DUP1 DUP4 SLOAD DIV MUL DUP4 MSTORE SWAP2 PUSH1 0x20 ADD SWAP2 PUSH2 0x6AE JUMP JUMPDEST DUP3 ADD SWAP2 SWAP1 PUSH1 0x0 MSTORE PUSH1 0x20 PUSH1 0x0 KECCAK256 SWAP1 JUMPDEST DUP2 SLOAD DUP2 MSTORE SWAP1 PUSH1 0x1 ADD SWAP1 PUSH1 0x20 ADD DUP1 DUP4 GT PUSH2 0x691 JUMPI DUP3 SWAP1 SUB PUSH1 0x1F AND DUP3 ADD SWAP2 JUMPDEST POP POP POP POP POP SWAP1 POP SWAP1 JUMP JUMPDEST PUSH1 0x0 CALLER PUSH2 0x6C6 DUP2 DUP6 DUP6 PUSH2 0x120A JUMP JUMPDEST PUSH1 0x1 SWAP2 POP POP JUMPDEST SWAP3 SWAP2 POP POP JUMP JUMPDEST PUSH1 0x1 PUSH1 0x1 PUSH1 0xA0 SHL SUB DUP2 AND PUSH1 0x0 DUP2 DUP2 MSTORE PUSH1 0x7 PUSH1 0x20 SWAP1 DUP2 MSTORE PUSH1 0x40 DUP1 DUP4 KECCAK256 DUP2 MLOAD PUSH1 0xC0 DUP1 DUP3 ADD DUP5 MSTORE DUP3 SLOAD DUP3 MSTORE PUSH1 0x1 DUP1 DUP5 ADD SLOAD DUP4 DUP8 ADD MSTORE PUSH1 0x2 DUP1 DUP6 ADD SLOAD DUP5 DUP8 ADD MSTORE PUSH1 0x3 DUP1 DUP7 ADD SLOAD PUSH1 0x60 DUP1 DUP8 ADD SWAP2 SWAP1 SWAP2 MSTORE PUSH1 0x4 DUP1 DUP9 ADD SLOAD PUSH1 0x80 DUP1 DUP10 ADD SWAP2 SWAP1 SWAP2 MSTORE PUSH1 0x5 SWAP9 DUP10 ADD SLOAD PUSH1 0xA0 DUP1 DUP11 ADD SWAP2 DUP3 MSTORE DUP15 DUP15 MSTORE PUSH1 0xD DUP14 MSTORE DUP12 DUP15 KECCAK256 DUP13 MLOAD SWAP10 DUP11 ADD DUP14 MSTORE DUP1 SLOAD DUP11 MSTORE SWAP8 DUP9 ADD SLOAD DUP10 DUP15 ADD MSTORE SWAP6 DUP8 ADD SLOAD DUP9 DUP13 ADD MSTORE SWAP4 DUP7 ADD SLOAD SWAP3 DUP8 ADD SWAP3 SWAP1 SWAP3 MSTORE DUP5 ADD SLOAD SWAP1 DUP6 ADD MSTORE SWAP2 SWAP1 SWAP5 ADD SLOAD SWAP4 DUP3 ADD SWAP4 SWAP1 SWAP4 MSTORE SWAP6 DUP6 MSTORE PUSH1 0xA SWAP1 SWAP4 MSTORE SWAP1 DUP4 KECCAK256 SLOAD SWAP1 MLOAD SWAP3 SWAP4 SWAP2 SWAP3 ISZERO DUP1 PUSH2 0x79D JUMPI POP PUSH1 0xA0 DUP3 ADD MLOAD ISZERO JUMPDEST ISZERO PUSH2 0x7AD JUMPI POP PUSH1 0x0 SWAP5 SWAP4 POP POP POP POP JUMP JUMPDEST PUSH1 0x3 DUP2 DUP4 PUSH1 0x80 ADD MLOAD DUP6 PUSH1 0x80 ADD MLOAD PUSH2 0x7C4 SWAP2 SWAP1 PUSH2 0x1D2D JUMP JUMPDEST PUSH2 0x7CE SWAP2 SWAP1 PUSH2 0x1D2D JUMP JUMPDEST PUSH2 0x7D8 SWAP2 SWAP1 PUSH2 0x1D4E JUMP JUMPDEST SWAP6 SWAP5 POP POP POP POP POP JUMP JUMPDEST PUSH2 0x7E9 PUSH2 0x132E JUMP JUMPDEST PUSH1 0xB SLOAD DUP3 GT PUSH2 0x838 JUMPI PUSH1 0x40 MLOAD PUSH3 0x461BCD PUSH1 0xE5 SHL DUP2 MSTORE PUSH1 0x20 PUSH1 0x4 DUP3 ADD MSTORE PUSH1 0x16 PUSH1 0x24 DUP3 ADD MSTORE PUSH22 0x2B32B939B4B7B71036BAB9BA103132903434B3B432B9 PUSH1 0x51 SHL PUSH1 0x44 DUP3 ADD MSTORE PUSH1 0x64 ADD JUMPDEST PUSH1 0x40 MLOAD DUP1 SWAP2 SUB SWAP1 REVERT JUMPDEST PUSH1 0xB DUP3 SWAP1 SSTORE PUSH1 0x0 DUP3 DUP2 MSTORE PUSH1 0xC PUSH1 0x20 MSTORE PUSH1 0x40 SWAP1 KECCAK256 PUSH2 0x855 DUP3 DUP3 PUSH2 0x1DBE JUMP JUMPDEST POP PUSH32 0x62C1C9A2FFBA1704E05C9454B0FCACFB88BAA64140B0C7C33A08546F85E9A27B DUP3 DUP3 PUSH1 0x40 MLOAD PUSH2 0x887 SWAP3 SWAP2 SWAP1 PUSH2 0x1E7E JUMP JUMPDEST PUSH1 0x40 MLOAD DUP1 SWAP2 SUB SWAP1 LOG1 POP POP JUMP JUMPDEST PUSH1 0xC PUSH1 0x20 MSTORE PUSH1 0x0 SWAP1 DUP2 MSTORE PUSH1 0x40 SWAP1 KECCAK256 DUP1 SLOAD PUSH2 0x8AC SWAP1 PUSH2 0x1CF3 JUMP JUMPDEST DUP1 PUSH1 0x1F ADD PUSH1 0x20 DUP1 SWAP2 DIV MUL PUSH1 0x20 ADD PUSH1 0x40 MLOAD SWAP1 DUP2 ADD PUSH1 0x40 MSTORE DUP1 SWAP3 SWAP2 SWAP1 DUP2 DUP2 MSTORE PUSH1 0x20 ADD DUP3 DUP1 SLOAD PUSH2 0x8D8 SWAP1 PUSH2 0x1CF3 JUMP JUMPDEST DUP1 ISZERO PUSH2 0x925 JUMPI DUP1 PUSH1 0x1F LT PUSH2 0x8FA JUMPI PUSH2 0x100 DUP1 DUP4 SLOAD DIV MUL DUP4 MSTORE SWAP2 PUSH1 0x20 ADD SWAP2 PUSH2 0x925 JUMP JUMPDEST DUP3 ADD SWAP2 SWAP1 PUSH1 0x0 MSTORE PUSH1 0x20 PUSH1 0x0 KECCAK256 SWAP1 JUMPDEST DUP2 SLOAD DUP2 MSTORE SWAP1 PUSH1 0x1 ADD SWAP1 PUSH1 0x20 ADD DUP1 DUP4 GT PUSH2 0x908 JUMPI DUP3 SWAP1 SUB PUSH1 0x1F AND DUP3 ADD SWAP2 JUMPDEST POP POP POP POP POP DUP2 JUMP JUMPDEST PUSH1 0x0 CALLER PUSH2 0x93B DUP6 DUP3 DUP6 PUSH2 0x1388 JUMP JUMPDEST PUSH2 0x946 DUP6 DUP6 DUP6 PUSH2 0x1402 JUMP JUMPDEST POP PUSH1 0x1 SWAP5 SWAP4 POP POP POP POP JUMP JUMPDEST PUSH1 0x0 CALLER PUSH2 0x6C6 DUP2 DUP6 DUP6 PUSH2 0x964 DUP4 DUP4 PUSH2 0x1169 JUMP JUMPDEST PUSH2 0x96E SWAP2 SWAP1 PUSH2 0x1D2D JUMP JUMPDEST PUSH2 0x120A JUMP JUMPDEST PUSH2 0x97B PUSH2 0x132E JUMP JUMPDEST PUSH2 0x983 PUSH2 0x15A6 JUMP JUMPDEST PUSH2 0x3E8 DUP5 GT ISZERO DUP1 ISZERO PUSH2 0x997 JUMPI POP PUSH2 0x3E8 DUP4 GT ISZERO JUMPDEST DUP1 ISZERO PUSH2 0x9A5 JUMPI POP PUSH2 0x3E8 DUP3 GT ISZERO JUMPDEST DUP1 ISZERO PUSH2 0x9B3 JUMPI POP PUSH2 0x3E8 DUP2 GT ISZERO JUMPDEST PUSH2 0x9CF JUMPI PUSH1 0x40 MLOAD PUSH3 0x461BCD PUSH1 0xE5 SHL DUP2 MSTORE PUSH1 0x4 ADD PUSH2 0x82F SWAP1 PUSH2 0x1E9F JUMP JUMPDEST PUSH1 0x0 PUSH1 0x4 DUP3 DUP5 PUSH2 0x9DF DUP8 DUP10 PUSH2 0x1D2D JUMP JUMPDEST PUSH2 0x9E9 SWAP2 SWAP1 PUSH2 0x1D2D JUMP JUMPDEST PUSH2 0x9F3 SWAP2 SWAP1 PUSH2 0x1D2D JUMP JUMPDEST PUSH2 0x9FD SWAP2 SWAP1 PUSH2 0x1D4E JUMP JUMPDEST PUSH1 0x40 DUP1 MLOAD PUSH1 0xC0 DUP2 ADD DUP3 MSTORE DUP8 DUP2 MSTORE PUSH1 0x20 DUP1 DUP3 ADD DUP9 DUP2 MSTORE DUP3 DUP5 ADD DUP9 DUP2 MSTORE PUSH1 0x60 DUP5 ADD DUP9 DUP2 MSTORE PUSH1 0x80 DUP6 ADD DUP8 DUP2 MSTORE TIMESTAMP PUSH1 0xA0 DUP8 ADD SWAP1 DUP2 MSTORE PUSH1 0x1 PUSH1 0x1 PUSH1 0xA0 SHL SUB DUP16 AND PUSH1 0x0 DUP2 DUP2 MSTORE PUSH1 0xD SWAP1 SWAP8 MSTORE SWAP6 DUP9 SWAP1 KECCAK256 SWAP7 MLOAD DUP8 SSTORE SWAP4 MLOAD PUSH1 0x1 DUP8 ADD SSTORE SWAP2 MLOAD PUSH1 0x2 DUP7 ADD SSTORE MLOAD PUSH1 0x3 DUP6 ADD SSTORE MLOAD PUSH1 0x4 DUP5 ADD SSTORE MLOAD PUSH1 0x5 SWAP1 SWAP3 ADD SWAP2 SWAP1 SWAP2 SSTORE SWAP1 MLOAD SWAP2 SWAP3 POP SWAP1 PUSH32 0x936973E1ADD8318BB8D863767BD002D9C9965B731EBF0B7B315373406A5EE4D5 SWAP1 PUSH2 0xABD SWAP1 DUP9 SWAP1 DUP9 SWAP1 DUP9 SWAP1 DUP9 SWAP1 SWAP4 DUP5 MSTORE PUSH1 0x20 DUP5 ADD SWAP3 SWAP1 SWAP3 MSTORE PUSH1 0x40 DUP4 ADD MSTORE PUSH1 0x60 DUP3 ADD MSTORE PUSH1 0x80 ADD SWAP1 JUMP JUMPDEST PUSH1 0x40 MLOAD DUP1 SWAP2 SUB SWAP1 LOG2 PUSH2 0xACF DUP7 DUP3 PUSH2 0x15FF JUMP JUMPDEST POP PUSH2 0xADA PUSH1 0x1 PUSH1 0x6 SSTORE JUMP JUMPDEST POP POP POP POP POP JUMP JUMPDEST PUSH2 0xAE9 PUSH2 0x132E JUMP JUMPDEST PUSH2 0xAF1 PUSH2 0x15A6 JUMP JUMPDEST PUSH11 0x115EEC47F6CF7E35000000 DUP2 PUSH2 0xB07 PUSH1 0x2 SLOAD SWAP1 JUMP JUMPDEST PUSH2 0xB11 SWAP2 SWAP1 PUSH2 0x1D2D JUMP JUMPDEST GT ISZERO PUSH2 0xB55 JUMPI PUSH1 0x40 MLOAD PUSH3 0x461BCD PUSH1 0xE5 SHL DUP2 MSTORE PUSH1 0x20 PUSH1 0x4 DUP3 ADD MSTORE PUSH1 0x13 PUSH1 0x24 DUP3 ADD MSTORE PUSH19 0x13585E081CDD5C1C1B1E48195E18D959591959 PUSH1 0x6A SHL PUSH1 0x44 DUP3 ADD MSTORE PUSH1 0x64 ADD PUSH2 0x82F JUMP JUMPDEST PUSH2 0xB5F DUP3 DUP3 PUSH2 0x16F9 JUMP JUMPDEST DUP2 PUSH1 0x1 PUSH1 0x1 PUSH1 0xA0 SHL SUB AND PUSH32 0x9DB28E3ABBB6B6787009E61396F8120369D79065259BE6F3090B7301B3F4CF6 DUP3 PUSH1 0x40 MLOAD PUSH2 0xB9A SWAP2 DUP2 MSTORE PUSH1 0x20 ADD SWAP1 JUMP JUMPDEST PUSH1 0x40 MLOAD DUP1 SWAP2 SUB SWAP1 LOG2 PUSH2 0xBAC PUSH1 0x1 PUSH1 0x6 SSTORE JUMP JUMPDEST POP POP JUMP JUMPDEST PUSH2 0xBB8 PUSH2 0x15A6 JUMP JUMPDEST PUSH2 0xBC2 CALLER DUP3 PUSH2 0x17B8 JUMP JUMPDEST PUSH1 0x40 MLOAD DUP2 DUP2 MSTORE CALLER SWAP1 PUSH32 0xBF67F1E00DC3E7AC716ABC072A4E6E12688C126CDD4EC23DA2A6C8107B56EC4A SWAP1 PUSH1 0x20 ADD PUSH1 0x40 MLOAD DUP1 SWAP2 SUB SWAP1 LOG2 PUSH2 0xC01 PUSH1 0x1 PUSH1 0x6 SSTORE JUMP JUMPDEST POP JUMP JUMPDEST PUSH2 0xC0C PUSH2 0x132E JUMP JUMPDEST PUSH2 0x3E8 DUP2 GT ISZERO PUSH2 0xC5E JUMPI PUSH1 0x40 MLOAD PUSH3 0x461BCD PUSH1 0xE5 SHL DUP2 MSTORE PUSH1 0x20 PUSH1 0x4 DUP3 ADD DUP2 SWAP1 MSTORE PUSH1 0x24 DUP3 ADD MSTORE PUSH32 0x53636F7265206D757374206265206265747765656E203020616E642031303030 PUSH1 0x44 DUP3 ADD MSTORE PUSH1 0x64 ADD PUSH2 0x82F JUMP JUMPDEST PUSH1 0x1 PUSH1 0x1 PUSH1 0xA0 SHL SUB DUP3 AND PUSH1 0x0 DUP2 DUP2 MSTORE PUSH1 0xF PUSH1 0x20 SWAP1 DUP2 MSTORE PUSH1 0x40 DUP1 DUP4 KECCAK256 DUP1 SLOAD PUSH1 0xFF NOT AND PUSH1 0x1 OR SWAP1 SSTORE PUSH1 0x10 DUP3 MSTORE SWAP2 DUP3 SWAP1 KECCAK256 DUP5 SWAP1 SSTORE SWAP1 MLOAD DUP4 DUP2 MSTORE PUSH32 0x1F848810A712462E7E0F30BAEBD3D1AF1406D07EF73A6C5EA2BF2E800EF1358D SWAP2 ADD JUMPDEST PUSH1 0x40 MLOAD DUP1 SWAP2 SUB SWAP1 LOG2 POP POP JUMP JUMPDEST PUSH2 0xCCC PUSH2 0x132E JUMP JUMPDEST PUSH2 0xCD6 PUSH1 0x0 PUSH2 0x18EA JUMP JUMPDEST JUMP JUMPDEST PUSH1 0x0 DUP1 PUSH1 0x0 DUP1 PUSH2 0xCE7 PUSH1 0x2 SLOAD SWAP1 JUMP JUMPDEST PUSH1 0xB SLOAD SWAP1 SWAP6 PUSH11 0x115EEC47F6CF7E35000000 SWAP6 POP SWAP1 SWAP4 POP PUSH1 0x0 SWAP3 POP SWAP1 POP JUMP JUMPDEST PUSH2 0xD10 DUP3 CALLER DUP4 PUSH2 0x1388 JUMP JUMPDEST PUSH2 0xBAC DUP3 DUP3 PUSH2 0x17B8 JUMP JUMPDEST PUSH2 0xD22 PUSH2 0x132E JUMP JUMPDEST PUSH1 0x1 PUSH1 0x1 PUSH1 0xA0 SHL SUB DUP3 AND PUSH1 0x0 DUP2 DUP2 MSTORE PUSH1 0x9 PUSH1 0x20 SWAP1 DUP2 MSTORE PUSH1 0x40 SWAP2 DUP3 SWAP1 KECCAK256 DUP1 SLOAD PUSH1 0xFF NOT AND DUP6 ISZERO ISZERO SWAP1 DUP2 OR SWAP1 SWAP2 SSTORE SWAP2 MLOAD SWAP2 DUP3 MSTORE PUSH32 0xFE56F435BF1FA24E3C0F49004084052DEC9652FE978CE6EA44EBD0A788280EE3 SWAP2 ADD PUSH2 0xCB8 JUMP JUMPDEST PUSH1 0x60 PUSH1 0x4 DUP1 SLOAD PUSH2 0x635 SWAP1 PUSH2 0x1CF3 JUMP JUMPDEST PUSH2 0xDC2 PUSH1 0x40 MLOAD DUP1 PUSH1 0xC0 ADD PUSH1 0x40 MSTORE DUP1 PUSH1 0x0 DUP2 MSTORE PUSH1 0x20 ADD PUSH1 0x0 DUP2 MSTORE PUSH1 0x20 ADD PUSH1 0x0 DUP2 MSTORE PUSH1 0x20 ADD PUSH1 0x0 DUP2 MSTORE PUSH1 0x20 ADD PUSH1 0x0 DUP2 MSTORE PUSH1 0x20 ADD PUSH1 0x0 DUP2 MSTORE POP SWAP1 JUMP JUMPDEST PUSH2 0xDFB PUSH1 0x40 MLOAD DUP1 PUSH1 0xC0 ADD PUSH1 0x40 MSTORE DUP1 PUSH1 0x0 DUP2 MSTORE PUSH1 0x20 ADD PUSH1 0x0 DUP2 MSTORE PUSH1 0x20 ADD PUSH1 0x0 DUP2 MSTORE PUSH1 0x20 ADD PUSH1 0x0 DUP2 MSTORE PUSH1 0x20 ADD PUSH1 0x0 DUP2 MSTORE PUSH1 0x20 ADD PUSH1 0x0 DUP2 MSTORE POP SWAP1 JUMP JUMPDEST POP POP PUSH1 0x1 PUSH1 0x1 PUSH1 0xA0 SHL SUB DUP2 AND PUSH1 0x0 DUP2 DUP2 MSTORE PUSH1 0x7 PUSH1 0x20 SWAP1 DUP2 MSTORE PUSH1 0x40 DUP1 DUP4 KECCAK256 DUP2 MLOAD PUSH1 0xC0 DUP1 DUP3 ADD DUP5 MSTORE DUP3 SLOAD DUP3 MSTORE PUSH1 0x1 DUP1 DUP5 ADD SLOAD DUP4 DUP8 ADD MSTORE PUSH1 0x2 DUP1 DUP6 ADD SLOAD DUP5 DUP8 ADD MSTORE PUSH1 0x3 DUP1 DUP7 ADD SLOAD PUSH1 0x60 DUP1 DUP8 ADD SWAP2 SWAP1 SWAP2 MSTORE PUSH1 0x4 DUP1 DUP9 ADD SLOAD PUSH1 0x80 DUP1 DUP10 ADD SWAP2 SWAP1 SWAP2 MSTORE PUSH1 0x5 SWAP9 DUP10 ADD SLOAD PUSH1 0xA0 DUP1 DUP11 ADD SWAP2 SWAP1 SWAP2 MSTORE DUP14 DUP14 MSTORE PUSH1 0xD DUP13 MSTORE DUP11 DUP14 KECCAK256 DUP12 MLOAD SWAP9 DUP10 ADD DUP13 MSTORE DUP1 SLOAD DUP10 MSTORE SWAP7 DUP8 ADD SLOAD DUP9 DUP14 ADD MSTORE SWAP5 DUP7 ADD SLOAD DUP8 DUP12 ADD MSTORE SWAP3 DUP6 ADD SLOAD SWAP2 DUP7 ADD SWAP2 SWAP1 SWAP2 MSTORE DUP4 ADD SLOAD SWAP1 DUP5 ADD MSTORE SWAP4 ADD SLOAD SWAP3 DUP2 ADD SWAP3 SWAP1 SWAP3 MSTORE SWAP5 DUP5 MSTORE PUSH1 0xA SWAP1 SWAP3 MSTORE DUP3 KECCAK256 SLOAD SWAP1 SWAP2 PUSH2 0xEBD DUP6 PUSH2 0x6D2 JUMP JUMPDEST SWAP1 POP SWAP2 SWAP4 POP SWAP2 SWAP4 JUMP JUMPDEST PUSH1 0x0 CALLER DUP2 PUSH2 0xED4 DUP3 DUP7 PUSH2 0x1169 JUMP JUMPDEST SWAP1 POP DUP4 DUP2 LT ISZERO PUSH2 0xF34 JUMPI PUSH1 0x40 MLOAD PUSH3 0x461BCD PUSH1 0xE5 SHL DUP2 MSTORE PUSH1 0x20 PUSH1 0x4 DUP3 ADD MSTORE PUSH1 0x25 PUSH1 0x24 DUP3 ADD MSTORE PUSH32 0x45524332303A2064656372656173656420616C6C6F77616E63652062656C6F77 PUSH1 0x44 DUP3 ADD MSTORE PUSH5 0x207A65726F PUSH1 0xD8 SHL PUSH1 0x64 DUP3 ADD MSTORE PUSH1 0x84 ADD PUSH2 0x82F JUMP JUMPDEST PUSH2 0x946 DUP3 DUP7 DUP7 DUP5 SUB PUSH2 0x120A JUMP JUMPDEST PUSH1 0x0 CALLER PUSH2 0x6C6 DUP2 DUP6 DUP6 PUSH2 0x1402 JUMP JUMPDEST PUSH2 0xF57 PUSH2 0x132E JUMP JUMPDEST PUSH2 0xF5F PUSH2 0x15A6 JUMP JUMPDEST PUSH2 0x3E8 DUP5 GT ISZERO DUP1 ISZERO PUSH2 0xF73 JUMPI POP PUSH2 0x3E8 DUP4 GT ISZERO JUMPDEST DUP1 ISZERO PUSH2 0xF81 JUMPI POP PUSH2 0x3E8 DUP3 GT ISZERO JUMPDEST DUP1 ISZERO PUSH2 0xF8F JUMPI POP PUSH2 0x3E8 DUP2 GT ISZERO JUMPDEST PUSH2 0xFAB JUMPI PUSH1 0x40 MLOAD PUSH3 0x461BCD PUSH1 0xE5 SHL DUP2 MSTORE PUSH1 0x4 ADD PUSH2 0x82F SWAP1 PUSH2 0x1E9F JUMP JUMPDEST PUSH1 0x0 PUSH1 0x4 DUP3 DUP5 PUSH2 0xFBB DUP8 DUP10 PUSH2 0x1D2D JUMP JUMPDEST PUSH2 0xFC5 SWAP2 SWAP1 PUSH2 0x1D2D JUMP JUMPDEST PUSH2 0xFCF SWAP2 SWAP1 PUSH2 0x1D2D JUMP JUMPDEST PUSH2 0xFD9 SWAP2 SWAP1 PUSH2 0x1D4E JUMP JUMPDEST SWAP1 POP PUSH1 0x40 MLOAD DUP1 PUSH1 0xC0 ADD PUSH1 0x40 MSTORE DUP1 DUP7 DUP2 MSTORE PUSH1 0x20 ADD DUP6 DUP2 MSTORE PUSH1 0x20 ADD DUP5 DUP2 MSTORE PUSH1 0x20 ADD DUP4 DUP2 MSTORE PUSH1 0x20 ADD DUP3 DUP2 MSTORE PUSH1 0x20 ADD TIMESTAMP DUP2 MSTORE POP PUSH1 0x7 PUSH1 0x0 DUP9 PUSH1 0x1 PUSH1 0x1 PUSH1 0xA0 SHL SUB AND PUSH1 0x1 PUSH1 0x1 PUSH1 0xA0 SHL SUB AND DUP2 MSTORE PUSH1 0x20 ADD SWAP1 DUP2 MSTORE PUSH1 0x20 ADD PUSH1 0x0 KECCAK256 PUSH1 0x0 DUP3 ADD MLOAD DUP2 PUSH1 0x0 ADD SSTORE PUSH1 0x20 DUP3 ADD MLOAD DUP2 PUSH1 0x1 ADD SSTORE PUSH1 0x40 DUP3 ADD MLOAD DUP2 PUSH1 0x2 ADD SSTORE PUSH1 0x60 DUP3 ADD MLOAD DUP2 PUSH1 0x3 ADD SSTORE PUSH1 0x80 DUP3 ADD MLOAD DUP2 PUSH1 0x4 ADD SSTORE PUSH1 0xA0 DUP3 ADD MLOAD DUP2 PUSH1 0x5 ADD SSTORE SWAP1 POP POP DUP6 PUSH1 0x1 PUSH1 0x1 PUSH1 0xA0 SHL SUB AND PUSH32 0x15DD57E0CDE9AF9083C846EB39C9DA382E907C0036818E4A163ECD167E5F3276 DUP3 TIMESTAMP PUSH1 0x40 MLOAD PUSH2 0x10B0 SWAP3 SWAP2 SWAP1 SWAP2 DUP3 MSTORE PUSH1 0x20 DUP3 ADD MSTORE PUSH1 0x40 ADD SWAP1 JUMP JUMPDEST PUSH1 0x40 MLOAD DUP1 SWAP2 SUB SWAP1 LOG2 PUSH2 0xACF DUP7 DUP3 PUSH2 0x193C JUMP JUMPDEST PUSH2 0x10CA PUSH2 0x132E JUMP JUMPDEST PUSH2 0x3E8 DUP2 GT ISZERO PUSH2 0x111C JUMPI PUSH1 0x40 MLOAD PUSH3 0x461BCD PUSH1 0xE5 SHL DUP2 MSTORE PUSH1 0x20 PUSH1 0x4 DUP3 ADD DUP2 SWAP1 MSTORE PUSH1 0x24 DUP3 ADD MSTORE PUSH32 0x53636F7265206D757374206265206265747765656E203020616E642031303030 PUSH1 0x44 DUP3 ADD MSTORE PUSH1 0x64 ADD PUSH2 0x82F JUMP JUMPDEST PUSH1 0x1 PUSH1 0x1 PUSH1 0xA0 SHL SUB DUP3 AND PUSH1 0x0 DUP2 DUP2 MSTORE PUSH1 0xA PUSH1 0x20 MSTORE PUSH1 0x40 SWAP1 DUP2 SWAP1 KECCAK256 DUP4 SWAP1 SSTORE MLOAD PUSH32 0xEAE7B3C31B8A39CA50E23E7AE7A6982E45D0A6CBC0576E375027F2490A8BA6C0 SWAP1 PUSH2 0xCB8 SWAP1 DUP5 DUP2 MSTORE PUSH1 0x20 ADD SWAP1 JUMP JUMPDEST PUSH1 0x1 PUSH1 0x1 PUSH1 0xA0 SHL SUB SWAP2 DUP3 AND PUSH1 0x0 SWAP1 DUP2 MSTORE PUSH1 0x1 PUSH1 0x20 SWAP1 DUP2 MSTORE PUSH1 0x40 DUP1 DUP4 KECCAK256 SWAP4 SWAP1 SWAP5 AND DUP3 MSTORE SWAP2 SWAP1 SWAP2 MSTORE KECCAK256 SLOAD SWAP1 JUMP JUMPDEST PUSH2 0x119C PUSH2 0x132E JUMP JUMPDEST PUSH1 0x1 PUSH1 0x1 PUSH1 0xA0 SHL SUB DUP2 AND PUSH2 0x1201 JUMPI PUSH1 0x40 MLOAD PUSH3 0x461BCD PUSH1 0xE5 SHL DUP2 MSTORE PUSH1 0x20 PUSH1 0x4 DUP3 ADD MSTORE PUSH1 0x26 PUSH1 0x24 DUP3 ADD MSTORE PUSH32 0x4F776E61626C653A206E6577206F776E657220697320746865207A65726F2061 PUSH1 0x44 DUP3 ADD MSTORE PUSH6 0x646472657373 PUSH1 0xD0 SHL PUSH1 0x64 DUP3 ADD MSTORE PUSH1 0x84 ADD PUSH2 0x82F JUMP JUMPDEST PUSH2 0xC01 DUP2 PUSH2 0x18EA JUMP JUMPDEST PUSH1 0x1 PUSH1 0x1 PUSH1 0xA0 SHL SUB DUP4 AND PUSH2 0x126C JUMPI PUSH1 0x40 MLOAD PUSH3 0x461BCD PUSH1 0xE5 SHL DUP2 MSTORE PUSH1 0x20 PUSH1 0x4 DUP3 ADD MSTORE PUSH1 0x24 DUP1 DUP3 ADD MSTORE PUSH32 0x45524332303A20617070726F76652066726F6D20746865207A65726F20616464 PUSH1 0x44 DUP3 ADD MSTORE PUSH4 0x72657373 PUSH1 0xE0 SHL PUSH1 0x64 DUP3 ADD MSTORE PUSH1 0x84 ADD PUSH2 0x82F JUMP JUMPDEST PUSH1 0x1 PUSH1 0x1 PUSH1 0xA0 SHL SUB DUP3 AND PUSH2 0x12CD JUMPI PUSH1 0x40 MLOAD PUSH3 0x461BCD PUSH1 0xE5 SHL DUP2 MSTORE PUSH1 0x20 PUSH1 0x4 DUP3 ADD MSTORE PUSH1 0x22 PUSH1 0x24 DUP3 ADD MSTORE PUSH32 0x45524332303A20617070726F766520746F20746865207A65726F206164647265 PUSH1 0x44 DUP3 ADD MSTORE PUSH2 0x7373 PUSH1 0xF0 SHL PUSH1 0x64 DUP3 ADD MSTORE PUSH1 0x84 ADD PUSH2 0x82F JUMP JUMPDEST PUSH1 0x1 PUSH1 0x1 PUSH1 0xA0 SHL SUB DUP4 DUP2 AND PUSH1 0x0 DUP2 DUP2 MSTORE PUSH1 0x1 PUSH1 0x20 SWAP1 DUP2 MSTORE PUSH1 0x40 DUP1 DUP4 KECCAK256 SWAP5 DUP8 AND DUP1 DUP5 MSTORE SWAP5 DUP3 MSTORE SWAP2 DUP3 SWAP1 KECCAK256 DUP6 SWAP1 SSTORE SWAP1 MLOAD DUP5 DUP2 MSTORE PUSH32 0x8C5BE1E5EBEC7D5BD14F71427D1E84F3DD0314C0F7B2291E5B200AC8C7C3B925 SWAP2 ADD PUSH1 0x40 MLOAD DUP1 SWAP2 SUB SWAP1 LOG3 POP POP POP JUMP JUMPDEST PUSH1 0x5 SLOAD PUSH1 0x1 PUSH1 0x1 PUSH1 0xA0 SHL SUB AND CALLER EQ PUSH2 0xCD6 JUMPI PUSH1 0x40 MLOAD PUSH3 0x461BCD PUSH1 0xE5 SHL DUP2 MSTORE PUSH1 0x20 PUSH1 0x4 DUP3 ADD DUP2 SWAP1 MSTORE PUSH1 0x24 DUP3 ADD MSTORE PUSH32 0x4F776E61626C653A2063616C6C6572206973206E6F7420746865206F776E6572 PUSH1 0x44 DUP3 ADD MSTORE PUSH1 0x64 ADD PUSH2 0x82F JUMP JUMPDEST PUSH1 0x0 PUSH2 0x1394 DUP5 DUP5 PUSH2 0x1169 JUMP JUMPDEST SWAP1 POP PUSH1 0x0 NOT DUP2 EQ PUSH2 0x13FC JUMPI DUP2 DUP2 LT ISZERO PUSH2 0x13EF JUMPI PUSH1 0x40 MLOAD PUSH3 0x461BCD PUSH1 0xE5 SHL DUP2 MSTORE PUSH1 0x20 PUSH1 0x4 DUP3 ADD MSTORE PUSH1 0x1D PUSH1 0x24 DUP3 ADD MSTORE PUSH32 0x45524332303A20696E73756666696369656E7420616C6C6F77616E6365000000 PUSH1 0x44 DUP3 ADD MSTORE PUSH1 0x64 ADD PUSH2 0x82F JUMP JUMPDEST PUSH2 0x13FC DUP5 DUP5 DUP5 DUP5 SUB PUSH2 0x120A JUMP JUMPDEST POP POP POP POP JUMP JUMPDEST PUSH1 0x1 PUSH1 0x1 PUSH1 0xA0 SHL SUB DUP4 AND PUSH2 0x1466 JUMPI PUSH1 0x40 MLOAD PUSH3 0x461BCD PUSH1 0xE5 SHL DUP2 MSTORE PUSH1 0x20 PUSH1 0x4 DUP3 ADD MSTORE PUSH1 0x25 PUSH1 0x24 DUP3 ADD MSTORE PUSH32 0x45524332303A207472616E736665722066726F6D20746865207A65726F206164 PUSH1 0x44 DUP3 ADD MSTORE PUSH5 0x6472657373 PUSH1 0xD8 SHL PUSH1 0x64 DUP3 ADD MSTORE PUSH1 0x84 ADD PUSH2 0x82F JUMP JUMPDEST PUSH1 0x1 PUSH1 0x1 PUSH1 0xA0 SHL SUB DUP3 AND PUSH2 0x14C8 JUMPI PUSH1 0x40 MLOAD PUSH3 0x461BCD PUSH1 0xE5 SHL DUP2 MSTORE PUSH1 0x20 PUSH1 0x4 DUP3 ADD MSTORE PUSH1 0x23 PUSH1 0x24 DUP3 ADD MSTORE PUSH32 0x45524332303A207472616E7366657220746F20746865207A65726F2061646472 PUSH1 0x44 DUP3 ADD MSTORE PUSH3 0x657373 PUSH1 0xE8 SHL PUSH1 0x64 DUP3 ADD MSTORE PUSH1 0x84 ADD PUSH2 0x82F JUMP JUMPDEST PUSH1 0x1 PUSH1 0x1 PUSH1 0xA0 SHL SUB DUP4 AND PUSH1 0x0 SWAP1 DUP2 MSTORE PUSH1 0x20 DUP2 SWAP1 MSTORE PUSH1 0x40 SWAP1 KECCAK256 SLOAD DUP2 DUP2 LT ISZERO PUSH2 0x1540 JUMPI PUSH1 0x40 MLOAD PUSH3 0x461BCD PUSH1 0xE5 SHL DUP2 MSTORE PUSH1 0x20 PUSH1 0x4 DUP3 ADD MSTORE PUSH1 0x26 PUSH1 0x24 DUP3 ADD MSTORE PUSH32 0x45524332303A207472616E7366657220616D6F756E7420657863656564732062 PUSH1 0x44 DUP3 ADD MSTORE PUSH6 0x616C616E6365 PUSH1 0xD0 SHL PUSH1 0x64 DUP3 ADD MSTORE PUSH1 0x84 ADD PUSH2 0x82F JUMP JUMPDEST PUSH1 0x1 PUSH1 0x1 PUSH1 0xA0 SHL SUB DUP5 DUP2 AND PUSH1 0x0 DUP2 DUP2 MSTORE PUSH1 0x20 DUP2 DUP2 MSTORE PUSH1 0x40 DUP1 DUP4 KECCAK256 DUP8 DUP8 SUB SWAP1 SSTORE SWAP4 DUP8 AND DUP1 DUP4 MSTORE SWAP2 DUP5 SWAP1 KECCAK256 DUP1 SLOAD DUP8 ADD SWAP1 SSTORE SWAP3 MLOAD DUP6 DUP2 MSTORE SWAP1 SWAP3 PUSH32 0xDDF252AD1BE2C89B69C2B068FC378DAA952BA7F163C4A11628F55A4DF523B3EF SWAP2 ADD PUSH1 0x40 MLOAD DUP1 SWAP2 SUB SWAP1 LOG3 PUSH2 0x13FC JUMP JUMPDEST PUSH1 0x2 PUSH1 0x6 SLOAD SUB PUSH2 0x15F8 JUMPI PUSH1 0x40 MLOAD PUSH3 0x461BCD PUSH1 0xE5 SHL DUP2 MSTORE PUSH1 0x20 PUSH1 0x4 DUP3 ADD MSTORE PUSH1 0x1F PUSH1 0x24 DUP3 ADD MSTORE PUSH32 0x5265656E7472616E637947756172643A207265656E7472616E742063616C6C00 PUSH1 0x44 DUP3 ADD MSTORE PUSH1 0x64 ADD PUSH2 0x82F JUMP JUMPDEST PUSH1 0x2 PUSH1 0x6 SSTORE JUMP JUMPDEST PUSH1 0x0 PUSH2 0x384 DUP3 LT PUSH2 0x161A JUMPI POP PUSH9 0xAD78EBC5AC6200000 PUSH2 0x1648 JUMP JUMPDEST PUSH2 0x320 DUP3 LT PUSH2 0x1633 JUMPI POP PUSH9 0x56BC75E2D63100000 PUSH2 0x1648 JUMP JUMPDEST PUSH2 0x2BC DUP3 LT PUSH2 0x1648 JUMPI POP PUSH9 0x2B5E3AF16B1880000 JUMPDEST DUP1 ISZERO PUSH2 0x16F4 JUMPI PUSH2 0x1658 DUP4 DUP3 PUSH2 0xAE1 JUMP JUMPDEST PUSH1 0x1 PUSH1 0x1 PUSH1 0xA0 SHL SUB DUP4 AND PUSH1 0x0 SWAP1 DUP2 MSTORE PUSH1 0xE PUSH1 0x20 MSTORE PUSH1 0x40 DUP2 KECCAK256 DUP1 SLOAD DUP4 SWAP3 SWAP1 PUSH2 0x1680 SWAP1 DUP5 SWAP1 PUSH2 0x1D2D JUMP JUMPDEST SWAP3 POP POP DUP2 SWAP1 SSTORE POP DUP3 PUSH1 0x1 PUSH1 0x1 PUSH1 0xA0 SHL SUB AND PUSH32 0xFF96A5CC0A74F0430449F2F6C9940E12C1F089CC93C3FC4664C987C3C30C0D52 DUP3 PUSH1 0x40 MLOAD PUSH2 0x16EB SWAP2 DUP2 MSTORE PUSH1 0x40 PUSH1 0x20 DUP3 ADD DUP2 SWAP1 MSTORE PUSH1 0x11 SWAP1 DUP3 ADD MSTORE PUSH17 0x1154D1C8125B5C1858DD0814995DD85C99 PUSH1 0x7A SHL PUSH1 0x60 DUP3 ADD MSTORE PUSH1 0x80 ADD SWAP1 JUMP JUMPDEST PUSH1 0x40 MLOAD DUP1 SWAP2 SUB SWAP1 LOG2 JUMPDEST POP POP POP JUMP JUMPDEST PUSH1 0x1 PUSH1 0x1 PUSH1 0xA0 SHL SUB DUP3 AND PUSH2 0x174F JUMPI PUSH1 0x40 MLOAD PUSH3 0x461BCD PUSH1 0xE5 SHL DUP2 MSTORE PUSH1 0x20 PUSH1 0x4 DUP3 ADD MSTORE PUSH1 0x1F PUSH1 0x24 DUP3 ADD MSTORE PUSH32 0x45524332303A206D696E7420746F20746865207A65726F206164647265737300 PUSH1 0x44 DUP3 ADD MSTORE PUSH1 0x64 ADD PUSH2 0x82F JUMP JUMPDEST DUP1 PUSH1 0x2 PUSH1 0x0 DUP3 DUP3 SLOAD PUSH2 0x1761 SWAP2 SWAP1 PUSH2 0x1D2D JUMP JUMPDEST SWAP1 SWAP2 SSTORE POP POP PUSH1 0x1 PUSH1 0x1 PUSH1 0xA0 SHL SUB DUP3 AND PUSH1 0x0 DUP2 DUP2 MSTORE PUSH1 0x20 DUP2 DUP2 MSTORE PUSH1 0x40 DUP1 DUP4 KECCAK256 DUP1 SLOAD DUP7 ADD SWAP1 SSTORE MLOAD DUP5 DUP2 MSTORE PUSH32 0xDDF252AD1BE2C89B69C2B068FC378DAA952BA7F163C4A11628F55A4DF523B3EF SWAP2 ADD PUSH1 0x40 MLOAD DUP1 SWAP2 SUB SWAP1 LOG3 POP POP JUMP JUMPDEST PUSH1 0x1 PUSH1 0x1 PUSH1 0xA0 SHL SUB DUP3 AND PUSH2 0x1818 JUMPI PUSH1 0x40 MLOAD PUSH3 0x461BCD PUSH1 0xE5 SHL DUP2 MSTORE PUSH1 0x20 PUSH1 0x4 DUP3 ADD MSTORE PUSH1 0x21 PUSH1 0x24 DUP3 ADD MSTORE PUSH32 0x45524332303A206275726E2066726F6D20746865207A65726F20616464726573 PUSH1 0x44 DUP3 ADD MSTORE PUSH1 0x73 PUSH1 0xF8 SHL PUSH1 0x64 DUP3 ADD MSTORE PUSH1 0x84 ADD PUSH2 0x82F JUMP JUMPDEST PUSH1 0x1 PUSH1 0x1 PUSH1 0xA0 SHL SUB DUP3 AND PUSH1 0x0 SWAP1 DUP2 MSTORE PUSH1 0x20 DUP2 SWAP1 MSTORE PUSH1 0x40 SWAP1 KECCAK256 SLOAD DUP2 DUP2 LT ISZERO PUSH2 0x188C JUMPI PUSH1 0x40 MLOAD PUSH3 0x461BCD PUSH1 0xE5 SHL DUP2 MSTORE PUSH1 0x20 PUSH1 0x4 DUP3 ADD MSTORE PUSH1 0x22 PUSH1 0x24 DUP3 ADD MSTORE PUSH32 0x45524332303A206275726E20616D6F756E7420657863656564732062616C616E PUSH1 0x44 DUP3 ADD MSTORE PUSH2 0x6365 PUSH1 0xF0 SHL PUSH1 0x64 DUP3 ADD MSTORE PUSH1 0x84 ADD PUSH2 0x82F JUMP JUMPDEST PUSH1 0x1 PUSH1 0x1 PUSH1 0xA0 SHL SUB DUP4 AND PUSH1 0x0 DUP2 DUP2 MSTORE PUSH1 0x20 DUP2 DUP2 MSTORE PUSH1 0x40 DUP1 DUP4 KECCAK256 DUP7 DUP7 SUB SWAP1 SSTORE PUSH1 0x2 DUP1 SLOAD DUP8 SWAP1 SUB SWAP1 SSTORE MLOAD DUP6 DUP2 MSTORE SWAP2 SWAP3 SWAP2 PUSH32 0xDDF252AD1BE2C89B69C2B068FC378DAA952BA7F163C4A11628F55A4DF523B3EF SWAP2 ADD PUSH1 0x40 MLOAD DUP1 SWAP2 SUB SWAP1 LOG3 POP POP POP JUMP JUMPDEST PUSH1 0x5 DUP1 SLOAD PUSH1 0x1 PUSH1 0x1 PUSH1 0xA0 SHL SUB DUP4 DUP2 AND PUSH1 0x1 PUSH1 0x1 PUSH1 0xA0 SHL SUB NOT DUP4 AND DUP2 OR SWAP1 SWAP4 SSTORE PUSH1 0x40 MLOAD SWAP2 AND SWAP2 SWAP1 DUP3 SWAP1 PUSH32 0x8BE0079C531659141344CD1FD0A4F28419497F9722A3DAAFE3B4186F6B6457E0 SWAP1 PUSH1 0x0 SWAP1 LOG3 POP POP JUMP JUMPDEST PUSH1 0x0 PUSH2 0x384 DUP3 LT PUSH2 0x1957 JUMPI POP PUSH9 0x56BC75E2D63100000 PUSH2 0x1984 JUMP JUMPDEST PUSH2 0x320 DUP3 LT PUSH2 0x1970 JUMPI POP PUSH9 0x2B5E3AF16B1880000 PUSH2 0x1984 JUMP JUMPDEST PUSH2 0x2BC DUP3 LT PUSH2 0x1984 JUMPI POP PUSH8 0x8AC7230489E80000 JUMPDEST DUP1 ISZERO PUSH2 0x16F4 JUMPI PUSH2 0x1994 DUP4 DUP3 PUSH2 0xAE1 JUMP JUMPDEST PUSH1 0x1 PUSH1 0x1 PUSH1 0xA0 SHL SUB DUP4 AND PUSH1 0x0 SWAP1 DUP2 MSTORE PUSH1 0x8 PUSH1 0x20 MSTORE PUSH1 0x40 DUP2 KECCAK256 DUP1 SLOAD DUP4 SWAP3 SWAP1 PUSH2 0x19BC SWAP1 DUP5 SWAP1 PUSH2 0x1D2D JUMP JUMPDEST SWAP1 SWAP2 SSTORE POP POP POP POP POP JUMP JUMPDEST PUSH1 0x0 DUP2 MLOAD DUP1 DUP5 MSTORE PUSH1 0x0 JUMPDEST DUP2 DUP2 LT ISZERO PUSH2 0x19EC JUMPI PUSH1 0x20 DUP2 DUP6 ADD DUP2 ADD MLOAD DUP7 DUP4 ADD DUP3 ADD MSTORE ADD PUSH2 0x19D0 JUMP JUMPDEST POP PUSH1 0x0 PUSH1 0x20 DUP3 DUP7 ADD ADD MSTORE PUSH1 0x20 PUSH1 0x1F NOT PUSH1 0x1F DUP4 ADD AND DUP6 ADD ADD SWAP2 POP POP SWAP3 SWAP2 POP POP JUMP JUMPDEST PUSH1 0x20 DUP2 MSTORE PUSH1 0x0 PUSH2 0x1A1F PUSH1 0x20 DUP4 ADD DUP5 PUSH2 0x19C6 JUMP JUMPDEST SWAP4 SWAP3 POP POP POP JUMP JUMPDEST DUP1 CALLDATALOAD PUSH1 0x1 PUSH1 0x1 PUSH1 0xA0 SHL SUB DUP2 AND DUP2 EQ PUSH2 0x1A3D JUMPI PUSH1 0x0 DUP1 REVERT JUMPDEST SWAP2 SWAP1 POP JUMP JUMPDEST PUSH1 0x0 DUP1 PUSH1 0x40 DUP4 DUP6 SUB SLT ISZERO PUSH2 0x1A55 JUMPI PUSH1 0x0 DUP1 REVERT JUMPDEST PUSH2 0x1A5E DUP4 PUSH2 0x1A26 JUMP JUMPDEST SWAP5 PUSH1 0x20 SWAP4 SWAP1 SWAP4 ADD CALLDATALOAD SWAP4 POP POP POP JUMP JUMPDEST PUSH1 0x0 PUSH1 0x20 DUP3 DUP5 SUB SLT ISZERO PUSH2 0x1A7E JUMPI PUSH1 0x0 DUP1 REVERT JUMPDEST PUSH2 0x1A1F DUP3 PUSH2 0x1A26 JUMP JUMPDEST PUSH4 0x4E487B71 PUSH1 0xE0 SHL PUSH1 0x0 MSTORE PUSH1 0x41 PUSH1 0x4 MSTORE PUSH1 0x24 PUSH1 0x0 REVERT JUMPDEST PUSH1 0x0 DUP1 PUSH1 0x40 DUP4 DUP6 SUB SLT ISZERO PUSH2 0x1AB0 JUMPI PUSH1 0x0 DUP1 REVERT JUMPDEST DUP3 CALLDATALOAD SWAP2 POP PUSH1 0x20 DUP4 ADD CALLDATALOAD PUSH8 0xFFFFFFFFFFFFFFFF DUP1 DUP3 GT ISZERO PUSH2 0x1ACF JUMPI PUSH1 0x0 DUP1 REVERT JUMPDEST DUP2 DUP6 ADD SWAP2 POP DUP6 PUSH1 0x1F DUP4 ADD SLT PUSH2 0x1AE3 JUMPI PUSH1 0x0 DUP1 REVERT JUMPDEST DUP2 CALLDATALOAD DUP2 DUP2 GT ISZERO PUSH2 0x1AF5 JUMPI PUSH2 0x1AF5 PUSH2 0x1A87 JUMP JUMPDEST PUSH1 0x40 MLOAD PUSH1 0x1F DUP3 ADD PUSH1 0x1F NOT SWAP1 DUP2 AND PUSH1 0x3F ADD AND DUP2 ADD SWAP1 DUP4 DUP3 GT DUP2 DUP4 LT OR ISZERO PUSH2 0x1B1D JUMPI PUSH2 0x1B1D PUSH2 0x1A87 JUMP JUMPDEST DUP2 PUSH1 0x40 MSTORE DUP3 DUP2 MSTORE DUP9 PUSH1 0x20 DUP5 DUP8 ADD ADD GT ISZERO PUSH2 0x1B36 JUMPI PUSH1 0x0 DUP1 REVERT JUMPDEST DUP3 PUSH1 0x20 DUP7 ADD PUSH1 0x20 DUP4 ADD CALLDATACOPY PUSH1 0x0 PUSH1 0x20 DUP5 DUP4 ADD ADD MSTORE DUP1 SWAP6 POP POP POP POP POP POP SWAP3 POP SWAP3 SWAP1 POP JUMP JUMPDEST PUSH1 0x0 PUSH1 0x20 DUP3 DUP5 SUB SLT ISZERO PUSH2 0x1B6A JUMPI PUSH1 0x0 DUP1 REVERT JUMPDEST POP CALLDATALOAD SWAP2 SWAP1 POP JUMP JUMPDEST PUSH1 0x0 DUP1 PUSH1 0x0 PUSH1 0x60 DUP5 DUP7 SUB SLT ISZERO PUSH2 0x1B86 JUMPI PUSH1 0x0 DUP1 REVERT JUMPDEST PUSH2 0x1B8F DUP5 PUSH2 0x1A26 JUMP JUMPDEST SWAP3 POP PUSH2 0x1B9D PUSH1 0x20 DUP6 ADD PUSH2 0x1A26 JUMP JUMPDEST SWAP2 POP PUSH1 0x40 DUP5 ADD CALLDATALOAD SWAP1 POP SWAP3 POP SWAP3 POP SWAP3 JUMP JUMPDEST PUSH1 0x0 DUP1 PUSH1 0x0 DUP1 PUSH1 0x0 PUSH1 0xA0 DUP7 DUP9 SUB SLT ISZERO PUSH2 0x1BC5 JUMPI PUSH1 0x0 DUP1 REVERT JUMPDEST PUSH2 0x1BCE DUP7 PUSH2 0x1A26 JUMP JUMPDEST SWAP8 PUSH1 0x20 DUP8 ADD CALLDATALOAD SWAP8 POP PUSH1 0x40 DUP8 ADD CALLDATALOAD SWAP7 PUSH1 0x60 DUP2 ADD CALLDATALOAD SWAP7 POP PUSH1 0x80 ADD CALLDATALOAD SWAP5 POP SWAP3 POP POP POP JUMP JUMPDEST PUSH1 0x0 DUP1 PUSH1 0x40 DUP4 DUP6 SUB SLT ISZERO PUSH2 0x1C02 JUMPI PUSH1 0x0 DUP1 REVERT JUMPDEST PUSH2 0x1C0B DUP4 PUSH2 0x1A26 JUMP JUMPDEST SWAP2 POP PUSH1 0x20 DUP4 ADD CALLDATALOAD DUP1 ISZERO ISZERO DUP2 EQ PUSH2 0x1C20 JUMPI PUSH1 0x0 DUP1 REVERT JUMPDEST DUP1 SWAP2 POP POP SWAP3 POP SWAP3 SWAP1 POP JUMP JUMPDEST PUSH2 0x1C0 DUP2 ADD PUSH2 0x1C6F DUP3 DUP8 DUP1 MLOAD DUP3 MSTORE PUSH1 0x20 DUP2 ADD MLOAD PUSH1 0x20 DUP4 ADD MSTORE PUSH1 0x40 DUP2 ADD MLOAD PUSH1 0x40 DUP4 ADD MSTORE PUSH1 0x60 DUP2 ADD MLOAD PUSH1 0x60 DUP4 ADD MSTORE PUSH1 0x80 DUP2 ADD MLOAD PUSH1 0x80 DUP4 ADD MSTORE PUSH1 0xA0 DUP2 ADD MLOAD PUSH1 0xA0 DUP4 ADD MSTORE POP POP JUMP JUMPDEST DUP5 MLOAD PUSH1 0xC0 DUP4 ADD MSTORE PUSH1 0x20 DUP6 ADD MLOAD PUSH1 0xE0 DUP4 ADD MSTORE PUSH1 0x40 DUP6 ADD MLOAD PUSH2 0x100 DUP4 ADD MSTORE PUSH1 0x60 DUP6 ADD MLOAD PUSH2 0x120 DUP4 ADD MSTORE PUSH1 0x80 DUP6 ADD MLOAD PUSH2 0x140 DUP4 ADD MSTORE PUSH1 0xA0 DUP6 ADD MLOAD PUSH2 0x160 DUP4 ADD MSTORE PUSH2 0x180 DUP3 ADD SWAP4 SWAP1 SWAP4 MSTORE PUSH2 0x1A0 ADD MSTORE SWAP3 SWAP2 POP POP JUMP JUMPDEST PUSH1 0x0 DUP1 PUSH1 0x40 DUP4 DUP6 SUB SLT ISZERO PUSH2 0x1CD3 JUMPI PUSH1 0x0 DUP1 REVERT JUMPDEST PUSH2 0x1CDC DUP4 PUSH2 0x1A26 JUMP JUMPDEST SWAP2 POP PUSH2 0x1CEA PUSH1 0x20 DUP5 ADD PUSH2 0x1A26 JUMP JUMPDEST SWAP1 POP SWAP3 POP SWAP3 SWAP1 POP JUMP JUMPDEST PUSH1 0x1 DUP2 DUP2 SHR SWAP1 DUP3 AND DUP1 PUSH2 0x1D07 JUMPI PUSH1 0x7F DUP3 AND SWAP2 POP JUMPDEST PUSH1 0x20 DUP3 LT DUP2 SUB PUSH2 0x1D27 JUMPI PUSH4 0x4E487B71 PUSH1 0xE0 SHL PUSH1 0x0 MSTORE PUSH1 0x22 PUSH1 0x4 MSTORE PUSH1 0x24 PUSH1 0x0 REVERT JUMPDEST POP SWAP2 SWAP1 POP JUMP JUMPDEST DUP1 DUP3 ADD DUP1 DUP3 GT ISZERO PUSH2 0x6CC JUMPI PUSH4 0x4E487B71 PUSH1 0xE0 SHL PUSH1 0x0 MSTORE PUSH1 0x11 PUSH1 0x4 MSTORE PUSH1 0x24 PUSH1 0x0 REVERT JUMPDEST PUSH1 0x0 DUP3 PUSH2 0x1D6B JUMPI PUSH4 0x4E487B71 PUSH1 0xE0 SHL PUSH1 0x0 MSTORE PUSH1 0x12 PUSH1 0x4 MSTORE PUSH1 0x24 PUSH1 0x0 REVERT JUMPDEST POP DIV SWAP1 JUMP JUMPDEST PUSH1 0x1F DUP3 GT ISZERO PUSH2 0x16F4 JUMPI PUSH1 0x0 DUP2 DUP2 MSTORE PUSH1 0x20 DUP2 KECCAK256 PUSH1 0x1F DUP6 ADD PUSH1 0x5 SHR DUP2 ADD PUSH1 0x20 DUP7 LT ISZERO PUSH2 0x1D97 JUMPI POP DUP1 JUMPDEST PUSH1 0x1F DUP6 ADD PUSH1 0x5 SHR DUP3 ADD SWAP2 POP JUMPDEST DUP2 DUP2 LT ISZERO PUSH2 0x1DB6 JUMPI DUP3 DUP2 SSTORE PUSH1 0x1 ADD PUSH2 0x1DA3 JUMP JUMPDEST POP POP POP POP POP POP JUMP JUMPDEST DUP2 MLOAD PUSH8 0xFFFFFFFFFFFFFFFF DUP2 GT ISZERO PUSH2 0x1DD8 JUMPI PUSH2 0x1DD8 PUSH2 0x1A87 JUMP JUMPDEST PUSH2 0x1DEC DUP2 PUSH2 0x1DE6 DUP5 SLOAD PUSH2 0x1CF3 JUMP JUMPDEST DUP5 PUSH2 0x1D70 JUMP JUMPDEST PUSH1 0x20 DUP1 PUSH1 0x1F DUP4 GT PUSH1 0x1 DUP2 EQ PUSH2 0x1E21 JUMPI PUSH1 0x0 DUP5 ISZERO PUSH2 0x1E09 JUMPI POP DUP6 DUP4 ADD MLOAD JUMPDEST PUSH1 0x0 NOT PUSH1 0x3 DUP7 SWAP1 SHL SHR NOT AND PUSH1 0x1 DUP6 SWAP1 SHL OR DUP6 SSTORE PUSH2 0x1DB6 JUMP JUMPDEST PUSH1 0x0 DUP6 DUP2 MSTORE PUSH1 0x20 DUP2 KECCAK256 PUSH1 0x1F NOT DUP7 AND SWAP2 JUMPDEST DUP3 DUP2 LT ISZERO PUSH2 0x1E50 JUMPI DUP9 DUP7 ADD MLOAD DUP3 SSTORE SWAP5 DUP5 ADD SWAP5 PUSH1 0x1 SWAP1 SWAP2 ADD SWAP1 DUP5 ADD PUSH2 0x1E31 JUMP JUMPDEST POP DUP6 DUP3 LT ISZERO PUSH2 0x1E6E JUMPI DUP8 DUP6 ADD MLOAD PUSH1 0x0 NOT PUSH1 0x3 DUP9 SWAP1 SHL PUSH1 0xF8 AND SHR NOT AND DUP2 SSTORE JUMPDEST POP POP POP POP POP PUSH1 0x1 SWAP1 DUP2 SHL ADD SWAP1 SSTORE POP JUMP JUMPDEST DUP3 DUP2 MSTORE PUSH1 0x40 PUSH1 0x20 DUP3 ADD MSTORE PUSH1 0x0 PUSH2 0x1E97 PUSH1 0x40 DUP4 ADD DUP5 PUSH2 0x19C6 JUMP JUMPDEST SWAP5 SWAP4 POP POP POP POP JUMP JUMPDEST PUSH1 0x20 DUP1 DUP3 MSTORE PUSH1 0x21 SWAP1 DUP3 ADD MSTORE PUSH32 0x53636F726573206D757374206265206265747765656E203020616E6420313030 PUSH1 0x40 DUP3 ADD MSTORE PUSH1 0x3 PUSH1 0xFC SHL PUSH1 0x60 DUP3 ADD MSTORE PUSH1 0x80 ADD SWAP1 JUMP INVALID LOG2 PUSH5 0x6970667358 0x22 SLT KECCAK256 0xD3 LOG4 0xE 0xB1 0x2E 0xB6 SELFBALANCE DUP15 0xB5 BASEFEE CODESIZE PUSH3 0x43C2E LOG2 0xC7 0xE2 0xC5 PUSH31 0x970D2A8FEC1BB9FBD43908D564736F6C634300081400330000000000000000 "},"methodIdentifiers":{"INITIAL_SUPPLY()":"2ff2e9dc","MAX_SUPPLY()":"32cb6b0c","aiEthicsScore(address)":"8960f1a5","allowance(address,address)":"dd62ed3e","approve(address,uint256)":"095ea7b3","balanceOf(address)":"70a08231","burn(uint256)":"42966c68","burnFrom(address,uint256)":"79cc6790","composabilityScore(address)":"6641373a","decimals()":"313ce567","decreaseAllowance(address,uint256)":"a457c2d7","getTrinityEcosystemStats()":"7221dd9d","getTrinityProfile(address)":"9f6b1879","getTrinityScore(address)":"0ca8f20c","increaseAllowance(address,uint256)":"39509351","isAIEthicsVerified(address)":"d98bcd98","isComposableToken(address)":"1e886d28","mint(address,uint256)":"40c10f19","name()":"06fdde03","owner()":"8da5cb5b","renounceOwnership()":"715018a6","setComposableToken(address,bool)":"85873ba0","symbol()":"95d89b41","totalESGRewards(address)":"beee03db","totalSupply()":"18160ddd","totalTrustRewards(address)":"e5b31bb4","transfer(address,uint256)":"a9059cbb","transferFrom(address,address,uint256)":"23b872dd","transferOwnership(address)":"f2fde38b","updateComposabilityScore(address,uint256)":"b5a039fc","updateESGImpact(address,uint256,uint256,uint256,uint256)":"3f7b63d9","updateTrustScore(address,uint256,uint256,uint256,uint256)":"b17c7145","upgradeVersion(uint256,string)":"0f1c37c3","userESGImpacts(address)":"2d891779","userTrustScores(address)":"b25ace94","verifyAIEthics(address,uint256)":"4fee8794","version()":"54fd4d50","versionNotes(uint256)":"2281c4b3"}}}}}