{
  "_format": "hh-sol-artifact-1",
  "contractName": "CCRToken",
  "sourceName": "contracts/tokens/CCRToken.sol",
  "abi": [
    {
      "inputs": [],
      "stateMutability": "nonpayable",
      "type": "constructor"
    },
    {
      "anonymous": false,
      "inputs": [
        {
          "indexed": true,
          "internalType": "address",
          "name": "owner",
          "type": "address"
        },
        {
          "indexed": true,
          "internalType": "address",
          "name": "spender",
          "type": "address"
        },
        {
          "indexed": false,
          "internalType": "uint256",
          "name": "value",
          "type": "uint256"
        }
      ],
      "name": "Approval",
      "type": "event"
    },
    {
      "anonymous": false,
      "inputs": [
        {
          "indexed": true,
          "internalType": "address",
          "name": "from",
          "type": "address"
        },
        {
          "indexed": false,
          "internalType": "uint256",
          "name": "amount",
          "type": "uint256"
        },
        {
          "indexed": false,
          "internalType": "string",
          "name": "reason",
          "type": "string"
        }
      ],
      "name": "CCRBurned",
      "type": "event"
    },
    {
      "anonymous": false,
      "inputs": [
        {
          "indexed": true,
          "internalType": "address",
          "name": "to",
          "type": "address"
        },
        {
          "indexed": false,
          "internalType": "uint256",
          "name": "amount",
          "type": "uint256"
        },
        {
          "indexed": false,
          "internalType": "string",
          "name": "reason",
          "type": "string"
        }
      ],
      "name": "CCRMinted",
      "type": "event"
    },
    {
      "anonymous": false,
      "inputs": [
        {
          "indexed": true,
          "internalType": "uint256",
          "name": "creditId",
          "type": "uint256"
        },
        {
          "indexed": true,
          "internalType": "address",
          "name": "issuer",
          "type": "address"
        },
        {
          "indexed": false,
          "internalType": "string",
          "name": "projectName",
          "type": "string"
        },
        {
          "indexed": false,
          "internalType": "uint256",
          "name": "co2Equivalent",
          "type": "uint256"
        }
      ],
      "name": "CarbonCreditIssued",
      "type": "event"
    },
    {
      "anonymous": false,
      "inputs": [
        {
          "indexed": true,
          "internalType": "uint256",
          "name": "creditId",
          "type": "uint256"
        },
        {
          "indexed": true,
          "internalType": "address",
          "name": "retirer",
          "type": "address"
        },
        {
          "indexed": false,
          "internalType": "uint256",
          "name": "amount",
          "type": "uint256"
        },
        {
          "indexed": false,
          "internalType": "string",
          "name": "reason",
          "type": "string"
        }
      ],
      "name": "CarbonCreditRetired",
      "type": "event"
    },
    {
      "anonymous": false,
      "inputs": [
        {
          "indexed": true,
          "internalType": "address",
          "name": "carbonOracle",
          "type": "address"
        }
      ],
      "name": "CarbonOracleSet",
      "type": "event"
    },
    {
      "anonymous": false,
      "inputs": [
        {
          "indexed": true,
          "internalType": "address",
          "name": "gstToken",
          "type": "address"
        }
      ],
      "name": "GSTTokenSet",
      "type": "event"
    },
    {
      "anonymous": false,
      "inputs": [
        {
          "indexed": true,
          "internalType": "address",
          "name": "previousOwner",
          "type": "address"
        },
        {
          "indexed": true,
          "internalType": "address",
          "name": "newOwner",
          "type": "address"
        }
      ],
      "name": "OwnershipTransferred",
      "type": "event"
    },
    {
      "anonymous": false,
      "inputs": [
        {
          "indexed": false,
          "internalType": "string",
          "name": "standard",
          "type": "string"
        },
        {
          "indexed": false,
          "internalType": "bool",
          "name": "verified",
          "type": "bool"
        }
      ],
      "name": "StandardVerified",
      "type": "event"
    },
    {
      "anonymous": false,
      "inputs": [
        {
          "indexed": true,
          "internalType": "address",
          "name": "from",
          "type": "address"
        },
        {
          "indexed": true,
          "internalType": "address",
          "name": "to",
          "type": "address"
        },
        {
          "indexed": false,
          "internalType": "uint256",
          "name": "value",
          "type": "uint256"
        }
      ],
      "name": "Transfer",
      "type": "event"
    },
    {
      "inputs": [],
      "name": "INITIAL_SUPPLY",
      "outputs": [
        {
          "internalType": "uint256",
          "name": "",
          "type": "uint256"
        }
      ],
      "stateMutability": "view",
      "type": "function"
    },
    {
      "inputs": [],
      "name": "MAX_SUPPLY",
      "outputs": [
        {
          "internalType": "uint256",
          "name": "",
          "type": "uint256"
        }
      ],
      "stateMutability": "view",
      "type": "function"
    },
    {
      "inputs": [],
      "name": "TONS_PER_TOKEN",
      "outputs": [
        {
          "internalType": "uint256",
          "name": "",
          "type": "uint256"
        }
      ],
      "stateMutability": "view",
      "type": "function"
    },
    {
      "inputs": [],
      "name": "VERIFICATION_PERIOD",
      "outputs": [
        {
          "internalType": "uint256",
          "name": "",
          "type": "uint256"
        }
      ],
      "stateMutability": "view",
      "type": "function"
    },
    {
      "inputs": [
        {
          "internalType": "address",
          "name": "owner",
          "type": "address"
        },
        {
          "internalType": "address",
          "name": "spender",
          "type": "address"
        }
      ],
      "name": "allowance",
      "outputs": [
        {
          "internalType": "uint256",
          "name": "",
          "type": "uint256"
        }
      ],
      "stateMutability": "view",
      "type": "function"
    },
    {
      "inputs": [
        {
          "internalType": "address",
          "name": "spender",
          "type": "address"
        },
        {
          "internalType": "uint256",
          "name": "amount",
          "type": "uint256"
        }
      ],
      "name": "approve",
      "outputs": [
        {
          "internalType": "bool",
          "name": "",
          "type": "bool"
        }
      ],
      "stateMutability": "nonpayable",
      "type": "function"
    },
    {
      "inputs": [
        {
          "internalType": "address",
          "name": "account",
          "type": "address"
        }
      ],
      "name": "balanceOf",
      "outputs": [
        {
          "internalType": "uint256",
          "name": "",
          "type": "uint256"
        }
      ],
      "stateMutability": "view",
      "type": "function"
    },
    {
      "inputs": [
        {
          "internalType": "address",
          "name": "from",
          "type": "address"
        },
        {
          "internalType": "uint256",
          "name": "amount",
          "type": "uint256"
        },
        {
          "internalType": "string",
          "name": "reason",
          "type": "string"
        }
      ],
      "name": "burn",
      "outputs": [],
      "stateMutability": "nonpayable",
      "type": "function"
    },
    {
      "inputs": [
        {
          "internalType": "uint256",
          "name": "amount",
          "type": "uint256"
        }
      ],
      "name": "burn",
      "outputs": [],
      "stateMutability": "nonpayable",
      "type": "function"
    },
    {
      "inputs": [
        {
          "internalType": "address",
          "name": "account",
          "type": "address"
        },
        {
          "internalType": "uint256",
          "name": "amount",
          "type": "uint256"
        }
      ],
      "name": "burnFrom",
      "outputs": [],
      "stateMutability": "nonpayable",
      "type": "function"
    },
    {
      "inputs": [
        {
          "internalType": "uint256",
          "name": "",
          "type": "uint256"
        }
      ],
      "name": "carbonCredits",
      "outputs": [
        {
          "internalType": "uint256",
          "name": "creditId",
          "type": "uint256"
        },
        {
          "internalType": "string",
          "name": "projectName",
          "type": "string"
        },
        {
          "internalType": "string",
          "name": "projectType",
          "type": "string"
        },
        {
          "internalType": "string",
          "name": "location",
          "type": "string"
        },
        {
          "internalType": "uint256",
          "name": "co2Equivalent",
          "type": "uint256"
        },
        {
          "internalType": "uint256",
          "name": "verificationDate",
          "type": "uint256"
        },
        {
          "internalType": "uint256",
          "name": "expiryDate",
          "type": "uint256"
        },
        {
          "internalType": "string",
          "name": "verificationStandard",
          "type": "string"
        },
        {
          "internalType": "bool",
          "name": "isRetired",
          "type": "bool"
        },
        {
          "internalType": "address",
          "name": "issuer",
          "type": "address"
        },
        {
          "internalType": "string",
          "name": "metadataURI",
          "type": "string"
        }
      ],
      "stateMutability": "view",
      "type": "function"
    },
    {
      "inputs": [],
      "name": "carbonOracle",
      "outputs": [
        {
          "internalType": "address",
          "name": "",
          "type": "address"
        }
      ],
      "stateMutability": "view",
      "type": "function"
    },
    {
      "inputs": [
        {
          "internalType": "uint256",
          "name": "amount",
          "type": "uint256"
        }
      ],
      "name": "convertToGST",
      "outputs": [
        {
          "internalType": "bool",
          "name": "",
          "type": "bool"
        }
      ],
      "stateMutability": "nonpayable",
      "type": "function"
    },
    {
      "inputs": [],
      "name": "decimals",
      "outputs": [
        {
          "internalType": "uint8",
          "name": "",
          "type": "uint8"
        }
      ],
      "stateMutability": "view",
      "type": "function"
    },
    {
      "inputs": [
        {
          "internalType": "address",
          "name": "spender",
          "type": "address"
        },
        {
          "internalType": "uint256",
          "name": "subtractedValue",
          "type": "uint256"
        }
      ],
      "name": "decreaseAllowance",
      "outputs": [
        {
          "internalType": "bool",
          "name": "",
          "type": "bool"
        }
      ],
      "stateMutability": "nonpayable",
      "type": "function"
    },
    {
      "inputs": [
        {
          "internalType": "uint256",
          "name": "tokenAmount",
          "type": "uint256"
        }
      ],
      "name": "getCO2Equivalent",
      "outputs": [
        {
          "internalType": "uint256",
          "name": "",
          "type": "uint256"
        }
      ],
      "stateMutability": "pure",
      "type": "function"
    },
    {
      "inputs": [
        {
          "internalType": "uint256",
          "name": "creditId",
          "type": "uint256"
        }
      ],
      "name": "getCarbonCredit",
      "outputs": [
        {
          "components": [
            {
              "internalType": "uint256",
              "name": "creditId",
              "type": "uint256"
            },
            {
              "internalType": "string",
              "name": "projectName",
              "type": "string"
            },
            {
              "internalType": "string",
              "name": "projectType",
              "type": "string"
            },
            {
              "internalType": "string",
              "name": "location",
              "type": "string"
            },
            {
              "internalType": "uint256",
              "name": "co2Equivalent",
              "type": "uint256"
            },
            {
              "internalType": "uint256",
              "name": "verificationDate",
              "type": "uint256"
            },
            {
              "internalType": "uint256",
              "name": "expiryDate",
              "type": "uint256"
            },
            {
              "internalType": "string",
              "name": "verificationStandard",
              "type": "string"
            },
            {
              "internalType": "bool",
              "name": "isRetired",
              "type": "bool"
            },
            {
              "internalType": "address",
              "name": "issuer",
              "type": "address"
            },
            {
              "internalType": "string",
              "name": "metadataURI",
              "type": "string"
            }
          ],
          "internalType": "struct CCRToken.CarbonCredit",
          "name": "",
          "type": "tuple"
        }
      ],
      "stateMutability": "view",
      "type": "function"
    },
    {
      "inputs": [],
      "name": "getCarbonEcosystemStats",
      "outputs": [
        {
          "internalType": "uint256",
          "name": "totalSupply_",
          "type": "uint256"
        },
        {
          "internalType": "uint256",
          "name": "maxSupply_",
          "type": "uint256"
        },
        {
          "internalType": "uint256",
          "name": "totalCreditsIssued_",
          "type": "uint256"
        },
        {
          "internalType": "uint256",
          "name": "totalCreditsRetired_",
          "type": "uint256"
        },
        {
          "internalType": "uint256",
          "name": "activeCredits_",
          "type": "uint256"
        }
      ],
      "stateMutability": "view",
      "type": "function"
    },
    {
      "inputs": [
        {
          "internalType": "uint256",
          "name": "co2Tons",
          "type": "uint256"
        }
      ],
      "name": "getTokenAmount",
      "outputs": [
        {
          "internalType": "uint256",
          "name": "",
          "type": "uint256"
        }
      ],
      "stateMutability": "pure",
      "type": "function"
    },
    {
      "inputs": [
        {
          "internalType": "address",
          "name": "user",
          "type": "address"
        }
      ],
      "name": "getUserCredits",
      "outputs": [
        {
          "internalType": "uint256[]",
          "name": "",
          "type": "uint256[]"
        }
      ],
      "stateMutability": "view",
      "type": "function"
    },
    {
      "inputs": [],
      "name": "gstToken",
      "outputs": [
        {
          "internalType": "address",
          "name": "",
          "type": "address"
        }
      ],
      "stateMutability": "view",
      "type": "function"
    },
    {
      "inputs": [
        {
          "internalType": "address",
          "name": "spender",
          "type": "address"
        },
        {
          "internalType": "uint256",
          "name": "addedValue",
          "type": "uint256"
        }
      ],
      "name": "increaseAllowance",
      "outputs": [
        {
          "internalType": "bool",
          "name": "",
          "type": "bool"
        }
      ],
      "stateMutability": "nonpayable",
      "type": "function"
    },
    {
      "inputs": [
        {
          "internalType": "string",
          "name": "projectName",
          "type": "string"
        },
        {
          "internalType": "string",
          "name": "projectType",
          "type": "string"
        },
        {
          "internalType": "string",
          "name": "location",
          "type": "string"
        },
        {
          "internalType": "uint256",
          "name": "co2Equivalent",
          "type": "uint256"
        },
        {
          "internalType": "string",
          "name": "verificationStandard",
          "type": "string"
        },
        {
          "internalType": "string",
          "name": "metadataURI",
          "type": "string"
        }
      ],
      "name": "issueCarbonCredit",
      "outputs": [
        {
          "internalType": "uint256",
          "name": "",
          "type": "uint256"
        }
      ],
      "stateMutability": "nonpayable",
      "type": "function"
    },
    {
      "inputs": [
        {
          "internalType": "address",
          "name": "to",
          "type": "address"
        },
        {
          "internalType": "uint256",
          "name": "amount",
          "type": "uint256"
        },
        {
          "internalType": "string",
          "name": "reason",
          "type": "string"
        }
      ],
      "name": "mint",
      "outputs": [],
      "stateMutability": "nonpayable",
      "type": "function"
    },
    {
      "inputs": [],
      "name": "name",
      "outputs": [
        {
          "internalType": "string",
          "name": "",
          "type": "string"
        }
      ],
      "stateMutability": "view",
      "type": "function"
    },
    {
      "inputs": [],
      "name": "nextCreditId",
      "outputs": [
        {
          "internalType": "uint256",
          "name": "",
          "type": "uint256"
        }
      ],
      "stateMutability": "view",
      "type": "function"
    },
    {
      "inputs": [],
      "name": "owner",
      "outputs": [
        {
          "internalType": "address",
          "name": "",
          "type": "address"
        }
      ],
      "stateMutability": "view",
      "type": "function"
    },
    {
      "inputs": [],
      "name": "renounceOwnership",
      "outputs": [],
      "stateMutability": "nonpayable",
      "type": "function"
    },
    {
      "inputs": [
        {
          "internalType": "uint256",
          "name": "creditId",
          "type": "uint256"
        },
        {
          "internalType": "uint256",
          "name": "amount",
          "type": "uint256"
        },
        {
          "internalType": "string",
          "name": "reason",
          "type": "string"
        }
      ],
      "name": "retireCarbonCredit",
      "outputs": [],
      "stateMutability": "nonpayable",
      "type": "function"
    },
    {
      "inputs": [
        {
          "internalType": "address",
          "name": "_carbonOracle",
          "type": "address"
        }
      ],
      "name": "setCarbonOracle",
      "outputs": [],
      "stateMutability": "nonpayable",
      "type": "function"
    },
    {
      "inputs": [
        {
          "internalType": "address",
          "name": "_gstToken",
          "type": "address"
        }
      ],
      "name": "setGSTToken",
      "outputs": [],
      "stateMutability": "nonpayable",
      "type": "function"
    },
    {
      "inputs": [],
      "name": "symbol",
      "outputs": [
        {
          "internalType": "string",
          "name": "",
          "type": "string"
        }
      ],
      "stateMutability": "view",
      "type": "function"
    },
    {
      "inputs": [],
      "name": "totalCreditsIssued",
      "outputs": [
        {
          "internalType": "uint256",
          "name": "",
          "type": "uint256"
        }
      ],
      "stateMutability": "view",
      "type": "function"
    },
    {
      "inputs": [],
      "name": "totalCreditsRetired",
      "outputs": [
        {
          "internalType": "uint256",
          "name": "",
          "type": "uint256"
        }
      ],
      "stateMutability": "view",
      "type": "function"
    },
    {
      "inputs": [],
      "name": "totalSupply",
      "outputs": [
        {
          "internalType": "uint256",
          "name": "",
          "type": "uint256"
        }
      ],
      "stateMutability": "view",
      "type": "function"
    },
    {
      "inputs": [
        {
          "internalType": "address",
          "name": "to",
          "type": "address"
        },
        {
          "internalType": "uint256",
          "name": "amount",
          "type": "uint256"
        }
      ],
      "name": "transfer",
      "outputs": [
        {
          "internalType": "bool",
          "name": "",
          "type": "bool"
        }
      ],
      "stateMutability": "nonpayable",
      "type": "function"
    },
    {
      "inputs": [
        {
          "internalType": "address",
          "name": "to",
          "type": "address"
        },
        {
          "internalType": "uint256",
          "name": "amount",
          "type": "uint256"
        }
      ],
      "name": "transferCarbonCredits",
      "outputs": [
        {
          "internalType": "bool",
          "name": "",
          "type": "bool"
        }
      ],
      "stateMutability": "nonpayable",
      "type": "function"
    },
    {
      "inputs": [
        {
          "internalType": "address",
          "name": "from",
          "type": "address"
        },
        {
          "internalType": "address",
          "name": "to",
          "type": "address"
        },
        {
          "internalType": "uint256",
          "name": "amount",
          "type": "uint256"
        }
      ],
      "name": "transferFrom",
      "outputs": [
        {
          "internalType": "bool",
          "name": "",
          "type": "bool"
        }
      ],
      "stateMutability": "nonpayable",
      "type": "function"
    },
    {
      "inputs": [
        {
          "internalType": "address",
          "name": "newOwner",
          "type": "address"
        }
      ],
      "name": "transferOwnership",
      "outputs": [],
      "stateMutability": "nonpayable",
      "type": "function"
    },
    {
      "inputs": [
        {
          "internalType": "address",
          "name": "",
          "type": "address"
        },
        {
          "internalType": "uint256",
          "name": "",
          "type": "uint256"
        }
      ],
      "name": "userCredits",
      "outputs": [
        {
          "internalType": "uint256",
          "name": "",
          "type": "uint256"
        }
      ],
      "stateMutability": "view",
      "type": "function"
    },
    {
      "inputs": [
        {
          "internalType": "string",
          "name": "",
          "type": "string"
        }
      ],
      "name": "verifiedStandards",
      "outputs": [
        {
          "internalType": "bool",
          "name": "",
          "type": "bool"
        }
      ],
      "stateMutability": "view",
      "type": "function"
    },
    {
      "inputs": [
        {
          "internalType": "string",
          "name": "standard",
          "type": "string"
        },
        {
          "internalType": "bool",
          "name": "verified",
          "type": "bool"
        }
      ],
      "name": "verifyStandard",
      "outputs": [],
      "stateMutability": "nonpayable",
      "type": "function"
    }
  ],
  "bytecode": "0x60806040526001600a556000600b556000600c553480156200002057600080fd5b506040518060400160405280601381526020017f436172626f6e2043726564697420546f6b656e000000000000000000000000008152506040518060400160405280600381526020016221a1a960e91b81525081600390816200008491906200034b565b5060046200009382826200034b565b505050620000b0620000aa6200018660201b60201c565b6200018a565b6001600655620000cc336a084595161401484a000000620001dc565b60016009604051620000e7906256435360e81b815260030190565b90815260408051918290036020018220805493151560ff199485161790556c11dbdb190814dd185b99185c99609a1b82526009600d8301819052815192839003602d0183208054851660019081179091556243444d60e81b845260038085018390528351948590036023908101862080548816841790556221a0a960e91b8652908501929092529151928390030190912080549092161790556200043f565b3390565b600580546001600160a01b038381166001600160a01b0319831681179093556040519116919082907f8be0079c531659141344cd1fd0a4f28419497f9722a3daafe3b4186f6b6457e090600090a35050565b6001600160a01b038216620002375760405162461bcd60e51b815260206004820152601f60248201527f45524332303a206d696e7420746f20746865207a65726f206164647265737300604482015260640160405180910390fd5b80600260008282546200024b919062000417565b90915550506001600160a01b038216600081815260208181526040808320805486019055518481527fddf252ad1be2c89b69c2b068fc378daa952ba7f163c4a11628f55a4df523b3ef910160405180910390a35050565b505050565b634e487b7160e01b600052604160045260246000fd5b600181811c90821680620002d257607f821691505b602082108103620002f357634e487b7160e01b600052602260045260246000fd5b50919050565b601f821115620002a257600081815260208120601f850160051c81016020861015620003225750805b601f850160051c820191505b8181101562000343578281556001016200032e565b505050505050565b81516001600160401b03811115620003675762000367620002a7565b6200037f81620003788454620002bd565b84620002f9565b602080601f831160018114620003b757600084156200039e5750858301515b600019600386901b1c1916600185901b17855562000343565b600085815260208120601f198616915b82811015620003e857888601518255948401946001909101908401620003c7565b5085821015620004075787850151600019600388901b60f8161c191681555b5050505050600190811b01905550565b808201808211156200043957634e487b7160e01b600052601160045260246000fd5b92915050565b6129ec806200044f6000396000f3fe608060405234801561001057600080fd5b506004361061025e5760003560e01c806379cc679011610146578063ba4b3bbd116100c3578063dd62ed3e11610087578063dd62ed3e1461057b578063ea56b58f1461058e578063ecafc6b014610596578063f2fde38b146105a9578063f392243b146105bc578063fc00b798146105dc57600080fd5b8063ba4b3bbd1461051c578063c20c3b2c1461052f578063c2507ac114610542578063d3fc986414610555578063d573e82f1461056857600080fd5b80638da5cb5b1161010a5780638da5cb5b146104ca57806395d89b41146104db578063a457c2d7146104e3578063a9059cbb146104f6578063afcdd8131461050957600080fd5b806379cc67901461044157806381b26dda1461045457806384af13301461047457806385069a95146104875780638ad1f034146104b757600080fd5b806330267e74116101df578063521523ff116101a3578063521523ff146103bf5780635a7dd27c146103ca578063696cebd5146103f457806370a0823114610407578063715018a614610430578063736ada591461043857600080fd5b806330267e741461034d578063313ce5671461037857806332cb6b0c14610387578063395093511461039957806342966c68146103ac57600080fd5b806317a483a31161022657806317a483a3146102f657806318160ddd146103175780632008d7a01461031f57806323b872dd146103285780632ff2e9dc1461033b57600080fd5b806301fefc3e1461026357806306fdde03146102a6578063095ea7b3146102bb5780630ff4ba2c146102ce57806315f570dc146102e3575b600080fd5b610291610271366004612206565b805160208183018101805160098252928201919093012091525460ff1681565b60405190151581526020015b60405180910390f35b6102ae6105e5565b60405161029d9190612293565b6102916102c93660046122c4565b610677565b6102e16102dc3660046122ee565b610691565b005b6102e16102f1366004612309565b61073e565b6103096103043660046122c4565b610798565b60405190815260200161029d565b600254610309565b610309600b5481565b610291610336366004612360565b6107c9565b6103096a084595161401484a00000081565b600d54610360906001600160a01b031681565b6040516001600160a01b03909116815260200161029d565b6040516012815260200161029d565b6103096a52b7d2dcc80cd2e400000081565b6102916103a73660046122c4565b6107ed565b6102e16103ba36600461239c565b61080f565b6103096301e1338081565b6103dd6103d836600461239c565b61081c565b60405161029d9b9a999897969594939291906123b5565b61030961040236600461239c565b610b27565b6103096104153660046122ee565b6001600160a01b031660009081526020819052604090205490565b6102e1610b3b565b610309600c5481565b6102e161044f3660046122c4565b610b4f565b6104676104623660046122ee565b610b68565b60405161029d919061245d565b600e54610360906001600160a01b031681565b61048f610bd4565b604080519586526020860194909452928401919091526060830152608082015260a00161029d565b6103096104c53660046124a1565b610c13565b6005546001600160a01b0316610360565b6102ae610fb5565b6102916104f13660046122c4565b610fc4565b6102916105043660046122c4565b61103f565b6102916105173660046122c4565b61104d565b6102e161052a3660046122ee565b6110f4565b6102e161053d36600461257b565b6111a8565b61030961055036600461239c565b61121d565b6102e1610563366004612309565b611231565b6102e16105763660046125d2565b611301565b61030961058936600461260c565b611576565b610309600181565b6102916105a436600461239c565b6115a1565b6102e16105b73660046122ee565b6116ad565b6105cf6105ca36600461239c565b611723565b60405161029d919061263f565b610309600a5481565b6060600380546105f49061272e565b80601f01602080910402602001604051908101604052809291908181526020018280546106209061272e565b801561066d5780601f106106425761010080835404028352916020019161066d565b820191906000526020600020905b81548152906001019060200180831161065057829003601f168201915b5050505050905090565b600033610685818585611b2b565b60019150505b92915050565b610699611c4f565b6001600160a01b0381166106f45760405162461bcd60e51b815260206004820181905260248201527f47535420546f6b656e20616464726573732063616e6e6f74206265207a65726f60448201526064015b60405180910390fd5b600d80546001600160a01b0319166001600160a01b0383169081179091556040517f9703d87642dc6c1c0192455395389afa2dbe427d4ffd6c9f6d8cd919864dde3890600090a250565b610746611c4f565b6107508383611ca9565b826001600160a01b03167f3c78ad8fade843e6658cb979d3976c91ffd4aa1d5aecb9613be0c4135c982f40838360405161078b929190612768565b60405180910390a2505050565b600860205281600052604060002081815481106107b457600080fd5b90600052602060002001600091509150505481565b6000336107d7858285611ddb565b6107e2858585611e55565b506001949350505050565b6000336106858185856108008383611576565b61080a9190612797565b611b2b565b6108193382611ca9565b50565b6007602052600090815260409020805460018201805491929161083e9061272e565b80601f016020809104026020016040519081016040528092919081815260200182805461086a9061272e565b80156108b75780601f1061088c576101008083540402835291602001916108b7565b820191906000526020600020905b81548152906001019060200180831161089a57829003601f168201915b5050505050908060020180546108cc9061272e565b80601f01602080910402602001604051908101604052809291908181526020018280546108f89061272e565b80156109455780601f1061091a57610100808354040283529160200191610945565b820191906000526020600020905b81548152906001019060200180831161092857829003601f168201915b50505050509080600301805461095a9061272e565b80601f01602080910402602001604051908101604052809291908181526020018280546109869061272e565b80156109d35780601f106109a8576101008083540402835291602001916109d3565b820191906000526020600020905b8154815290600101906020018083116109b657829003601f168201915b5050505050908060040154908060050154908060060154908060070180546109fa9061272e565b80601f0160208091040260200160405190810160405280929190818152602001828054610a269061272e565b8015610a735780601f10610a4857610100808354040283529160200191610a73565b820191906000526020600020905b815481529060010190602001808311610a5657829003601f168201915b505050506008830154600984018054939460ff8316946101009093046001600160a01b0316935091610aa49061272e565b80601f0160208091040260200160405190810160405280929190818152602001828054610ad09061272e565b8015610b1d5780601f10610af257610100808354040283529160200191610b1d565b820191906000526020600020905b815481529060010190602001808311610b0057829003601f168201915b505050505090508b565b600061068b670de0b6b3a7640000836127aa565b610b43611c4f565b610b4d6000611ff9565b565b610b5a823383611ddb565b610b648282611ca9565b5050565b6001600160a01b038116600090815260086020908152604091829020805483518184028101840190945280845260609392830182828015610bc857602002820191906000526020600020905b815481526020019060010190808311610bb4575b50505050509050919050565b6000806000806000610be560025490565b600b54600c549196506a52b7d2dcc80cd2e4000000955093509150610c0a82846127cc565b90509091929394565b6000610c1d611c4f565b610c2561204b565b6000875111610c765760405162461bcd60e51b815260206004820152601c60248201527f50726f6a656374206e616d652063616e6e6f7420626520656d7074790000000060448201526064016106eb565b60008411610cc65760405162461bcd60e51b815260206004820152601f60248201527f434f32206571756976616c656e74206d75737420626520706f7369746976650060448201526064016106eb565b600983604051610cd691906127df565b9081526040519081900360200190205460ff16610d415760405162461bcd60e51b8152602060048201526024808201527f566572696669636174696f6e207374616e64617264206e6f74207265636f676e6044820152631a5e995960e21b60648201526084016106eb565b600a805460009182610d52836127fb565b9091555090506000610d6c86670de0b6b3a7640000612814565b90506040518061016001604052808381526020018a81526020018981526020018881526020018781526020014281526020016301e1338042610dae9190612797565b81526020808201889052600060408084018290523360608501526080909301889052858152600782529190912082518155908201516001820190610df29082612879565b5060408201516002820190610e079082612879565b5060608201516003820190610e1c9082612879565b506080820151600482015560a0820151600582015560c0820151600682015560e08201516007820190610e4f9082612879565b50610100828101516008830180546101208601516001600160a81b0319909116921515610100600160a81b031916929092176001600160a01b039092169092021790556101408201516009820190610ea79082612879565b50905050610eb533826120a4565b3360009081526008602090815260408220805460018101825590835290822001839055600b8054889290610eea908490612797565b9091555050604051339083907feedcaa7d7cbf65a45cc05c722275e3dc1bf298e481a92fbb06feba91abd398dc90610f25908d908b90612939565b60405180910390a3336001600160a01b03167f26ffec327b2a814deebc441bb3b85a0a40dcd1b9befb7597ac892703357d65bf82604051610f9691815260406020820181905260169082015275436172626f6e204372656469742049737375616e636560501b606082015260800190565b60405180910390a2509050610fab6001600655565b9695505050505050565b6060600480546105f49061272e565b60003381610fd28286611576565b9050838110156110325760405162461bcd60e51b815260206004820152602560248201527f45524332303a2064656372656173656420616c6c6f77616e63652062656c6f77604482015264207a65726f60d81b60648201526084016106eb565b6107e28286868403611b2b565b600033610685818585611e55565b600061105761204b565b6001600160a01b0383166110ad5760405162461bcd60e51b815260206004820152601860248201527f5472616e7366657220746f207a65726f2061646472657373000000000000000060448201526064016106eb565b336000908152602081905260409020548211156110dc5760405162461bcd60e51b81526004016106eb9061295b565b6110e7338484611e55565b50600161068b6001600655565b6110fc611c4f565b6001600160a01b03811661115e5760405162461bcd60e51b8152602060048201526024808201527f436172626f6e204f7261636c6520616464726573732063616e6e6f74206265206044820152637a65726f60e01b60648201526084016106eb565b600e80546001600160a01b0319166001600160a01b0383169081179091556040517fe1a5ca9264a9ce86288e327af7d2a78df7ca8e5f7a35bd0d66da62c440693e2190600090a250565b6111b0611c4f565b806009836040516111c191906127df565b908152604051908190036020018120805492151560ff19909316929092179091557f215e82239330b88039851ea2a50883ce8bddec28f2e200e318802dc879524fae906112119084908490612992565b60405180910390a15050565b600061068b82670de0b6b3a7640000612814565b611239611c4f565b61124161204b565b6a52b7d2dcc80cd2e40000008261125760025490565b6112619190612797565b11156112a55760405162461bcd60e51b815260206004820152601360248201527213585e081cdd5c1c1b1e48195e18d959591959606a1b60448201526064016106eb565b6112af83836120a4565b826001600160a01b03167f26ffec327b2a814deebc441bb3b85a0a40dcd1b9befb7597ac892703357d65bf83836040516112ea929190612768565b60405180910390a26112fc6001600655565b505050565b61130961204b565b60008311801561131a5750600a5483105b61135a5760405162461bcd60e51b8152602060048201526011602482015270125b9d985b1a590818dc99591a5d081251607a1b60448201526064016106eb565b600082116113aa5760405162461bcd60e51b815260206004820152601760248201527f416d6f756e74206d75737420626520706f73697469766500000000000000000060448201526064016106eb565b336000908152602081905260409020548211156113d95760405162461bcd60e51b81526004016106eb9061295b565b6000838152600760205260409020600881015460ff16156114355760405162461bcd60e51b815260206004820152601660248201527510dc99591a5d08185b1c9958591e481c995d1a5c995960521b60448201526064016106eb565b806006015442111561147e5760405162461bcd60e51b815260206004820152601260248201527110dc99591a5d081a185cc8195e1c1a5c995960721b60448201526064016106eb565b6114883384611ca9565b6000838260040154670de0b6b3a76400006114a39190612814565b6114ad91906127cc565b9050600081116114e35760088201805460ff191660011790556004820154600c80546000906114dd908490612797565b90915550505b336001600160a01b0316857f2b1d38511b8f30f11bb1b839d71ce00f4574c5c306a59c2d3af595ff5c12669d868660405161151f929190612768565b60405180910390a3336001600160a01b03167f3c78ad8fade843e6658cb979d3976c91ffd4aa1d5aecb9613be0c4135c982f408585604051611562929190612768565b60405180910390a250506112fc6001600655565b6001600160a01b03918216600090815260016020908152604080832093909416825291909152205490565b60006115ab61204b565b600d546001600160a01b03166115f75760405162461bcd60e51b815260206004820152601160248201527011d4d508151bdad95b881b9bdd081cd95d607a1b60448201526064016106eb565b336000908152602081905260409020548211156116265760405162461bcd60e51b81526004016106eb9061295b565b6116303383611ca9565b336001600160a01b03167f3c78ad8fade843e6658cb979d3976c91ffd4aa1d5aecb9613be0c4135c982f40836040516116939181526040602082018190526010908201526f10dbdb9d995c9d1959081d1bc811d4d560821b606082015260800190565b60405180910390a25060016116a86001600655565b919050565b6116b5611c4f565b6001600160a01b03811661171a5760405162461bcd60e51b815260206004820152602660248201527f4f776e61626c653a206e6577206f776e657220697320746865207a65726f206160448201526564647265737360d01b60648201526084016106eb565b61081981611ff9565b61178b604051806101600160405280600081526020016060815260200160608152602001606081526020016000815260200160008152602001600081526020016060815260200160001515815260200160006001600160a01b03168152602001606081525090565b60008211801561179c5750600a5482105b6117dc5760405162461bcd60e51b8152602060048201526011602482015270125b9d985b1a590818dc99591a5d081251607a1b60448201526064016106eb565b6007600083815260200190815260200160002060405180610160016040529081600082015481526020016001820180546118159061272e565b80601f01602080910402602001604051908101604052809291908181526020018280546118419061272e565b801561188e5780601f106118635761010080835404028352916020019161188e565b820191906000526020600020905b81548152906001019060200180831161187157829003601f168201915b505050505081526020016002820180546118a79061272e565b80601f01602080910402602001604051908101604052809291908181526020018280546118d39061272e565b80156119205780601f106118f557610100808354040283529160200191611920565b820191906000526020600020905b81548152906001019060200180831161190357829003601f168201915b505050505081526020016003820180546119399061272e565b80601f01602080910402602001604051908101604052809291908181526020018280546119659061272e565b80156119b25780601f10611987576101008083540402835291602001916119b2565b820191906000526020600020905b81548152906001019060200180831161199557829003601f168201915b505050505081526020016004820154815260200160058201548152602001600682015481526020016007820180546119e99061272e565b80601f0160208091040260200160405190810160405280929190818152602001828054611a159061272e565b8015611a625780601f10611a3757610100808354040283529160200191611a62565b820191906000526020600020905b815481529060010190602001808311611a4557829003601f168201915b5050509183525050600882015460ff81161515602083015261010090046001600160a01b03166040820152600982018054606090920191611aa29061272e565b80601f0160208091040260200160405190810160405280929190818152602001828054611ace9061272e565b8015611b1b5780601f10611af057610100808354040283529160200191611b1b565b820191906000526020600020905b815481529060010190602001808311611afe57829003601f168201915b5050505050815250509050919050565b6001600160a01b038316611b8d5760405162461bcd60e51b8152602060048201526024808201527f45524332303a20617070726f76652066726f6d20746865207a65726f206164646044820152637265737360e01b60648201526084016106eb565b6001600160a01b038216611bee5760405162461bcd60e51b815260206004820152602260248201527f45524332303a20617070726f766520746f20746865207a65726f206164647265604482015261737360f01b60648201526084016106eb565b6001600160a01b0383811660008181526001602090815260408083209487168084529482529182902085905590518481527f8c5be1e5ebec7d5bd14f71427d1e84f3dd0314c0f7b2291e5b200ac8c7c3b925910160405180910390a3505050565b6005546001600160a01b03163314610b4d5760405162461bcd60e51b815260206004820181905260248201527f4f776e61626c653a2063616c6c6572206973206e6f7420746865206f776e657260448201526064016106eb565b6001600160a01b038216611d095760405162461bcd60e51b815260206004820152602160248201527f45524332303a206275726e2066726f6d20746865207a65726f206164647265736044820152607360f81b60648201526084016106eb565b6001600160a01b03821660009081526020819052604090205481811015611d7d5760405162461bcd60e51b815260206004820152602260248201527f45524332303a206275726e20616d6f756e7420657863656564732062616c616e604482015261636560f01b60648201526084016106eb565b6001600160a01b0383166000818152602081815260408083208686039055600280548790039055518581529192917fddf252ad1be2c89b69c2b068fc378daa952ba7f163c4a11628f55a4df523b3ef910160405180910390a3505050565b6000611de78484611576565b90506000198114611e4f5781811015611e425760405162461bcd60e51b815260206004820152601d60248201527f45524332303a20696e73756666696369656e7420616c6c6f77616e636500000060448201526064016106eb565b611e4f8484848403611b2b565b50505050565b6001600160a01b038316611eb95760405162461bcd60e51b815260206004820152602560248201527f45524332303a207472616e736665722066726f6d20746865207a65726f206164604482015264647265737360d81b60648201526084016106eb565b6001600160a01b038216611f1b5760405162461bcd60e51b815260206004820152602360248201527f45524332303a207472616e7366657220746f20746865207a65726f206164647260448201526265737360e81b60648201526084016106eb565b6001600160a01b03831660009081526020819052604090205481811015611f935760405162461bcd60e51b815260206004820152602660248201527f45524332303a207472616e7366657220616d6f756e7420657863656564732062604482015265616c616e636560d01b60648201526084016106eb565b6001600160a01b03848116600081815260208181526040808320878703905593871680835291849020805487019055925185815290927fddf252ad1be2c89b69c2b068fc378daa952ba7f163c4a11628f55a4df523b3ef910160405180910390a3611e4f565b600580546001600160a01b038381166001600160a01b0319831681179093556040519116919082907f8be0079c531659141344cd1fd0a4f28419497f9722a3daafe3b4186f6b6457e090600090a35050565b60026006540361209d5760405162461bcd60e51b815260206004820152601f60248201527f5265656e7472616e637947756172643a207265656e7472616e742063616c6c0060448201526064016106eb565b6002600655565b6001600160a01b0382166120fa5760405162461bcd60e51b815260206004820152601f60248201527f45524332303a206d696e7420746f20746865207a65726f20616464726573730060448201526064016106eb565b806002600082825461210c9190612797565b90915550506001600160a01b038216600081815260208181526040808320805486019055518481527fddf252ad1be2c89b69c2b068fc378daa952ba7f163c4a11628f55a4df523b3ef910160405180910390a35050565b634e487b7160e01b600052604160045260246000fd5b600082601f83011261218a57600080fd5b813567ffffffffffffffff808211156121a5576121a5612163565b604051601f8301601f19908116603f011681019082821181831017156121cd576121cd612163565b816040528381528660208588010111156121e657600080fd5b836020870160208301376000602085830101528094505050505092915050565b60006020828403121561221857600080fd5b813567ffffffffffffffff81111561222f57600080fd5b61223b84828501612179565b949350505050565b60005b8381101561225e578181015183820152602001612246565b50506000910152565b6000815180845261227f816020860160208601612243565b601f01601f19169290920160200192915050565b6020815260006122a66020830184612267565b9392505050565b80356001600160a01b03811681146116a857600080fd5b600080604083850312156122d757600080fd5b6122e0836122ad565b946020939093013593505050565b60006020828403121561230057600080fd5b6122a6826122ad565b60008060006060848603121561231e57600080fd5b612327846122ad565b925060208401359150604084013567ffffffffffffffff81111561234a57600080fd5b61235686828701612179565b9150509250925092565b60008060006060848603121561237557600080fd5b61237e846122ad565b925061238c602085016122ad565b9150604084013590509250925092565b6000602082840312156123ae57600080fd5b5035919050565b60006101608d83528060208401526123cf8184018e612267565b905082810360408401526123e3818d612267565b905082810360608401526123f7818c612267565b90508960808401528860a08401528760c084015282810360e084015261241d8188612267565b8615156101008501526001600160a01b038616610120850152838103610140850152905061244b8185612267565b9e9d5050505050505050505050505050565b6020808252825182820181905260009190848201906040850190845b8181101561249557835183529284019291840191600101612479565b50909695505050505050565b60008060008060008060c087890312156124ba57600080fd5b863567ffffffffffffffff808211156124d257600080fd5b6124de8a838b01612179565b975060208901359150808211156124f457600080fd5b6125008a838b01612179565b9650604089013591508082111561251657600080fd5b6125228a838b01612179565b955060608901359450608089013591508082111561253f57600080fd5b61254b8a838b01612179565b935060a089013591508082111561256157600080fd5b5061256e89828a01612179565b9150509295509295509295565b6000806040838503121561258e57600080fd5b823567ffffffffffffffff8111156125a557600080fd5b6125b185828601612179565b925050602083013580151581146125c757600080fd5b809150509250929050565b6000806000606084860312156125e757600080fd5b8335925060208401359150604084013567ffffffffffffffff81111561234a57600080fd5b6000806040838503121561261f57600080fd5b612628836122ad565b9150612636602084016122ad565b90509250929050565b602081528151602082015260006020830151610160806040850152612668610180850183612267565b91506040850151601f19808685030160608701526126868483612267565b935060608701519150808685030160808701526126a38483612267565b9350608087015160a087015260a087015160c087015260c087015160e087015260e087015191506101008187860301818801526126e08584612267565b9450808801519250506101206126f98188018415159052565b8701519150610140612715878201846001600160a01b03169052565b870151868503909101838701529050610fab8382612267565b600181811c9082168061274257607f821691505b60208210810361276257634e487b7160e01b600052602260045260246000fd5b50919050565b82815260406020820152600061223b6040830184612267565b634e487b7160e01b600052601160045260246000fd5b8082018082111561068b5761068b612781565b6000826127c757634e487b7160e01b600052601260045260246000fd5b500490565b8181038181111561068b5761068b612781565b600082516127f1818460208701612243565b9190910192915050565b60006001820161280d5761280d612781565b5060010190565b808202811582820484141761068b5761068b612781565b601f8211156112fc57600081815260208120601f850160051c810160208610156128525750805b601f850160051c820191505b818110156128715782815560010161285e565b505050505050565b815167ffffffffffffffff81111561289357612893612163565b6128a7816128a1845461272e565b8461282b565b602080601f8311600181146128dc57600084156128c45750858301515b600019600386901b1c1916600185901b178555612871565b600085815260208120601f198616915b8281101561290b578886015182559484019460019091019084016128ec565b50858210156129295787850151600019600388901b60f8161c191681555b5050505050600190811b01905550565b60408152600061294c6040830185612267565b90508260208301529392505050565b60208082526018908201527f496e73756666696369656e74204343522062616c616e63650000000000000000604082015260600190565b6040815260006129a56040830185612267565b90508215156020830152939250505056fea2646970667358221220e40a06450ea9ce8ff894161d9acc40906305d5cb67f5310ea3c5b3189ff5d2cc64736f6c63430008140033",
  "linkReferences": {},
  "deployedLinkReferences": {}
}