{
  "_format": "hh-sol-artifact-1",
  "contractName": "NFENFT",
  "sourceName": "contracts/tokens/NFENFT.sol",
  "abi": [
    {
      "inputs": [],
      "stateMutability": "nonpayable",
      "type": "constructor"
    },
    {
      "anonymous": false,
      "inputs": [
        {
          "indexed": true,
          "internalType": "address",
          "name": "owner",
          "type": "address"
        },
        {
          "indexed": true,
          "internalType": "address",
          "name": "approved",
          "type": "address"
        },
        {
          "indexed": true,
          "internalType": "uint256",
          "name": "tokenId",
          "type": "uint256"
        }
      ],
      "name": "Approval",
      "type": "event"
    },
    {
      "anonymous": false,
      "inputs": [
        {
          "indexed": true,
          "internalType": "address",
          "name": "owner",
          "type": "address"
        },
        {
          "indexed": true,
          "internalType": "address",
          "name": "operator",
          "type": "address"
        },
        {
          "indexed": false,
          "internalType": "bool",
          "name": "approved",
          "type": "bool"
        }
      ],
      "name": "ApprovalForAll",
      "type": "event"
    },
    {
      "anonymous": false,
      "inputs": [
        {
          "indexed": false,
          "internalType": "uint256",
          "name": "_fromTokenId",
          "type": "uint256"
        },
        {
          "indexed": false,
          "internalType": "uint256",
          "name": "_toTokenId",
          "type": "uint256"
        }
      ],
      "name": "BatchMetadataUpdate",
      "type": "event"
    },
    {
      "anonymous": false,
      "inputs": [
        {
          "indexed": true,
          "internalType": "uint256",
          "name": "tokenId",
          "type": "uint256"
        },
        {
          "indexed": false,
          "internalType": "uint256",
          "name": "novoScore",
          "type": "uint256"
        },
        {
          "indexed": false,
          "internalType": "uint256",
          "name": "timestamp",
          "type": "uint256"
        }
      ],
      "name": "ESGScoreAtualizado",
      "type": "event"
    },
    {
      "anonymous": false,
      "inputs": [
        {
          "indexed": false,
          "internalType": "uint256",
          "name": "_tokenId",
          "type": "uint256"
        }
      ],
      "name": "MetadataUpdate",
      "type": "event"
    },
    {
      "anonymous": false,
      "inputs": [
        {
          "indexed": true,
          "internalType": "uint256",
          "name": "tokenId",
          "type": "uint256"
        },
        {
          "indexed": false,
          "internalType": "string",
          "name": "chaveAcesso",
          "type": "string"
        },
        {
          "indexed": true,
          "internalType": "address",
          "name": "proprietario",
          "type": "address"
        },
        {
          "indexed": false,
          "internalType": "uint256",
          "name": "esgScore",
          "type": "uint256"
        }
      ],
      "name": "NFEConvertida",
      "type": "event"
    },
    {
      "anonymous": false,
      "inputs": [
        {
          "indexed": true,
          "internalType": "uint256",
          "name": "tokenId",
          "type": "uint256"
        },
        {
          "indexed": false,
          "internalType": "bool",
          "name": "verificada",
          "type": "bool"
        },
        {
          "indexed": false,
          "internalType": "uint256",
          "name": "timestamp",
          "type": "uint256"
        }
      ],
      "name": "NFEVerificada",
      "type": "event"
    },
    {
      "anonymous": false,
      "inputs": [
        {
          "indexed": true,
          "internalType": "address",
          "name": "previousOwner",
          "type": "address"
        },
        {
          "indexed": true,
          "internalType": "address",
          "name": "newOwner",
          "type": "address"
        }
      ],
      "name": "OwnershipTransferred",
      "type": "event"
    },
    {
      "anonymous": false,
      "inputs": [
        {
          "indexed": false,
          "internalType": "address",
          "name": "account",
          "type": "address"
        }
      ],
      "name": "Paused",
      "type": "event"
    },
    {
      "anonymous": false,
      "inputs": [
        {
          "indexed": true,
          "internalType": "address",
          "name": "from",
          "type": "address"
        },
        {
          "indexed": true,
          "internalType": "address",
          "name": "to",
          "type": "address"
        },
        {
          "indexed": true,
          "internalType": "uint256",
          "name": "tokenId",
          "type": "uint256"
        }
      ],
      "name": "Transfer",
      "type": "event"
    },
    {
      "anonymous": false,
      "inputs": [
        {
          "indexed": false,
          "internalType": "address",
          "name": "account",
          "type": "address"
        }
      ],
      "name": "Unpaused",
      "type": "event"
    },
    {
      "inputs": [
        {
          "internalType": "address",
          "name": "to",
          "type": "address"
        },
        {
          "internalType": "uint256",
          "name": "tokenId",
          "type": "uint256"
        }
      ],
      "name": "approve",
      "outputs": [],
      "stateMutability": "nonpayable",
      "type": "function"
    },
    {
      "inputs": [
        {
          "internalType": "uint256",
          "name": "_tokenId",
          "type": "uint256"
        },
        {
          "internalType": "uint256",
          "name": "_novoScore",
          "type": "uint256"
        }
      ],
      "name": "atualizarESGScore",
      "outputs": [],
      "stateMutability": "nonpayable",
      "type": "function"
    },
    {
      "inputs": [
        {
          "internalType": "address",
          "name": "owner",
          "type": "address"
        }
      ],
      "name": "balanceOf",
      "outputs": [
        {
          "internalType": "uint256",
          "name": "",
          "type": "uint256"
        }
      ],
      "stateMutability": "view",
      "type": "function"
    },
    {
      "inputs": [
        {
          "internalType": "string",
          "name": "",
          "type": "string"
        }
      ],
      "name": "chaveAcessoUsada",
      "outputs": [
        {
          "internalType": "bool",
          "name": "",
          "type": "bool"
        }
      ],
      "stateMutability": "view",
      "type": "function"
    },
    {
      "inputs": [
        {
          "internalType": "string",
          "name": "_chaveAcesso",
          "type": "string"
        },
        {
          "internalType": "string",
          "name": "_numeroNFE",
          "type": "string"
        },
        {
          "internalType": "string",
          "name": "_serie",
          "type": "string"
        },
        {
          "internalType": "string",
          "name": "_cnpjEmitente",
          "type": "string"
        },
        {
          "internalType": "string",
          "name": "_cnpjDestinatario",
          "type": "string"
        },
        {
          "internalType": "uint256",
          "name": "_valorTotal",
          "type": "uint256"
        },
        {
          "internalType": "string",
          "name": "_municipioEmissao",
          "type": "string"
        },
        {
          "internalType": "string",
          "name": "_ufEmissao",
          "type": "string"
        },
        {
          "internalType": "string",
          "name": "_categoria",
          "type": "string"
        },
        {
          "internalType": "string",
          "name": "_tokenURI",
          "type": "string"
        }
      ],
      "name": "converterNFE",
      "outputs": [
        {
          "internalType": "uint256",
          "name": "",
          "type": "uint256"
        }
      ],
      "stateMutability": "nonpayable",
      "type": "function"
    },
    {
      "inputs": [
        {
          "internalType": "uint256",
          "name": "tokenId",
          "type": "uint256"
        }
      ],
      "name": "getApproved",
      "outputs": [
        {
          "internalType": "address",
          "name": "",
          "type": "address"
        }
      ],
      "stateMutability": "view",
      "type": "function"
    },
    {
      "inputs": [
        {
          "internalType": "uint256",
          "name": "_tokenId",
          "type": "uint256"
        }
      ],
      "name": "getNFEData",
      "outputs": [
        {
          "components": [
            {
              "internalType": "string",
              "name": "chaveAcesso",
              "type": "string"
            },
            {
              "internalType": "string",
              "name": "numeroNFE",
              "type": "string"
            },
            {
              "internalType": "string",
              "name": "serie",
              "type": "string"
            },
            {
              "internalType": "string",
              "name": "cnpjEmitente",
              "type": "string"
            },
            {
              "internalType": "string",
              "name": "cnpjDestinatario",
              "type": "string"
            },
            {
              "internalType": "uint256",
              "name": "valorTotal",
              "type": "uint256"
            },
            {
              "internalType": "uint256",
              "name": "dataEmissao",
              "type": "uint256"
            },
            {
              "internalType": "string",
              "name": "municipioEmissao",
              "type": "string"
            },
            {
              "internalType": "string",
              "name": "ufEmissao",
              "type": "string"
            },
            {
              "internalType": "uint256",
              "name": "esgScore",
              "type": "uint256"
            },
            {
              "internalType": "bool",
              "name": "isVerificada",
              "type": "bool"
            },
            {
              "internalType": "string",
              "name": "categoria",
              "type": "string"
            }
          ],
          "internalType": "struct NFENFT.NFEData",
          "name": "",
          "type": "tuple"
        }
      ],
      "stateMutability": "view",
      "type": "function"
    },
    {
      "inputs": [
        {
          "internalType": "string",
          "name": "_chaveAcesso",
          "type": "string"
        }
      ],
      "name": "getNFEPorChave",
      "outputs": [
        {
          "internalType": "uint256",
          "name": "",
          "type": "uint256"
        }
      ],
      "stateMutability": "view",
      "type": "function"
    },
    {
      "inputs": [
        {
          "internalType": "address",
          "name": "_proprietario",
          "type": "address"
        }
      ],
      "name": "getNFEsPorProprietario",
      "outputs": [
        {
          "internalType": "uint256[]",
          "name": "",
          "type": "uint256[]"
        }
      ],
      "stateMutability": "view",
      "type": "function"
    },
    {
      "inputs": [
        {
          "internalType": "address",
          "name": "owner",
          "type": "address"
        },
        {
          "internalType": "address",
          "name": "operator",
          "type": "address"
        }
      ],
      "name": "isApprovedForAll",
      "outputs": [
        {
          "internalType": "bool",
          "name": "",
          "type": "bool"
        }
      ],
      "stateMutability": "view",
      "type": "function"
    },
    {
      "inputs": [],
      "name": "name",
      "outputs": [
        {
          "internalType": "string",
          "name": "",
          "type": "string"
        }
      ],
      "stateMutability": "view",
      "type": "function"
    },
    {
      "inputs": [
        {
          "internalType": "uint256",
          "name": "",
          "type": "uint256"
        }
      ],
      "name": "nfeData",
      "outputs": [
        {
          "internalType": "string",
          "name": "chaveAcesso",
          "type": "string"
        },
        {
          "internalType": "string",
          "name": "numeroNFE",
          "type": "string"
        },
        {
          "internalType": "string",
          "name": "serie",
          "type": "string"
        },
        {
          "internalType": "string",
          "name": "cnpjEmitente",
          "type": "string"
        },
        {
          "internalType": "string",
          "name": "cnpjDestinatario",
          "type": "string"
        },
        {
          "internalType": "uint256",
          "name": "valorTotal",
          "type": "uint256"
        },
        {
          "internalType": "uint256",
          "name": "dataEmissao",
          "type": "uint256"
        },
        {
          "internalType": "string",
          "name": "municipioEmissao",
          "type": "string"
        },
        {
          "internalType": "string",
          "name": "ufEmissao",
          "type": "string"
        },
        {
          "internalType": "uint256",
          "name": "esgScore",
          "type": "uint256"
        },
        {
          "internalType": "bool",
          "name": "isVerificada",
          "type": "bool"
        },
        {
          "internalType": "string",
          "name": "categoria",
          "type": "string"
        }
      ],
      "stateMutability": "view",
      "type": "function"
    },
    {
      "inputs": [
        {
          "internalType": "string",
          "name": "",
          "type": "string"
        }
      ],
      "name": "nfePorChave",
      "outputs": [
        {
          "internalType": "uint256",
          "name": "",
          "type": "uint256"
        }
      ],
      "stateMutability": "view",
      "type": "function"
    },
    {
      "inputs": [
        {
          "internalType": "address",
          "name": "",
          "type": "address"
        },
        {
          "internalType": "uint256",
          "name": "",
          "type": "uint256"
        }
      ],
      "name": "nfePorProprietario",
      "outputs": [
        {
          "internalType": "uint256",
          "name": "",
          "type": "uint256"
        }
      ],
      "stateMutability": "view",
      "type": "function"
    },
    {
      "inputs": [],
      "name": "owner",
      "outputs": [
        {
          "internalType": "address",
          "name": "",
          "type": "address"
        }
      ],
      "stateMutability": "view",
      "type": "function"
    },
    {
      "inputs": [
        {
          "internalType": "uint256",
          "name": "tokenId",
          "type": "uint256"
        }
      ],
      "name": "ownerOf",
      "outputs": [
        {
          "internalType": "address",
          "name": "",
          "type": "address"
        }
      ],
      "stateMutability": "view",
      "type": "function"
    },
    {
      "inputs": [],
      "name": "pause",
      "outputs": [],
      "stateMutability": "nonpayable",
      "type": "function"
    },
    {
      "inputs": [],
      "name": "paused",
      "outputs": [
        {
          "internalType": "bool",
          "name": "",
          "type": "bool"
        }
      ],
      "stateMutability": "view",
      "type": "function"
    },
    {
      "inputs": [],
      "name": "renounceOwnership",
      "outputs": [],
      "stateMutability": "nonpayable",
      "type": "function"
    },
    {
      "inputs": [
        {
          "internalType": "address",
          "name": "from",
          "type": "address"
        },
        {
          "internalType": "address",
          "name": "to",
          "type": "address"
        },
        {
          "internalType": "uint256",
          "name": "tokenId",
          "type": "uint256"
        }
      ],
      "name": "safeTransferFrom",
      "outputs": [],
      "stateMutability": "nonpayable",
      "type": "function"
    },
    {
      "inputs": [
        {
          "internalType": "address",
          "name": "from",
          "type": "address"
        },
        {
          "internalType": "address",
          "name": "to",
          "type": "address"
        },
        {
          "internalType": "uint256",
          "name": "tokenId",
          "type": "uint256"
        },
        {
          "internalType": "bytes",
          "name": "data",
          "type": "bytes"
        }
      ],
      "name": "safeTransferFrom",
      "outputs": [],
      "stateMutability": "nonpayable",
      "type": "function"
    },
    {
      "inputs": [
        {
          "internalType": "address",
          "name": "operator",
          "type": "address"
        },
        {
          "internalType": "bool",
          "name": "approved",
          "type": "bool"
        }
      ],
      "name": "setApprovalForAll",
      "outputs": [],
      "stateMutability": "nonpayable",
      "type": "function"
    },
    {
      "inputs": [
        {
          "internalType": "bytes4",
          "name": "interfaceId",
          "type": "bytes4"
        }
      ],
      "name": "supportsInterface",
      "outputs": [
        {
          "internalType": "bool",
          "name": "",
          "type": "bool"
        }
      ],
      "stateMutability": "view",
      "type": "function"
    },
    {
      "inputs": [],
      "name": "symbol",
      "outputs": [
        {
          "internalType": "string",
          "name": "",
          "type": "string"
        }
      ],
      "stateMutability": "view",
      "type": "function"
    },
    {
      "inputs": [
        {
          "internalType": "uint256",
          "name": "index",
          "type": "uint256"
        }
      ],
      "name": "tokenByIndex",
      "outputs": [
        {
          "internalType": "uint256",
          "name": "",
          "type": "uint256"
        }
      ],
      "stateMutability": "view",
      "type": "function"
    },
    {
      "inputs": [
        {
          "internalType": "address",
          "name": "owner",
          "type": "address"
        },
        {
          "internalType": "uint256",
          "name": "index",
          "type": "uint256"
        }
      ],
      "name": "tokenOfOwnerByIndex",
      "outputs": [
        {
          "internalType": "uint256",
          "name": "",
          "type": "uint256"
        }
      ],
      "stateMutability": "view",
      "type": "function"
    },
    {
      "inputs": [
        {
          "internalType": "uint256",
          "name": "tokenId",
          "type": "uint256"
        }
      ],
      "name": "tokenURI",
      "outputs": [
        {
          "internalType": "string",
          "name": "",
          "type": "string"
        }
      ],
      "stateMutability": "view",
      "type": "function"
    },
    {
      "inputs": [],
      "name": "totalSupply",
      "outputs": [
        {
          "internalType": "uint256",
          "name": "",
          "type": "uint256"
        }
      ],
      "stateMutability": "view",
      "type": "function"
    },
    {
      "inputs": [
        {
          "internalType": "address",
          "name": "from",
          "type": "address"
        },
        {
          "internalType": "address",
          "name": "to",
          "type": "address"
        },
        {
          "internalType": "uint256",
          "name": "tokenId",
          "type": "uint256"
        }
      ],
      "name": "transferFrom",
      "outputs": [],
      "stateMutability": "nonpayable",
      "type": "function"
    },
    {
      "inputs": [
        {
          "internalType": "address",
          "name": "newOwner",
          "type": "address"
        }
      ],
      "name": "transferOwnership",
      "outputs": [],
      "stateMutability": "nonpayable",
      "type": "function"
    },
    {
      "inputs": [],
      "name": "unpause",
      "outputs": [],
      "stateMutability": "nonpayable",
      "type": "function"
    },
    {
      "inputs": [
        {
          "internalType": "uint256",
          "name": "_tokenId",
          "type": "uint256"
        },
        {
          "internalType": "bool",
          "name": "_verificada",
          "type": "bool"
        }
      ],
      "name": "verificarNFE",
      "outputs": [],
      "stateMutability": "nonpayable",
      "type": "function"
    }
  ],
  "bytecode": "0x60806040523480156200001157600080fd5b50604051806040016040528060078152602001661391914813919560ca1b8152506040518060400160405280600681526020016513919153919560d21b8152508160009081620000629190620001b0565b506001620000718282620001b0565b5050506200008e62000088620000b560201b60201c565b620000b9565b600b805460ff60a01b191690556001600c55620000af600d80546001019055565b6200027c565b3390565b600b80546001600160a01b038381166001600160a01b0319831681179093556040519116919082907f8be0079c531659141344cd1fd0a4f28419497f9722a3daafe3b4186f6b6457e090600090a35050565b634e487b7160e01b600052604160045260246000fd5b600181811c908216806200013657607f821691505b6020821081036200015757634e487b7160e01b600052602260045260246000fd5b50919050565b601f821115620001ab57600081815260208120601f850160051c81016020861015620001865750805b601f850160051c820191505b81811015620001a75782815560010162000192565b5050505b505050565b81516001600160401b03811115620001cc57620001cc6200010b565b620001e481620001dd845462000121565b846200015d565b602080601f8311600181146200021c5760008415620002035750858301515b600019600386901b1c1916600185901b178555620001a7565b600085815260208120601f198616915b828110156200024d578886015182559484019460019091019084016200022c565b50858210156200026c5787850151600019600388901b60f8161c191681555b5050505050600190811b01905550565b613665806200028c6000396000f3fe608060405234801561001057600080fd5b50600436106101f05760003560e01c80638456cb591161010f578063b88d4fde116100a2578063e985e9c511610071578063e985e9c514610447578063f2fde38b14610483578063f936e04414610496578063fa9390a3146104b657600080fd5b8063b88d4fde146103fb578063bab51be21461040e578063c1dc4b4114610421578063c87b56dd1461043457600080fd5b8063988b95ab116100de578063988b95ab146103af578063a22cb465146103c2578063a95e1627146103d5578063acbb2c62146103e857600080fd5b80638456cb591461036e5780638a83cdd1146103765780638da5cb5b1461039657806395d89b41146103a757600080fd5b806342842e0e1161018757806364c4e8b51161015657806364c4e8b5146102fd5780636a9bd3a71461032857806370a0823114610353578063715018a61461036657600080fd5b806342842e0e146102b25780634f6ccce7146102c55780635c975abb146102d85780636352211e146102ea57600080fd5b806318160ddd116101c357806318160ddd1461027257806323b872dd146102845780632f745c59146102975780633f4ba83a146102aa57600080fd5b806301ffc9a7146101f557806306fdde031461021d578063081812fc14610232578063095ea7b31461025d575b600080fd5b610208610203366004612bb6565b6104e4565b60405190151581526020015b60405180910390f35b6102256104f5565b6040516102149190612c23565b610245610240366004612c36565b610587565b6040516001600160a01b039091168152602001610214565b61027061026b366004612c6b565b6105ae565b005b6009545b604051908152602001610214565b610270610292366004612c95565b6106c8565b6102766102a5366004612c6b565b6106f9565b61027061078f565b6102706102c0366004612c95565b6107a1565b6102766102d3366004612c36565b6107bc565b600b54600160a01b900460ff16610208565b6102456102f8366004612c36565b61084f565b61031061030b366004612c36565b6108af565b6040516102149c9b9a99989796959493929190612cd1565b610276610336366004612e53565b805160208183018101805160118252928201919093012091525481565b610276610361366004612e88565b610d4f565b610270610dd5565b610270610de7565b610389610384366004612c36565b610df7565b6040516102149190612ea3565b600b546001600160a01b0316610245565b610225611363565b6102766103bd366004612fd2565b611372565b6102706103d0366004613152565b61171a565b6102706103e3366004613185565b611729565b6102706103f63660046131a7565b611804565b6102706104093660046131ca565b611894565b61027661041c366004612e53565b6118cc565b61027661042f366004612c6b565b6118f4565b610225610442366004612c36565b611925565b610208610455366004613246565b6001600160a01b03918216600090815260056020908152604080832093909416825291909152205460ff1690565b610270610491366004612e88565b611930565b6104a96104a4366004612e88565b6119a9565b6040516102149190613270565b6102086104c4366004612e53565b8051602081830181018051600f8252928201919093012091525460ff1681565b60006104ef82611a15565b92915050565b606060008054610504906132b4565b80601f0160208091040260200160405190810160405280929190818152602001828054610530906132b4565b801561057d5780601f106105525761010080835404028352916020019161057d565b820191906000526020600020905b81548152906001019060200180831161056057829003601f168201915b5050505050905090565b600061059282611a3a565b506000908152600460205260409020546001600160a01b031690565b60006105b98261084f565b9050806001600160a01b0316836001600160a01b03160361062b5760405162461bcd60e51b815260206004820152602160248201527f4552433732313a20617070726f76616c20746f2063757272656e74206f776e656044820152603960f91b60648201526084015b60405180910390fd5b336001600160a01b038216148061064757506106478133610455565b6106b95760405162461bcd60e51b815260206004820152603d60248201527f4552433732313a20617070726f76652063616c6c6572206973206e6f7420746f60448201527f6b656e206f776e6572206f7220617070726f76656420666f7220616c6c0000006064820152608401610622565b6106c38383611a8a565b505050565b6106d23382611af8565b6106ee5760405162461bcd60e51b8152600401610622906132ee565b6106c3838383611b77565b600061070483610d4f565b82106107665760405162461bcd60e51b815260206004820152602b60248201527f455243373231456e756d657261626c653a206f776e657220696e646578206f7560448201526a74206f6620626f756e647360a81b6064820152608401610622565b506001600160a01b03919091166000908152600760209081526040808320938352929052205490565b610797611ce8565b61079f611d42565b565b6106c383838360405180602001604052806000815250611894565b60006107c760095490565b821061082a5760405162461bcd60e51b815260206004820152602c60248201527f455243373231456e756d657261626c653a20676c6f62616c20696e646578206f60448201526b7574206f6620626f756e647360a01b6064820152608401610622565b6009828154811061083d5761083d61333b565b90600052602060002001549050919050565b6000818152600260205260408120546001600160a01b0316806104ef5760405162461bcd60e51b8152602060048201526018602482015277115490cdcc8c4e881a5b9d985b1a59081d1bdad95b88125160421b6044820152606401610622565b600e602052600090815260409020805481906108ca906132b4565b80601f01602080910402602001604051908101604052809291908181526020018280546108f6906132b4565b80156109435780601f1061091857610100808354040283529160200191610943565b820191906000526020600020905b81548152906001019060200180831161092657829003601f168201915b505050505090806001018054610958906132b4565b80601f0160208091040260200160405190810160405280929190818152602001828054610984906132b4565b80156109d15780601f106109a6576101008083540402835291602001916109d1565b820191906000526020600020905b8154815290600101906020018083116109b457829003601f168201915b5050505050908060020180546109e6906132b4565b80601f0160208091040260200160405190810160405280929190818152602001828054610a12906132b4565b8015610a5f5780601f10610a3457610100808354040283529160200191610a5f565b820191906000526020600020905b815481529060010190602001808311610a4257829003601f168201915b505050505090806003018054610a74906132b4565b80601f0160208091040260200160405190810160405280929190818152602001828054610aa0906132b4565b8015610aed5780601f10610ac257610100808354040283529160200191610aed565b820191906000526020600020905b815481529060010190602001808311610ad057829003601f168201915b505050505090806004018054610b02906132b4565b80601f0160208091040260200160405190810160405280929190818152602001828054610b2e906132b4565b8015610b7b5780601f10610b5057610100808354040283529160200191610b7b565b820191906000526020600020905b815481529060010190602001808311610b5e57829003601f168201915b505050505090806005015490806006015490806007018054610b9c906132b4565b80601f0160208091040260200160405190810160405280929190818152602001828054610bc8906132b4565b8015610c155780601f10610bea57610100808354040283529160200191610c15565b820191906000526020600020905b815481529060010190602001808311610bf857829003601f168201915b505050505090806008018054610c2a906132b4565b80601f0160208091040260200160405190810160405280929190818152602001828054610c56906132b4565b8015610ca35780601f10610c7857610100808354040283529160200191610ca3565b820191906000526020600020905b815481529060010190602001808311610c8657829003601f168201915b505050506009830154600a840154600b850180549495929460ff909216935090610ccc906132b4565b80601f0160208091040260200160405190810160405280929190818152602001828054610cf8906132b4565b8015610d455780601f10610d1a57610100808354040283529160200191610d45565b820191906000526020600020905b815481529060010190602001808311610d2857829003601f168201915b505050505090508c565b60006001600160a01b038216610db95760405162461bcd60e51b815260206004820152602960248201527f4552433732313a2061646472657373207a65726f206973206e6f7420612076616044820152683634b21037bbb732b960b91b6064820152608401610622565b506001600160a01b031660009081526003602052604090205490565b610ddd611ce8565b61079f6000611d97565b610def611ce8565b61079f611de9565b610e5d60405180610180016040528060608152602001606081526020016060815260200160608152602001606081526020016000815260200160008152602001606081526020016060815260200160008152602001600015158152602001606081525090565b610e6682611e2c565b610e825760405162461bcd60e51b815260040161062290613351565b6000828152600e60205260409081902081516101808101909252805482908290610eab906132b4565b80601f0160208091040260200160405190810160405280929190818152602001828054610ed7906132b4565b8015610f245780601f10610ef957610100808354040283529160200191610f24565b820191906000526020600020905b815481529060010190602001808311610f0757829003601f168201915b50505050508152602001600182018054610f3d906132b4565b80601f0160208091040260200160405190810160405280929190818152602001828054610f69906132b4565b8015610fb65780601f10610f8b57610100808354040283529160200191610fb6565b820191906000526020600020905b815481529060010190602001808311610f9957829003601f168201915b50505050508152602001600282018054610fcf906132b4565b80601f0160208091040260200160405190810160405280929190818152602001828054610ffb906132b4565b80156110485780601f1061101d57610100808354040283529160200191611048565b820191906000526020600020905b81548152906001019060200180831161102b57829003601f168201915b50505050508152602001600382018054611061906132b4565b80601f016020809104026020016040519081016040528092919081815260200182805461108d906132b4565b80156110da5780601f106110af576101008083540402835291602001916110da565b820191906000526020600020905b8154815290600101906020018083116110bd57829003601f168201915b505050505081526020016004820180546110f3906132b4565b80601f016020809104026020016040519081016040528092919081815260200182805461111f906132b4565b801561116c5780601f106111415761010080835404028352916020019161116c565b820191906000526020600020905b81548152906001019060200180831161114f57829003601f168201915b505050505081526020016005820154815260200160068201548152602001600782018054611199906132b4565b80601f01602080910402602001604051908101604052809291908181526020018280546111c5906132b4565b80156112125780601f106111e757610100808354040283529160200191611212565b820191906000526020600020905b8154815290600101906020018083116111f557829003601f168201915b5050505050815260200160088201805461122b906132b4565b80601f0160208091040260200160405190810160405280929190818152602001828054611257906132b4565b80156112a45780601f10611279576101008083540402835291602001916112a4565b820191906000526020600020905b81548152906001019060200180831161128757829003601f168201915b505050918352505060098201546020820152600a82015460ff1615156040820152600b820180546060909201916112da906132b4565b80601f0160208091040260200160405190810160405280929190818152602001828054611306906132b4565b80156113535780601f1061132857610100808354040283529160200191611353565b820191906000526020600020905b81548152906001019060200180831161133657829003601f168201915b5050505050815250509050919050565b606060018054610504906132b4565b600061137c611e49565b611384611e96565b600f8b604051611394919061337b565b9081526040519081900360200190205460ff16156113e85760405162461bcd60e51b81526020600482015260116024820152704e4645206a6120636f6e7665727469646160781b6044820152606401610622565b600086116114385760405162461bcd60e51b815260206004820152601d60248201527f56616c6f72206465766520736572206d61696f7220717565207a65726f0000006044820152606401610622565b60008b51116114895760405162461bcd60e51b815260206004820152601860248201527f43686176652064652061636573736f20696e76616c69646100000000000000006044820152606401610622565b6000611494600d5490565b90506114a4600d80546001019055565b6114ae3382611eef565b6114b88184611f09565b60006114c5858989611fc5565b90506040518061018001604052808e81526020018d81526020018c81526020018b81526020018a815260200189815260200142815260200188815260200187815260200182815260200160001515815260200186815250600e6000848152602001908152602001600020600082015181600001908161154491906133e5565b506020820151600182019061155990826133e5565b506040820151600282019061156e90826133e5565b506060820151600382019061158390826133e5565b506080820151600482019061159890826133e5565b5060a0820151600582015560c0820151600682015560e082015160078201906115c190826133e5565b5061010082015160088201906115d790826133e5565b506101208201516009820155610140820151600a8201805460ff1916911515919091179055610160820151600b82019061161190826133e5565b509050506001600f8e604051611627919061337b565b908152602001604051809103902060006101000a81548160ff02191690831515021790555060106000336001600160a01b03166001600160a01b031681526020019081526020016000208290806001815401808255809150506001900390600052602060002001600090919091909150558160118e6040516116a9919061337b565b908152602001604051809103902081905550336001600160a01b0316827fc0e68ffcaafcdb0bbe81b4be7c5b2054df3af2f8a46322b773aa4d6d554b4f068f846040516116f79291906134a5565b60405180910390a350905061170c6001600c55565b9a9950505050505050505050565b611725338383612174565b5050565b611731611ce8565b611739611e49565b61174282611e2c565b61175e5760405162461bcd60e51b815260040161062290613351565b60648111156117a75760405162461bcd60e51b8152602060048201526015602482015274053636f7265206465766520736572203c3d2031303605c1b6044820152606401610622565b6000828152600e6020526040908190206009018290555182907fcc0656ba31a77299fc128e06efadec421959e76ba7b550dcec6f13775e6c8a3f906117f89084904290918252602082015260400190565b60405180910390a25050565b61180c611ce8565b611814611e49565b61181d82611e2c565b6118395760405162461bcd60e51b815260040161062290613351565b6000828152600e6020908152604091829020600a01805460ff19168415159081179091558251908152429181019190915283917f55d77f4fb119aa857ff190c5db198da8c24296ef3027524b92d4a17de6417e1991016117f8565b61189e3383611af8565b6118ba5760405162461bcd60e51b8152600401610622906132ee565b6118c684848484612242565b50505050565b60006011826040516118de919061337b565b9081526020016040518091039020549050919050565b6010602052816000526040600020818154811061191057600080fd5b90600052602060002001600091509150505481565b60606104ef82612275565b611938611ce8565b6001600160a01b03811661199d5760405162461bcd60e51b815260206004820152602660248201527f4f776e61626c653a206e6577206f776e657220697320746865207a65726f206160448201526564647265737360d01b6064820152608401610622565b6119a681611d97565b50565b6001600160a01b038116600090815260106020908152604091829020805483518184028101840190945280845260609392830182828015611a0957602002820191906000526020600020905b8154815260200190600101908083116119f5575b50505050509050919050565b60006001600160e01b0319821663780e9d6360e01b14806104ef57506104ef8261237d565b611a4381611e2c565b6119a65760405162461bcd60e51b8152602060048201526018602482015277115490cdcc8c4e881a5b9d985b1a59081d1bdad95b88125160421b6044820152606401610622565b600081815260046020526040902080546001600160a01b0319166001600160a01b0384169081179091558190611abf8261084f565b6001600160a01b03167f8c5be1e5ebec7d5bd14f71427d1e84f3dd0314c0f7b2291e5b200ac8c7c3b92560405160405180910390a45050565b600080611b048361084f565b9050806001600160a01b0316846001600160a01b03161480611b4b57506001600160a01b0380821660009081526005602090815260408083209388168352929052205460ff165b80611b6f5750836001600160a01b0316611b6484610587565b6001600160a01b0316145b949350505050565b826001600160a01b0316611b8a8261084f565b6001600160a01b031614611bb05760405162461bcd60e51b8152600401610622906134c7565b6001600160a01b038216611c125760405162461bcd60e51b8152602060048201526024808201527f4552433732313a207472616e7366657220746f20746865207a65726f206164646044820152637265737360e01b6064820152608401610622565b611c1f83838360016123a2565b826001600160a01b0316611c328261084f565b6001600160a01b031614611c585760405162461bcd60e51b8152600401610622906134c7565b600081815260046020908152604080832080546001600160a01b03199081169091556001600160a01b0387811680865260038552838620805460001901905590871680865283862080546001019055868652600290945282852080549092168417909155905184937fddf252ad1be2c89b69c2b068fc378daa952ba7f163c4a11628f55a4df523b3ef91a4505050565b600b546001600160a01b0316331461079f5760405162461bcd60e51b815260206004820181905260248201527f4f776e61626c653a2063616c6c6572206973206e6f7420746865206f776e65726044820152606401610622565b611d4a6123ae565b600b805460ff60a01b191690557f5db9ee0a495bf2e6ff9c91a7834c1ba4fdd244a5e8aa4e537bd38aeae4b073aa335b6040516001600160a01b03909116815260200160405180910390a1565b600b80546001600160a01b038381166001600160a01b0319831681179093556040519116919082907f8be0079c531659141344cd1fd0a4f28419497f9722a3daafe3b4186f6b6457e090600090a35050565b611df1611e49565b600b805460ff60a01b1916600160a01b1790557f62e78cea01bee320cd4e420270b5ea74000d11b0c9f74754ebdbfc544b05a258611d7a3390565b6000908152600260205260409020546001600160a01b0316151590565b600b54600160a01b900460ff161561079f5760405162461bcd60e51b815260206004820152601060248201526f14185d5cd8589b194e881c185d5cd95960821b6044820152606401610622565b6002600c5403611ee85760405162461bcd60e51b815260206004820152601f60248201527f5265656e7472616e637947756172643a207265656e7472616e742063616c6c006044820152606401610622565b6002600c55565b6117258282604051806020016040528060008152506123fe565b611f1282611e2c565b611f755760405162461bcd60e51b815260206004820152602e60248201527f45524337323155524953746f726167653a2055524920736574206f66206e6f6e60448201526d32bc34b9ba32b73a103a37b5b2b760911b6064820152608401610622565b6000828152600660205260409020611f8d82826133e5565b506040518281527ff8e1a15aba9398e019f0b49df1a4fde98ee17ae345cb5f6b5e2c27f5033e8ce79060200160405180910390a15050565b604080518082019091526011815270115b995c99da584814995b9bdd985d995b607a1b6020918201528351908401206000906032907fe53a1e3568cd89ff9da59eb79f0193c96d173d131301c5cfee3a783dc7e33e2c016120325761202b601e82613522565b90506120e8565b60408051808201909152600a81526952656369636c6167656d60b01b6020918201528551908601207f7e381943ab36eb48555f003aaa1431730f179165538b697ce877364f3072790d0161208b5761202b601982613522565b60408051808201909152600b81526a14dd5cdd195b9d185d995b60aa1b6020918201528551908601207fbdfed860a1831f3642f3d98854f27c84a0213aba5905ace5a6115d94c845c335016120e8576120e5601482613522565b90505b60408051808201909152600981526853616f205061756c6f60b81b6020918201528351908401207f9be061da886e4af87fd50e0aa0508de7f119e4896c54c101062f17f8291306780161214357612140600a82613522565b90505b612710841061215a57612157600f82613522565b90505b60648111612168578061216b565b60645b95945050505050565b816001600160a01b0316836001600160a01b0316036121d55760405162461bcd60e51b815260206004820152601960248201527f4552433732313a20617070726f766520746f2063616c6c6572000000000000006044820152606401610622565b6001600160a01b03838116600081815260056020908152604080832094871680845294825291829020805460ff191686151590811790915591519182527f17307eab39ab6107e8899845ad3d59bd9653f200f220920489ca2b5937696c31910160405180910390a3505050565b61224d848484611b77565b61225984848484612431565b6118c65760405162461bcd60e51b815260040161062290613535565b606061228082611a3a565b60008281526006602052604081208054612299906132b4565b80601f01602080910402602001604051908101604052809291908181526020018280546122c5906132b4565b80156123125780601f106122e757610100808354040283529160200191612312565b820191906000526020600020905b8154815290600101906020018083116122f557829003601f168201915b50505050509050600061233060408051602081019091526000815290565b90508051600003612342575092915050565b81511561237457808260405160200161235c929190613587565b60405160208183030381529060405292505050919050565b611b6f84612532565b60006001600160e01b03198216632483248360e11b14806104ef57506104ef826125a6565b6118c6848484846125f6565b600b54600160a01b900460ff1661079f5760405162461bcd60e51b815260206004820152601460248201527314185d5cd8589b194e881b9bdd081c185d5cd95960621b6044820152606401610622565b612408838361272a565b6124156000848484612431565b6106c35760405162461bcd60e51b815260040161062290613535565b60006001600160a01b0384163b1561252757604051630a85bd0160e11b81526001600160a01b0385169063150b7a02906124759033908990889088906004016135b6565b6020604051808303816000875af19250505080156124b0575060408051601f3d908101601f191682019092526124ad918101906135e9565b60015b61250d573d8080156124de576040519150601f19603f3d011682016040523d82523d6000602084013e6124e3565b606091505b5080516000036125055760405162461bcd60e51b815260040161062290613535565b805181602001fd5b6001600160e01b031916630a85bd0160e11b149050611b6f565b506001949350505050565b606061253d82611a3a565b600061255460408051602081019091526000815290565b90506000815111612574576040518060200160405280600081525061259f565b8061257e846128a5565b60405160200161258f929190613587565b6040516020818303038152906040525b9392505050565b60006001600160e01b031982166380ac58cd60e01b14806125d757506001600160e01b03198216635b5e139f60e01b145b806104ef57506301ffc9a760e01b6001600160e01b03198316146104ef565b60018111156126655760405162461bcd60e51b815260206004820152603560248201527f455243373231456e756d657261626c653a20636f6e7365637574697665207472604482015274185b9cd9995c9cc81b9bdd081cdd5c1c1bdc9d1959605a1b6064820152608401610622565b816001600160a01b0385166126c1576126bc81600980546000838152600a60205260408120829055600182018355919091527f6e1540171b6c0c960b71a7020d9f60077f6af931a8bbf590da0223dacf75c7af0155565b6126e4565b836001600160a01b0316856001600160a01b0316146126e4576126e48582612938565b6001600160a01b038416612700576126fb816129d5565b612723565b846001600160a01b0316846001600160a01b031614612723576127238482612a84565b5050505050565b6001600160a01b0382166127805760405162461bcd60e51b815260206004820181905260248201527f4552433732313a206d696e7420746f20746865207a65726f20616464726573736044820152606401610622565b61278981611e2c565b156127d65760405162461bcd60e51b815260206004820152601c60248201527f4552433732313a20746f6b656e20616c7265616479206d696e746564000000006044820152606401610622565b6127e46000838360016123a2565b6127ed81611e2c565b1561283a5760405162461bcd60e51b815260206004820152601c60248201527f4552433732313a20746f6b656e20616c7265616479206d696e746564000000006044820152606401610622565b6001600160a01b038216600081815260036020908152604080832080546001019055848352600290915280822080546001600160a01b0319168417905551839291907fddf252ad1be2c89b69c2b068fc378daa952ba7f163c4a11628f55a4df523b3ef908290a45050565b606060006128b283612ac8565b600101905060008167ffffffffffffffff8111156128d2576128d2612da7565b6040519080825280601f01601f1916602001820160405280156128fc576020820181803683370190505b5090508181016020015b600019016f181899199a1a9b1b9c1cb0b131b232b360811b600a86061a8153600a850494508461290657509392505050565b6000600161294584610d4f565b61294f9190613606565b6000838152600860205260409020549091508082146129a2576001600160a01b03841660009081526007602090815260408083208584528252808320548484528184208190558352600890915290208190555b5060009182526008602090815260408084208490556001600160a01b039094168352600781528383209183525290812055565b6009546000906129e790600190613606565b6000838152600a602052604081205460098054939450909284908110612a0f57612a0f61333b565b906000526020600020015490508060098381548110612a3057612a3061333b565b6000918252602080832090910192909255828152600a90915260408082208490558582528120556009805480612a6857612a68613619565b6001900381819060005260206000200160009055905550505050565b6000612a8f83610d4f565b6001600160a01b039093166000908152600760209081526040808320868452825280832085905593825260089052919091209190915550565b60008072184f03e93ff9f4daa797ed6e38ed64bf6a1f0160401b8310612b075772184f03e93ff9f4daa797ed6e38ed64bf6a1f0160401b830492506040015b6d04ee2d6d415b85acef81000000008310612b33576d04ee2d6d415b85acef8100000000830492506020015b662386f26fc100008310612b5157662386f26fc10000830492506010015b6305f5e1008310612b69576305f5e100830492506008015b6127108310612b7d57612710830492506004015b60648310612b8f576064830492506002015b600a83106104ef5760010192915050565b6001600160e01b0319811681146119a657600080fd5b600060208284031215612bc857600080fd5b813561259f81612ba0565b60005b83811015612bee578181015183820152602001612bd6565b50506000910152565b60008151808452612c0f816020860160208601612bd3565b601f01601f19169290920160200192915050565b60208152600061259f6020830184612bf7565b600060208284031215612c4857600080fd5b5035919050565b80356001600160a01b0381168114612c6657600080fd5b919050565b60008060408385031215612c7e57600080fd5b612c8783612c4f565b946020939093013593505050565b600080600060608486031215612caa57600080fd5b612cb384612c4f565b9250612cc160208501612c4f565b9150604084013590509250925092565b61018081526000612ce661018083018f612bf7565b8281036020840152612cf8818f612bf7565b90508281036040840152612d0c818e612bf7565b90508281036060840152612d20818d612bf7565b90508281036080840152612d34818c612bf7565b90508960a08401528860c084015282810360e0840152612d548189612bf7565b9050828103610100840152612d698188612bf7565b905085610120840152612d8161014084018615159052565b828103610160840152612d948185612bf7565b9f9e505050505050505050505050505050565b634e487b7160e01b600052604160045260246000fd5b600067ffffffffffffffff80841115612dd857612dd8612da7565b604051601f8501601f19908116603f01168101908282118183101715612e0057612e00612da7565b81604052809350858152868686011115612e1957600080fd5b858560208301376000602087830101525050509392505050565b600082601f830112612e4457600080fd5b61259f83833560208501612dbd565b600060208284031215612e6557600080fd5b813567ffffffffffffffff811115612e7c57600080fd5b611b6f84828501612e33565b600060208284031215612e9a57600080fd5b61259f82612c4f565b6020815260008251610180806020850152612ec26101a0850183612bf7565b91506020850151601f1980868503016040870152612ee08483612bf7565b93506040870151915080868503016060870152612efd8483612bf7565b93506060870151915080868503016080870152612f1a8483612bf7565b935060808701519150808685030160a0870152612f378483612bf7565b935060a087015160c087015260c087015160e087015260e08701519150610100818786030181880152612f6a8584612bf7565b945080880151925050610120818786030181880152612f898584612bf7565b90880151610140888101919091528801519094509150610160612faf8188018415159052565b870151868503909101838701529050612fc88382612bf7565b9695505050505050565b6000806000806000806000806000806101408b8d031215612ff257600080fd5b8a3567ffffffffffffffff8082111561300a57600080fd5b6130168e838f01612e33565b9b5060208d013591508082111561302c57600080fd5b6130388e838f01612e33565b9a5060408d013591508082111561304e57600080fd5b61305a8e838f01612e33565b995060608d013591508082111561307057600080fd5b61307c8e838f01612e33565b985060808d013591508082111561309257600080fd5b61309e8e838f01612e33565b975060a08d0135965060c08d01359150808211156130bb57600080fd5b6130c78e838f01612e33565b955060e08d01359150808211156130dd57600080fd5b6130e98e838f01612e33565b94506101008d013591508082111561310057600080fd5b61310c8e838f01612e33565b93506101208d013591508082111561312357600080fd5b506131308d828e01612e33565b9150509295989b9194979a5092959850565b80358015158114612c6657600080fd5b6000806040838503121561316557600080fd5b61316e83612c4f565b915061317c60208401613142565b90509250929050565b6000806040838503121561319857600080fd5b50508035926020909101359150565b600080604083850312156131ba57600080fd5b8235915061317c60208401613142565b600080600080608085870312156131e057600080fd5b6131e985612c4f565b93506131f760208601612c4f565b925060408501359150606085013567ffffffffffffffff81111561321a57600080fd5b8501601f8101871361322b57600080fd5b61323a87823560208401612dbd565b91505092959194509250565b6000806040838503121561325957600080fd5b61326283612c4f565b915061317c60208401612c4f565b6020808252825182820181905260009190848201906040850190845b818110156132a85783518352928401929184019160010161328c565b50909695505050505050565b600181811c908216806132c857607f821691505b6020821081036132e857634e487b7160e01b600052602260045260246000fd5b50919050565b6020808252602d908201527f4552433732313a2063616c6c6572206973206e6f7420746f6b656e206f776e6560408201526c1c881bdc88185c1c1c9bdd9959609a1b606082015260800190565b634e487b7160e01b600052603260045260246000fd5b60208082526010908201526f546f6b656e206e616f2065786973746560801b604082015260600190565b6000825161338d818460208701612bd3565b9190910192915050565b601f8211156106c357600081815260208120601f850160051c810160208610156133be5750805b601f850160051c820191505b818110156133dd578281556001016133ca565b505050505050565b815167ffffffffffffffff8111156133ff576133ff612da7565b6134138161340d84546132b4565b84613397565b602080601f83116001811461344857600084156134305750858301515b600019600386901b1c1916600185901b1785556133dd565b600085815260208120601f198616915b8281101561347757888601518255948401946001909101908401613458565b50858210156134955787850151600019600388901b60f8161c191681555b5050505050600190811b01905550565b6040815260006134b86040830185612bf7565b90508260208301529392505050565b60208082526025908201527f4552433732313a207472616e736665722066726f6d20696e636f72726563742060408201526437bbb732b960d91b606082015260800190565b634e487b7160e01b600052601160045260246000fd5b808201808211156104ef576104ef61350c565b60208082526032908201527f4552433732313a207472616e7366657220746f206e6f6e20455243373231526560408201527131b2b4bb32b91034b6b83632b6b2b73a32b960711b606082015260800190565b60008351613599818460208801612bd3565b8351908301906135ad818360208801612bd3565b01949350505050565b6001600160a01b0385811682528416602082015260408101839052608060608201819052600090612fc890830184612bf7565b6000602082840312156135fb57600080fd5b815161259f81612ba0565b818103818111156104ef576104ef61350c565b634e487b7160e01b600052603160045260246000fdfea26469706673582212202a6d1b81f2b5242a4999cae53b0ecb0a439495680712b8523e272c47e0ddf01c64736f6c63430008140033",
  "linkReferences": {},
  "deployedLinkReferences": {}
}