{
  "_format": "hh-sol-artifact-1",
  "contractName": "TrinityESGContract",
  "sourceName": "contracts/TrinityESGContract.sol",
  "abi": [
    {
      "inputs": [
        {
          "internalType": "address",
          "name": "_gstToken",
          "type": "address"
        },
        {
          "internalType": "address",
          "name": "_aetToken",
          "type": "address"
        },
        {
          "internalType": "address",
          "name": "_nfeNftContract",
          "type": "address"
        }
      ],
      "stateMutability": "nonpayable",
      "type": "constructor"
    },
    {
      "anonymous": false,
      "inputs": [
        {
          "indexed": true,
          "internalType": "string",
          "name": "chaveAcesso",
          "type": "string"
        },
        {
          "indexed": false,
          "internalType": "uint256",
          "name": "esgScore",
          "type": "uint256"
        },
        {
          "indexed": false,
          "internalType": "uint256",
          "name": "confidence",
          "type": "uint256"
        }
      ],
      "name": "NFEAnalyzed",
      "type": "event"
    },
    {
      "anonymous": false,
      "inputs": [
        {
          "indexed": true,
          "internalType": "address",
          "name": "previousOwner",
          "type": "address"
        },
        {
          "indexed": true,
          "internalType": "address",
          "name": "newOwner",
          "type": "address"
        }
      ],
      "name": "OwnershipTransferred",
      "type": "event"
    },
    {
      "anonymous": false,
      "inputs": [
        {
          "indexed": true,
          "internalType": "string",
          "name": "chaveAcesso",
          "type": "string"
        },
        {
          "indexed": false,
          "internalType": "uint256",
          "name": "gstAmount",
          "type": "uint256"
        },
        {
          "indexed": false,
          "internalType": "uint256",
          "name": "aetAmount",
          "type": "uint256"
        }
      ],
      "name": "RewardCalculated",
      "type": "event"
    },
    {
      "anonymous": false,
      "inputs": [
        {
          "indexed": true,
          "internalType": "address",
          "name": "user",
          "type": "address"
        },
        {
          "indexed": false,
          "internalType": "uint256",
          "name": "gstAmount",
          "type": "uint256"
        },
        {
          "indexed": false,
          "internalType": "uint256",
          "name": "aetAmount",
          "type": "uint256"
        }
      ],
      "name": "RewardClaimed",
      "type": "event"
    },
    {
      "anonymous": false,
      "inputs": [
        {
          "indexed": false,
          "internalType": "uint256",
          "name": "improvementPercentage",
          "type": "uint256"
        },
        {
          "indexed": false,
          "internalType": "uint256",
          "name": "optimizationsApplied",
          "type": "uint256"
        }
      ],
      "name": "TrinityOptimized",
      "type": "event"
    },
    {
      "inputs": [],
      "name": "aetToken",
      "outputs": [
        {
          "internalType": "contract IERC20",
          "name": "",
          "type": "address"
        }
      ],
      "stateMutability": "view",
      "type": "function"
    },
    {
      "inputs": [
        {
          "components": [
            {
              "internalType": "string",
              "name": "chaveAcesso",
              "type": "string"
            },
            {
              "internalType": "uint256",
              "name": "valorTotal",
              "type": "uint256"
            },
            {
              "internalType": "string",
              "name": "categoria",
              "type": "string"
            },
            {
              "internalType": "string",
              "name": "municipio",
              "type": "string"
            },
            {
              "internalType": "string",
              "name": "uf",
              "type": "string"
            },
            {
              "internalType": "string",
              "name": "cnpjEmitente",
              "type": "string"
            },
            {
              "internalType": "string",
              "name": "cnpjDestinatario",
              "type": "string"
            },
            {
              "internalType": "uint256",
              "name": "dataEmissao",
              "type": "uint256"
            },
            {
              "internalType": "bool",
              "name": "isVerificada",
              "type": "bool"
            }
          ],
          "internalType": "struct TrinityESGContract.NFEData",
          "name": "nfeData",
          "type": "tuple"
        }
      ],
      "name": "analyzeNFEWithTrinity",
      "outputs": [
        {
          "components": [
            {
              "internalType": "uint256",
              "name": "environmental",
              "type": "uint256"
            },
            {
              "internalType": "uint256",
              "name": "social",
              "type": "uint256"
            },
            {
              "internalType": "uint256",
              "name": "governance",
              "type": "uint256"
            },
            {
              "internalType": "uint256",
              "name": "totalScore",
              "type": "uint256"
            },
            {
              "internalType": "uint256",
              "name": "confidence",
              "type": "uint256"
            },
            {
              "internalType": "uint256",
              "name": "timestamp",
              "type": "uint256"
            }
          ],
          "internalType": "struct TrinityESGContract.ESGScore",
          "name": "esgScore",
          "type": "tuple"
        }
      ],
      "stateMutability": "nonpayable",
      "type": "function"
    },
    {
      "inputs": [],
      "name": "baseRewardRate",
      "outputs": [
        {
          "internalType": "uint256",
          "name": "",
          "type": "uint256"
        }
      ],
      "stateMutability": "view",
      "type": "function"
    },
    {
      "inputs": [],
      "name": "bonusMultiplier",
      "outputs": [
        {
          "internalType": "uint256",
          "name": "",
          "type": "uint256"
        }
      ],
      "stateMutability": "view",
      "type": "function"
    },
    {
      "inputs": [
        {
          "internalType": "string",
          "name": "chaveAcesso",
          "type": "string"
        }
      ],
      "name": "claimRewards",
      "outputs": [],
      "stateMutability": "nonpayable",
      "type": "function"
    },
    {
      "inputs": [],
      "name": "emergencyPause",
      "outputs": [],
      "stateMutability": "nonpayable",
      "type": "function"
    },
    {
      "inputs": [
        {
          "internalType": "string",
          "name": "chaveAcesso",
          "type": "string"
        }
      ],
      "name": "getESGScore",
      "outputs": [
        {
          "components": [
            {
              "internalType": "uint256",
              "name": "environmental",
              "type": "uint256"
            },
            {
              "internalType": "uint256",
              "name": "social",
              "type": "uint256"
            },
            {
              "internalType": "uint256",
              "name": "governance",
              "type": "uint256"
            },
            {
              "internalType": "uint256",
              "name": "totalScore",
              "type": "uint256"
            },
            {
              "internalType": "uint256",
              "name": "confidence",
              "type": "uint256"
            },
            {
              "internalType": "uint256",
              "name": "timestamp",
              "type": "uint256"
            }
          ],
          "internalType": "struct TrinityESGContract.ESGScore",
          "name": "",
          "type": "tuple"
        }
      ],
      "stateMutability": "view",
      "type": "function"
    },
    {
      "inputs": [
        {
          "internalType": "string",
          "name": "chaveAcesso",
          "type": "string"
        }
      ],
      "name": "getRewards",
      "outputs": [
        {
          "components": [
            {
              "internalType": "uint256",
              "name": "gstAmount",
              "type": "uint256"
            },
            {
              "internalType": "uint256",
              "name": "aetAmount",
              "type": "uint256"
            },
            {
              "internalType": "uint256",
              "name": "nftTokenId",
              "type": "uint256"
            },
            {
              "internalType": "bool",
              "name": "isClaimed",
              "type": "bool"
            },
            {
              "internalType": "uint256",
              "name": "timestamp",
              "type": "uint256"
            }
          ],
          "internalType": "struct TrinityESGContract.RewardData",
          "name": "",
          "type": "tuple"
        }
      ],
      "stateMutability": "view",
      "type": "function"
    },
    {
      "inputs": [
        {
          "internalType": "address",
          "name": "user",
          "type": "address"
        }
      ],
      "name": "getUserStats",
      "outputs": [
        {
          "internalType": "uint256",
          "name": "totalRewards",
          "type": "uint256"
        },
        {
          "internalType": "uint256",
          "name": "esgScore",
          "type": "uint256"
        }
      ],
      "stateMutability": "view",
      "type": "function"
    },
    {
      "inputs": [],
      "name": "gstToken",
      "outputs": [
        {
          "internalType": "contract IERC20",
          "name": "",
          "type": "address"
        }
      ],
      "stateMutability": "view",
      "type": "function"
    },
    {
      "inputs": [],
      "name": "highEsgThreshold",
      "outputs": [
        {
          "internalType": "uint256",
          "name": "",
          "type": "uint256"
        }
      ],
      "stateMutability": "view",
      "type": "function"
    },
    {
      "inputs": [
        {
          "internalType": "string",
          "name": "",
          "type": "string"
        }
      ],
      "name": "nfeEsgScores",
      "outputs": [
        {
          "internalType": "uint256",
          "name": "environmental",
          "type": "uint256"
        },
        {
          "internalType": "uint256",
          "name": "social",
          "type": "uint256"
        },
        {
          "internalType": "uint256",
          "name": "governance",
          "type": "uint256"
        },
        {
          "internalType": "uint256",
          "name": "totalScore",
          "type": "uint256"
        },
        {
          "internalType": "uint256",
          "name": "confidence",
          "type": "uint256"
        },
        {
          "internalType": "uint256",
          "name": "timestamp",
          "type": "uint256"
        }
      ],
      "stateMutability": "view",
      "type": "function"
    },
    {
      "inputs": [],
      "name": "nfeNftContract",
      "outputs": [
        {
          "internalType": "contract IERC721",
          "name": "",
          "type": "address"
        }
      ],
      "stateMutability": "view",
      "type": "function"
    },
    {
      "inputs": [
        {
          "internalType": "string",
          "name": "",
          "type": "string"
        }
      ],
      "name": "nfeRewards",
      "outputs": [
        {
          "internalType": "uint256",
          "name": "gstAmount",
          "type": "uint256"
        },
        {
          "internalType": "uint256",
          "name": "aetAmount",
          "type": "uint256"
        },
        {
          "internalType": "uint256",
          "name": "nftTokenId",
          "type": "uint256"
        },
        {
          "internalType": "bool",
          "name": "isClaimed",
          "type": "bool"
        },
        {
          "internalType": "uint256",
          "name": "timestamp",
          "type": "uint256"
        }
      ],
      "stateMutability": "view",
      "type": "function"
    },
    {
      "inputs": [],
      "name": "optimizeWithTrinity",
      "outputs": [
        {
          "internalType": "uint256",
          "name": "improvementPercent",
          "type": "uint256"
        }
      ],
      "stateMutability": "nonpayable",
      "type": "function"
    },
    {
      "inputs": [],
      "name": "owner",
      "outputs": [
        {
          "internalType": "address",
          "name": "",
          "type": "address"
        }
      ],
      "stateMutability": "view",
      "type": "function"
    },
    {
      "inputs": [],
      "name": "renounceOwnership",
      "outputs": [],
      "stateMutability": "nonpayable",
      "type": "function"
    },
    {
      "inputs": [
        {
          "internalType": "address",
          "name": "newOwner",
          "type": "address"
        }
      ],
      "name": "transferOwnership",
      "outputs": [],
      "stateMutability": "nonpayable",
      "type": "function"
    },
    {
      "inputs": [
        {
          "internalType": "uint256",
          "name": "_baseRewardRate",
          "type": "uint256"
        },
        {
          "internalType": "uint256",
          "name": "_bonusMultiplier",
          "type": "uint256"
        },
        {
          "internalType": "uint256",
          "name": "_highEsgThreshold",
          "type": "uint256"
        }
      ],
      "name": "updateConfig",
      "outputs": [],
      "stateMutability": "nonpayable",
      "type": "function"
    },
    {
      "inputs": [
        {
          "internalType": "address",
          "name": "_gstToken",
          "type": "address"
        },
        {
          "internalType": "address",
          "name": "_aetToken",
          "type": "address"
        },
        {
          "internalType": "address",
          "name": "_nfeNftContract",
          "type": "address"
        }
      ],
      "name": "updateTokenAddresses",
      "outputs": [],
      "stateMutability": "nonpayable",
      "type": "function"
    },
    {
      "inputs": [
        {
          "internalType": "address",
          "name": "",
          "type": "address"
        }
      ],
      "name": "userEsgScore",
      "outputs": [
        {
          "internalType": "uint256",
          "name": "",
          "type": "uint256"
        }
      ],
      "stateMutability": "view",
      "type": "function"
    },
    {
      "inputs": [
        {
          "internalType": "address",
          "name": "",
          "type": "address"
        }
      ],
      "name": "userTotalRewards",
      "outputs": [
        {
          "internalType": "uint256",
          "name": "",
          "type": "uint256"
        }
      ],
      "stateMutability": "view",
      "type": "function"
    }
  ],
  "bytecode": "0x608060405260646009556096600a556046600b553480156200002057600080fd5b506040516200172f3803806200172f833981016040819052620000439162000102565b6200004e3362000095565b60018055600680546001600160a01b039485166001600160a01b0319918216179091556007805493851693821693909317909255600880549190931691161790556200014c565b600080546001600160a01b038381166001600160a01b0319831681178455604051919092169283917f8be0079c531659141344cd1fd0a4f28419497f9722a3daafe3b4186f6b6457e09190a35050565b80516001600160a01b0381168114620000fd57600080fd5b919050565b6000806000606084860312156200011857600080fd5b6200012384620000e5565b92506200013360208501620000e5565b91506200014360408501620000e5565b90509250925092565b6115d3806200015c6000396000f3fe608060405234801561001057600080fd5b50600436106101425760003560e01c806373ad4946116100b8578063c35720b01161007c578063c35720b01461040c578063ccb7505b14610414578063db55e16314610434578063dcf7f5b514610447578063f2fde38b1461045a578063f6a3f3cf1461046d57600080fd5b806373ad4946146103585780638da5cb5b1461036b5780638fc009691461037c578063a8b973a1146103fa578063afbf34401461040357600080fd5b80634e43603a1161010a5780634e43603a14610211578063505774391461025c57806351858e27146102bb57806355bcb3ce146102c357806368e88ce3146102d6578063715018a61461035057600080fd5b8063092242bc1461014757806330267e74146101a75780633b7fc1fd146101d25780633f4b0502146101e95780634e0e4879146101fe575b600080fd5b61015a61015536600461128c565b61048d565b60405161019e9190600060a0820190508251825260208301516020830152604083015160408301526060830151151560608301526080830151608083015292915050565b60405180910390f35b6006546101ba906001600160a01b031681565b6040516001600160a01b03909116815260200161019e565b6101db600b5481565b60405190815260200161019e565b6101fc6101f736600461128c565b610523565b005b6101fc61020c3660046112e0565b610790565b61024761021f366004611323565b6001600160a01b03166000908152600460209081526040808320546005909252909120549091565b6040805192835260208301919091520161019e565b61026f61026a36600461128c565b6107d7565b60405161019e9190600060c082019050825182526020830151602083015260408301516040830152606083015160608301526080830151608083015260a083015160a083015292915050565b6101fc61084b565b61026f6102d136600461135e565b61088e565b6103266102e436600461128c565b80516020818301810180516003808352938301929094019190912092905281546001830154600284015492840154600490940154919390929160ff9091169085565b6040805195865260208601949094529284019190915215156060830152608082015260a00161019e565b6101fc610b23565b6101fc6103663660046114aa565b610b37565b6000546001600160a01b03166101ba565b6103cd61038a36600461128c565b8051602081830181018051600280835293830192909401919091209290528154600183015491830154600384015460048501546005909501549294919290919086565b604080519687526020870195909552938501929092526060840152608083015260a082015260c00161019e565b6101db600a5481565b6101db60095481565b6101db610b4d565b6101db610422366004611323565b60056020526000908152604090205481565b6008546101ba906001600160a01b031681565b6007546101ba906001600160a01b031681565b6101fc610468366004611323565b610bd2565b6101db61047b366004611323565b60046020526000908152604090205481565b6104c16040518060a00160405280600081526020016000815260200160008152602001600015158152602001600081525090565b6003826040516104d191906114d6565b90815260408051918290036020908101832060a08401835280548452600181015491840191909152600281015491830191909152600381015460ff161515606083015260040154608082015292915050565b61052b610c48565b600060028260405161053d91906114d6565b908152602001604051809103902060050154116105945760405162461bcd60e51b815260206004820152601060248201526f139199481b9bdd08185b985b1e5e995960821b60448201526064015b60405180910390fd5b6003816040516105a491906114d6565b9081526040519081900360200190206003015460ff16156106005760405162461bcd60e51b815260206004820152601660248201527514995dd85c9908185b1c9958591e4818db185a5b595960521b604482015260640161058b565b600060038260405161061291906114d6565b90815260405190819003602001902060038101805460ff191660011790558054909150156106b457600654815460405163a9059cbb60e01b815233600482015260248101919091526001600160a01b039091169063a9059cbb906044016020604051808303816000875af115801561068e573d6000803e3d6000fd5b505050506040513d601f19601f820116820180604052508101906106b29190611505565b505b60018101541561073b57600754600182015460405163a9059cbb60e01b815233600482015260248101919091526001600160a01b039091169063a9059cbb906044016020604051808303816000875af1158015610715573d6000803e3d6000fd5b505050506040513d601f19601f820116820180604052508101906107399190611505565b505b8054600182015460405133927ff01da32686223933d8a18a391060918c7f11a3648639edd87ae013e2e27317439261077b92918252602082015260400190565b60405180910390a25061078d60018055565b50565b610798610ca1565b600680546001600160a01b039485166001600160a01b031991821617909155600780549385169382169390931790925560088054919093169116179055565b6107df611189565b6002826040516107ef91906114d6565b90815260200160405180910390206040518060c001604052908160008201548152602001600182015481526020016002820154815260200160038201548152602001600482015481526020016005820154815250509050919050565b610853610ca1565b60408051600080825260208201527fbec27c4768944b54eee12655076565a2c098f93e7d284d7544eedca7b1508e38910160405180910390a1565b610896611189565b61089e610ca1565b6108a6610c48565b815151602c146108ed5760405162461bcd60e51b8152602060048201526012602482015271496e76616c696420616363657373206b657960701b604482015260640161058b565b600082602001511161093a5760405162461bcd60e51b815260206004820152601660248201527556616c7565206d75737420626520706f73697469766560501b604482015260640161058b565b8161010001516109835760405162461bcd60e51b8152602060048201526014602482015273139199481b5d5cdd081899481d995c9a599a595960621b604482015260640161058b565b61098c82610cfb565b905080600283600001516040516109a391906114d6565b9081526040805160209281900383019020835181559183015160018301558201516002820155606082015160038201556080820151600482015560a09091015160059091015560006109f58383610fd5565b90508060038460000151604051610a0c91906114d6565b908152604080516020928190038301902083518155918301516001830155820151600282015560608083015160038301805460ff191691151591909117905560809092015160049091015560c084015190830151610a6a91906110b1565b8251604051610a7991906114d6565b60408051918290038220606085015160808601519084526020840152917fa118bcc3597a955a230c5866ba2aba89f7519fda9d369b71d665de05e68105d4910160405180910390a28251604051610ad091906114d6565b604080519182900382208351602080860151918552840152917ff3f0908729e2c03fa73be93a5f93ad5d77ee1b68a33d3b6ac80553da0537ba9c910160405180910390a250610b1e60018055565b919050565b610b2b610ca1565b610b356000611139565b565b610b3f610ca1565b600992909255600a55600b55565b6000610b57610ca1565b50600f6064600954606e610b6b9190611538565b610b75919061154f565b600955600a54606490610b89906069611538565b610b93919061154f565b600a5560408051828152600360208201527fbec27c4768944b54eee12655076565a2c098f93e7d284d7544eedca7b1508e38910160405180910390a190565b610bda610ca1565b6001600160a01b038116610c3f5760405162461bcd60e51b815260206004820152602660248201527f4f776e61626c653a206e6577206f776e657220697320746865207a65726f206160448201526564647265737360d01b606482015260840161058b565b61078d81611139565b600260015403610c9a5760405162461bcd60e51b815260206004820152601f60248201527f5265656e7472616e637947756172643a207265656e7472616e742063616c6c00604482015260640161058b565b6002600155565b6000546001600160a01b03163314610b355760405162461bcd60e51b815260206004820181905260248201527f4f776e61626c653a2063616c6c6572206973206e6f7420746865206f776e6572604482015260640161058b565b610d03611189565b6040805180820182526011815270115b995c99da584814995b9bdd985d995b607a1b602091820152908301518051910120603290819081907fe53a1e3568cd89ff9da59eb79f0193c96d173d131301c5cfee3a783dc7e33e2c01610d715750605a9150604690506050610ee9565b6040805180820182526008815267456c65747269636f60c01b6020918201529086015180519101207f6c161a755b648397bc5acc5e580680ba3af65c23dc9ca1ebaa6487ac41c84e4501610dcf575060559150603c9050604b610ee9565b60408051808201825260078152664869627269646f60c81b6020918201529086015180519101207fc907ac3b4747ad1d0a45f6d859350597cb0056a6a8abe170805b5531b2933bf901610e2c5750604b9150604190506046610ee9565b604080518082018252600b81526a14dd5cdd195b9d185d995b60aa1b6020918201529086015180519101207fbdfed860a1831f3642f3d98854f27c84a0213aba5905ace5a6115d94c845c33501610e8d57506046915060509050604b610ee9565b604080518082018252600a81526952656369636c6167656d60b01b6020918201529086015180519101207f7e381943ab36eb48555f003aaa1431730f179165538b697ce877364f3072790d01610ee9575060419150604b905060465b60006103e88660200151610efd919061154f565b610f08906005611538565b9050610f148185611571565b9350610f208184611571565b9250610f2c8183611571565b91506064841115610f3c57606493505b6064831115610f4a57606492505b6064821115610f5857606491505b6000600383610f678688611571565b610f719190611571565b610f7b919061154f565b90506000876101000151610f90576000610f93565b600a5b610f9e906055611584565b6040805160c0810182529788526020880196909652948601939093526060850152505060ff1660808201524260a082015292915050565b6110096040518060a00160405280600081526020016000815260200160008152602001600015158152602001600081525090565b60006064600954846060015161101f9190611538565b611029919061154f565b9050600061103860028361154f565b9050600b54846060015110611080576064600a54836110579190611538565b611061919061154f565b91506064600a54826110739190611538565b61107d919061154f565b90505b6040805160a08101825292835260208301919091526000908201819052606082015242608082015290505b92915050565b81516020808401919091206001600160a01b03811660009081526004909252604082208054919284926110e5908490611571565b90915550506001600160a01b038116600090815260056020526040902054600290611111908490611571565b61111b919061154f565b6001600160a01b039091166000908152600560205260409020555050565b600080546001600160a01b038381166001600160a01b0319831681178455604051919092169283917f8be0079c531659141344cd1fd0a4f28419497f9722a3daafe3b4186f6b6457e09190a35050565b6040518060c001604052806000815260200160008152602001600081526020016000815260200160008152602001600081525090565b634e487b7160e01b600052604160045260246000fd5b604051610120810167ffffffffffffffff811182821017156111f9576111f96111bf565b60405290565b600082601f83011261121057600080fd5b813567ffffffffffffffff8082111561122b5761122b6111bf565b604051601f8301601f19908116603f01168101908282118183101715611253576112536111bf565b8160405283815286602085880101111561126c57600080fd5b836020870160208301376000602085830101528094505050505092915050565b60006020828403121561129e57600080fd5b813567ffffffffffffffff8111156112b557600080fd5b6112c1848285016111ff565b949350505050565b80356001600160a01b0381168114610b1e57600080fd5b6000806000606084860312156112f557600080fd5b6112fe846112c9565b925061130c602085016112c9565b915061131a604085016112c9565b90509250925092565b60006020828403121561133557600080fd5b61133e826112c9565b9392505050565b801515811461078d57600080fd5b8035610b1e81611345565b60006020828403121561137057600080fd5b813567ffffffffffffffff8082111561138857600080fd5b90830190610120828603121561139d57600080fd5b6113a56111d5565b8235828111156113b457600080fd5b6113c0878286016111ff565b825250602083013560208201526040830135828111156113df57600080fd5b6113eb878286016111ff565b60408301525060608301358281111561140357600080fd5b61140f878286016111ff565b60608301525060808301358281111561142757600080fd5b611433878286016111ff565b60808301525060a08301358281111561144b57600080fd5b611457878286016111ff565b60a08301525060c08301358281111561146f57600080fd5b61147b878286016111ff565b60c08301525060e083013560e0820152610100915061149b828401611353565b91810191909152949350505050565b6000806000606084860312156114bf57600080fd5b505081359360208301359350604090920135919050565b6000825160005b818110156114f757602081860181015185830152016114dd565b506000920191825250919050565b60006020828403121561151757600080fd5b815161133e81611345565b634e487b7160e01b600052601160045260246000fd5b80820281158282048414176110ab576110ab611522565b60008261156c57634e487b7160e01b600052601260045260246000fd5b500490565b808201808211156110ab576110ab611522565b60ff81811683821601908111156110ab576110ab61152256fea2646970667358221220aab9e2c1b16069fe4af280e397130fbede512077ca5c29dbbd865aa5e9137efe64736f6c63430008140033",
  "linkReferences": {},
  "deployedLinkReferences": {}
}