{
  "_format": "hh-sol-artifact-1",
  "contractName": "SimpleAETToken",
  "sourceName": "contracts/tokens/SimpleAETToken.sol",
  "abi": [
    {
      "inputs": [],
      "stateMutability": "nonpayable",
      "type": "constructor"
    },
    {
      "anonymous": false,
      "inputs": [
        {
          "indexed": true,
          "internalType": "address",
          "name": "user",
          "type": "address"
        },
        {
          "indexed": false,
          "internalType": "uint256",
          "name": "bonus",
          "type": "uint256"
        },
        {
          "indexed": false,
          "internalType": "uint256",
          "name": "score",
          "type": "uint256"
        }
      ],
      "name": "AIEthicsBonusCalculated",
      "type": "event"
    },
    {
      "anonymous": false,
      "inputs": [
        {
          "indexed": true,
          "internalType": "address",
          "name": "user",
          "type": "address"
        },
        {
          "indexed": false,
          "internalType": "uint256",
          "name": "amount",
          "type": "uint256"
        },
        {
          "indexed": false,
          "internalType": "string",
          "name": "reason",
          "type": "string"
        }
      ],
      "name": "AIEthicsRewardsClaimed",
      "type": "event"
    },
    {
      "anonymous": false,
      "inputs": [
        {
          "indexed": true,
          "internalType": "address",
          "name": "user",
          "type": "address"
        },
        {
          "indexed": false,
          "internalType": "uint256",
          "name": "totalScore",
          "type": "uint256"
        },
        {
          "indexed": false,
          "internalType": "uint256",
          "name": "timestamp",
          "type": "uint256"
        }
      ],
      "name": "AIEthicsScoreUpdated",
      "type": "event"
    },
    {
      "anonymous": false,
      "inputs": [
        {
          "indexed": true,
          "internalType": "address",
          "name": "user",
          "type": "address"
        },
        {
          "indexed": false,
          "internalType": "string",
          "name": "achievement",
          "type": "string"
        },
        {
          "indexed": false,
          "internalType": "uint256",
          "name": "timestamp",
          "type": "uint256"
        }
      ],
      "name": "AchievementUnlocked",
      "type": "event"
    },
    {
      "anonymous": false,
      "inputs": [
        {
          "indexed": true,
          "internalType": "address",
          "name": "owner",
          "type": "address"
        },
        {
          "indexed": true,
          "internalType": "address",
          "name": "spender",
          "type": "address"
        },
        {
          "indexed": false,
          "internalType": "uint256",
          "name": "value",
          "type": "uint256"
        }
      ],
      "name": "Approval",
      "type": "event"
    },
    {
      "anonymous": false,
      "inputs": [
        {
          "indexed": true,
          "internalType": "address",
          "name": "previousOwner",
          "type": "address"
        },
        {
          "indexed": true,
          "internalType": "address",
          "name": "newOwner",
          "type": "address"
        }
      ],
      "name": "OwnershipTransferred",
      "type": "event"
    },
    {
      "anonymous": false,
      "inputs": [
        {
          "indexed": true,
          "internalType": "address",
          "name": "from",
          "type": "address"
        },
        {
          "indexed": true,
          "internalType": "address",
          "name": "to",
          "type": "address"
        },
        {
          "indexed": false,
          "internalType": "uint256",
          "name": "value",
          "type": "uint256"
        }
      ],
      "name": "Transfer",
      "type": "event"
    },
    {
      "inputs": [],
      "name": "INITIAL_SUPPLY",
      "outputs": [
        {
          "internalType": "uint256",
          "name": "",
          "type": "uint256"
        }
      ],
      "stateMutability": "view",
      "type": "function"
    },
    {
      "inputs": [],
      "name": "MAX_SUPPLY",
      "outputs": [
        {
          "internalType": "uint256",
          "name": "",
          "type": "uint256"
        }
      ],
      "stateMutability": "view",
      "type": "function"
    },
    {
      "inputs": [
        {
          "internalType": "address",
          "name": "",
          "type": "address"
        }
      ],
      "name": "achievementCount",
      "outputs": [
        {
          "internalType": "uint256",
          "name": "",
          "type": "uint256"
        }
      ],
      "stateMutability": "view",
      "type": "function"
    },
    {
      "inputs": [
        {
          "internalType": "address",
          "name": "owner",
          "type": "address"
        },
        {
          "internalType": "address",
          "name": "spender",
          "type": "address"
        }
      ],
      "name": "allowance",
      "outputs": [
        {
          "internalType": "uint256",
          "name": "",
          "type": "uint256"
        }
      ],
      "stateMutability": "view",
      "type": "function"
    },
    {
      "inputs": [
        {
          "internalType": "address",
          "name": "spender",
          "type": "address"
        },
        {
          "internalType": "uint256",
          "name": "amount",
          "type": "uint256"
        }
      ],
      "name": "approve",
      "outputs": [
        {
          "internalType": "bool",
          "name": "",
          "type": "bool"
        }
      ],
      "stateMutability": "nonpayable",
      "type": "function"
    },
    {
      "inputs": [
        {
          "internalType": "address",
          "name": "account",
          "type": "address"
        }
      ],
      "name": "balanceOf",
      "outputs": [
        {
          "internalType": "uint256",
          "name": "",
          "type": "uint256"
        }
      ],
      "stateMutability": "view",
      "type": "function"
    },
    {
      "inputs": [
        {
          "internalType": "address",
          "name": "from",
          "type": "address"
        },
        {
          "internalType": "uint256",
          "name": "amount",
          "type": "uint256"
        },
        {
          "internalType": "string",
          "name": "reason",
          "type": "string"
        }
      ],
      "name": "burn",
      "outputs": [],
      "stateMutability": "nonpayable",
      "type": "function"
    },
    {
      "inputs": [
        {
          "internalType": "uint256",
          "name": "amount",
          "type": "uint256"
        }
      ],
      "name": "burn",
      "outputs": [],
      "stateMutability": "nonpayable",
      "type": "function"
    },
    {
      "inputs": [
        {
          "internalType": "address",
          "name": "account",
          "type": "address"
        },
        {
          "internalType": "uint256",
          "name": "amount",
          "type": "uint256"
        }
      ],
      "name": "burnFrom",
      "outputs": [],
      "stateMutability": "nonpayable",
      "type": "function"
    },
    {
      "inputs": [],
      "name": "decimals",
      "outputs": [
        {
          "internalType": "uint8",
          "name": "",
          "type": "uint8"
        }
      ],
      "stateMutability": "view",
      "type": "function"
    },
    {
      "inputs": [
        {
          "internalType": "address",
          "name": "spender",
          "type": "address"
        },
        {
          "internalType": "uint256",
          "name": "subtractedValue",
          "type": "uint256"
        }
      ],
      "name": "decreaseAllowance",
      "outputs": [
        {
          "internalType": "bool",
          "name": "",
          "type": "bool"
        }
      ],
      "stateMutability": "nonpayable",
      "type": "function"
    },
    {
      "inputs": [],
      "name": "getAIEthicsEcosystemStats",
      "outputs": [
        {
          "internalType": "uint256",
          "name": "totalSupply_",
          "type": "uint256"
        },
        {
          "internalType": "uint256",
          "name": "maxSupply_",
          "type": "uint256"
        },
        {
          "internalType": "uint256",
          "name": "initialSupply_",
          "type": "uint256"
        }
      ],
      "stateMutability": "view",
      "type": "function"
    },
    {
      "inputs": [
        {
          "internalType": "address",
          "name": "user",
          "type": "address"
        }
      ],
      "name": "getUserAIEthicsProfile",
      "outputs": [
        {
          "components": [
            {
              "internalType": "uint256",
              "name": "transparency",
              "type": "uint256"
            },
            {
              "internalType": "uint256",
              "name": "biasDetection",
              "type": "uint256"
            },
            {
              "internalType": "uint256",
              "name": "humanAlignment",
              "type": "uint256"
            },
            {
              "internalType": "uint256",
              "name": "environmentalImpact",
              "type": "uint256"
            },
            {
              "internalType": "uint256",
              "name": "totalScore",
              "type": "uint256"
            },
            {
              "internalType": "uint256",
              "name": "lastUpdate",
              "type": "uint256"
            }
          ],
          "internalType": "struct SimpleAETToken.AIEthicsScore",
          "name": "ethicsScore",
          "type": "tuple"
        },
        {
          "internalType": "uint256",
          "name": "totalRewards",
          "type": "uint256"
        },
        {
          "internalType": "uint256",
          "name": "achievementCount_",
          "type": "uint256"
        },
        {
          "internalType": "string[]",
          "name": "achievements",
          "type": "string[]"
        }
      ],
      "stateMutability": "view",
      "type": "function"
    },
    {
      "inputs": [
        {
          "internalType": "address",
          "name": "spender",
          "type": "address"
        },
        {
          "internalType": "uint256",
          "name": "addedValue",
          "type": "uint256"
        }
      ],
      "name": "increaseAllowance",
      "outputs": [
        {
          "internalType": "bool",
          "name": "",
          "type": "bool"
        }
      ],
      "stateMutability": "nonpayable",
      "type": "function"
    },
    {
      "inputs": [
        {
          "internalType": "address",
          "name": "",
          "type": "address"
        }
      ],
      "name": "lastEthicsUpdate",
      "outputs": [
        {
          "internalType": "uint256",
          "name": "",
          "type": "uint256"
        }
      ],
      "stateMutability": "view",
      "type": "function"
    },
    {
      "inputs": [
        {
          "internalType": "address",
          "name": "to",
          "type": "address"
        },
        {
          "internalType": "uint256",
          "name": "amount",
          "type": "uint256"
        },
        {
          "internalType": "string",
          "name": "reason",
          "type": "string"
        }
      ],
      "name": "mint",
      "outputs": [],
      "stateMutability": "nonpayable",
      "type": "function"
    },
    {
      "inputs": [],
      "name": "name",
      "outputs": [
        {
          "internalType": "string",
          "name": "",
          "type": "string"
        }
      ],
      "stateMutability": "view",
      "type": "function"
    },
    {
      "inputs": [],
      "name": "owner",
      "outputs": [
        {
          "internalType": "address",
          "name": "",
          "type": "address"
        }
      ],
      "stateMutability": "view",
      "type": "function"
    },
    {
      "inputs": [],
      "name": "renounceOwnership",
      "outputs": [],
      "stateMutability": "nonpayable",
      "type": "function"
    },
    {
      "inputs": [],
      "name": "symbol",
      "outputs": [
        {
          "internalType": "string",
          "name": "",
          "type": "string"
        }
      ],
      "stateMutability": "view",
      "type": "function"
    },
    {
      "inputs": [
        {
          "internalType": "address",
          "name": "",
          "type": "address"
        }
      ],
      "name": "totalAIEthicsRewards",
      "outputs": [
        {
          "internalType": "uint256",
          "name": "",
          "type": "uint256"
        }
      ],
      "stateMutability": "view",
      "type": "function"
    },
    {
      "inputs": [],
      "name": "totalSupply",
      "outputs": [
        {
          "internalType": "uint256",
          "name": "",
          "type": "uint256"
        }
      ],
      "stateMutability": "view",
      "type": "function"
    },
    {
      "inputs": [
        {
          "internalType": "address",
          "name": "to",
          "type": "address"
        },
        {
          "internalType": "uint256",
          "name": "amount",
          "type": "uint256"
        }
      ],
      "name": "transfer",
      "outputs": [
        {
          "internalType": "bool",
          "name": "",
          "type": "bool"
        }
      ],
      "stateMutability": "nonpayable",
      "type": "function"
    },
    {
      "inputs": [
        {
          "internalType": "address",
          "name": "from",
          "type": "address"
        },
        {
          "internalType": "address",
          "name": "to",
          "type": "address"
        },
        {
          "internalType": "uint256",
          "name": "amount",
          "type": "uint256"
        }
      ],
      "name": "transferFrom",
      "outputs": [
        {
          "internalType": "bool",
          "name": "",
          "type": "bool"
        }
      ],
      "stateMutability": "nonpayable",
      "type": "function"
    },
    {
      "inputs": [
        {
          "internalType": "address",
          "name": "newOwner",
          "type": "address"
        }
      ],
      "name": "transferOwnership",
      "outputs": [],
      "stateMutability": "nonpayable",
      "type": "function"
    },
    {
      "inputs": [
        {
          "internalType": "address",
          "name": "user",
          "type": "address"
        },
        {
          "internalType": "string",
          "name": "achievement",
          "type": "string"
        }
      ],
      "name": "unlockAchievement",
      "outputs": [],
      "stateMutability": "nonpayable",
      "type": "function"
    },
    {
      "inputs": [
        {
          "internalType": "address",
          "name": "user",
          "type": "address"
        },
        {
          "internalType": "uint256",
          "name": "transparency",
          "type": "uint256"
        },
        {
          "internalType": "uint256",
          "name": "biasDetection",
          "type": "uint256"
        },
        {
          "internalType": "uint256",
          "name": "humanAlignment",
          "type": "uint256"
        },
        {
          "internalType": "uint256",
          "name": "environmentalImpact",
          "type": "uint256"
        }
      ],
      "name": "updateAIEthicsScore",
      "outputs": [],
      "stateMutability": "nonpayable",
      "type": "function"
    },
    {
      "inputs": [
        {
          "internalType": "address",
          "name": "",
          "type": "address"
        },
        {
          "internalType": "uint256",
          "name": "",
          "type": "uint256"
        }
      ],
      "name": "userAchievements",
      "outputs": [
        {
          "internalType": "string",
          "name": "",
          "type": "string"
        }
      ],
      "stateMutability": "view",
      "type": "function"
    },
    {
      "inputs": [
        {
          "internalType": "address",
          "name": "",
          "type": "address"
        }
      ],
      "name": "userEthicsScores",
      "outputs": [
        {
          "internalType": "uint256",
          "name": "transparency",
          "type": "uint256"
        },
        {
          "internalType": "uint256",
          "name": "biasDetection",
          "type": "uint256"
        },
        {
          "internalType": "uint256",
          "name": "humanAlignment",
          "type": "uint256"
        },
        {
          "internalType": "uint256",
          "name": "environmentalImpact",
          "type": "uint256"
        },
        {
          "internalType": "uint256",
          "name": "totalScore",
          "type": "uint256"
        },
        {
          "internalType": "uint256",
          "name": "lastUpdate",
          "type": "uint256"
        }
      ],
      "stateMutability": "view",
      "type": "function"
    }
  ],
  "bytecode": "0x60806040523480156200001157600080fd5b506040518060400160405280600f81526020016e20a49022ba3434b1b9902a37b5b2b760891b8152506040518060400160405280600381526020016210515560ea1b81525081600390816200006791906200027a565b5060046200007682826200027a565b505050620000936200008d620000b560201b60201c565b620000b9565b6001600655620000af336a295be96e640669720000006200010b565b6200036e565b3390565b600580546001600160a01b038381166001600160a01b0319831681179093556040519116919082907f8be0079c531659141344cd1fd0a4f28419497f9722a3daafe3b4186f6b6457e090600090a35050565b6001600160a01b038216620001665760405162461bcd60e51b815260206004820152601f60248201527f45524332303a206d696e7420746f20746865207a65726f206164647265737300604482015260640160405180910390fd5b80600260008282546200017a919062000346565b90915550506001600160a01b038216600081815260208181526040808320805486019055518481527fddf252ad1be2c89b69c2b068fc378daa952ba7f163c4a11628f55a4df523b3ef910160405180910390a35050565b505050565b634e487b7160e01b600052604160045260246000fd5b600181811c908216806200020157607f821691505b6020821081036200022257634e487b7160e01b600052602260045260246000fd5b50919050565b601f821115620001d157600081815260208120601f850160051c81016020861015620002515750805b601f850160051c820191505b8181101562000272578281556001016200025d565b505050505050565b81516001600160401b03811115620002965762000296620001d6565b620002ae81620002a78454620001ec565b8462000228565b602080601f831160018114620002e65760008415620002cd5750858301515b600019600386901b1c1916600185901b17855562000272565b600085815260208120601f198616915b828110156200031757888601518255948401946001909101908401620002f6565b5085821015620003365787850151600019600388901b60f8161c191681555b5050505050600190811b01905550565b808201808211156200036857634e487b7160e01b600052601160045260246000fd5b92915050565b611b35806200037e6000396000f3fe608060405234801561001057600080fd5b50600436106101cf5760003560e01c80634946c89011610104578063a457c2d7116100a2578063d3fc986411610071578063d3fc986414610462578063dd62ed3e14610475578063f2fde38b14610488578063ffd5ffb41461049b57600080fd5b8063a457c2d7146103ac578063a6bd6e11146103bf578063a9059cbb1461042f578063acb587d01461044257600080fd5b806379cc6790116100de57806379cc6790146103565780638da5cb5b1461036957806395d89b411461038457806396ab66911461038c57600080fd5b80634946c8901461030557806370a0823114610325578063715018a61461034e57600080fd5b806324548c601161017157806332cb6b0c1161014b57806332cb6b0c146102b957806339509351146102cc57806342966c68146102df57806345f21485146102f257600080fd5b806324548c60146102855780632ff2e9dc14610298578063313ce567146102aa57600080fd5b806316064572116101ad578063160645721461022a57806316cb39011461023d57806318160ddd1461026057806323b872dd1461027257600080fd5b806306fdde03146101d4578063095ea7b3146101f257806315f570dc14610215575b600080fd5b6101dc6104be565b6040516101e991906115d0565b60405180910390f35b610205610200366004611606565b610550565b60405190151581526020016101e9565b610228610223366004611679565b61056a565b005b6102286102383660046116d3565b6105c7565b61025061024b366004611726565b610714565b6040516101e99493929190611741565b6002545b6040519081526020016101e9565b6102056102803660046117f3565b6108a0565b6101dc610293366004611606565b6108c4565b6102646a295be96e6406697200000081565b604051601281526020016101e9565b6102646b019d971e4fe8401e7400000081565b6102056102da366004611606565b61097d565b6102286102ed36600461182f565b61099f565b610228610300366004611848565b6109ac565b610264610313366004611726565b60086020526000908152604090205481565b610264610333366004611726565b6001600160a01b031660009081526020819052604090205490565b610228610cb1565b610228610364366004611606565b610cc5565b6005546040516001600160a01b0390911681526020016101e9565b6101dc610cde565b61026461039a366004611726565b600b6020526000908152604090205481565b6102056103ba366004611606565b610ced565b6104026103cd366004611726565b600760205260009081526040902080546001820154600283015460038401546004850154600590950154939492939192909186565b604080519687526020870195909552938501929092526060840152608083015260a082015260c0016101e9565b61020561043d366004611606565b610d68565b610264610450366004611726565b60096020526000908152604090205481565b610228610470366004611679565b610d76565b61026461048336600461188a565b610df7565b610228610496366004611726565b610e22565b6104a3610e98565b604080519384526020840192909252908201526060016101e9565b6060600380546104cd906118bd565b80601f01602080910402602001604051908101604052809291908181526020018280546104f9906118bd565b80156105465780601f1061051b57610100808354040283529160200191610546565b820191906000526020600020905b81548152906001019060200180831161052957829003601f168201915b5050505050905090565b60003361055e818585610ec8565b60019150505b92915050565b610572610fed565b61057c8484611047565b836001600160a01b03167f431ece8d49a2759b0a055105dda20b725d956831112aebce95481a5847bab4968484846040516105b993929190611920565b60405180910390a250505050565b6105cf610fed565b6001600160a01b0383166000908152600a602090815260408220805460018101825590835291200161060282848361199f565b506001600160a01b0383166000908152600b6020526040812080549161062783611a76565b90915550603290506106398482611176565b6001600160a01b03841660009081526008602052604081208054839290610661908490611a8f565b92505081905550836001600160a01b03167f67a8d47c6ecf3a491ea8a4f20a58352394879c573c678ec5b9abceae075d4dca8484426040516106a593929190611aa2565b60405180910390a2836001600160a01b03167f431ece8d49a2759b0a055105dda20b725d956831112aebce95481a5847bab496826040516105b9918152604060208201819052601490820152731058da1a595d995b595b9d08155b9b1bd8dad95960621b606082015260800190565b61074d6040518060c001604052806000815260200160008152602001600081526020016000815260200160008152602001600081525090565b6001600160a01b03821660009081526007602090815260408083206008835281842054600b845282852054600a8552838620845160c0810186528454815260018501548188015260028501548187015260038501546060828101919091526004860154608083015260059095015460a08201528154865181890281018901909752808752889795969195839190899084015b8282101561088b5783829060005260206000200180546107fe906118bd565b80601f016020809104026020016040519081016040528092919081815260200182805461082a906118bd565b80156108775780601f1061084c57610100808354040283529160200191610877565b820191906000526020600020905b81548152906001019060200180831161085a57829003601f168201915b5050505050815260200190600101906107df565b50505050905093509350935093509193509193565b6000336108ae858285611235565b6108b98585856112af565b506001949350505050565b600a60205281600052604060002081815481106108e057600080fd5b906000526020600020016000915091505080546108fc906118bd565b80601f0160208091040260200160405190810160405280929190818152602001828054610928906118bd565b80156109755780601f1061094a57610100808354040283529160200191610975565b820191906000526020600020905b81548152906001019060200180831161095857829003601f168201915b505050505081565b60003361055e8185856109908383610df7565b61099a9190611a8f565b610ec8565b6109a93382611047565b50565b6109b4610fed565b6103e8841115610a175760405162461bcd60e51b815260206004820152602360248201527f4145543a205472616e73706172656e63792073636f72652065786365656473206044820152620dac2f60eb1b60648201526084015b60405180910390fd5b6103e8831115610a775760405162461bcd60e51b815260206004820152602560248201527f4145543a204269617320646574656374696f6e2073636f7265206578636565646044820152640e640dac2f60db1b6064820152608401610a0e565b6103e8821115610ad85760405162461bcd60e51b815260206004820152602660248201527f4145543a2048756d616e20616c69676e6d656e742073636f72652065786365656044820152650c8e640dac2f60d31b6064820152608401610a0e565b6103e8811115610b3e5760405162461bcd60e51b815260206004820152602b60248201527f4145543a20456e7669726f6e6d656e74616c20696d706163742073636f72652060448201526a0caf0c6cacac8e640dac2f60ab1b6064820152608401610a0e565b60006064610b4d836019611ac6565b610b58856019611ac6565b610b63876019611ac6565b610b6e896019611ac6565b610b789190611a8f565b610b829190611a8f565b610b8c9190611a8f565b610b969190611add565b90506040518060c001604052808681526020018581526020018481526020018381526020018281526020014281525060076000886001600160a01b03166001600160a01b03168152602001908152602001600020600082015181600001556020820151816001015560408201518160020155606082015181600301556080820151816004015560a082015181600501559050504260096000886001600160a01b03166001600160a01b0316815260200190815260200160002081905550856001600160a01b03167f3bf909160d3e3f36d0956de37d12641b9bc6f2702e84855cdaa3ed1993a6ac018242604051610c97929190918252602082015260400190565b60405180910390a2610ca98682611453565b505050505050565b610cb9610fed565b610cc36000611538565b565b610cd0823383611235565b610cda8282611047565b5050565b6060600480546104cd906118bd565b60003381610cfb8286610df7565b905083811015610d5b5760405162461bcd60e51b815260206004820152602560248201527f45524332303a2064656372656173656420616c6c6f77616e63652062656c6f77604482015264207a65726f60d81b6064820152608401610a0e565b6108b98286868403610ec8565b60003361055e8185856112af565b610d7e610fed565b6b019d971e4fe8401e7400000083610d9560025490565b610d9f9190611a8f565b1115610ded5760405162461bcd60e51b815260206004820152601760248201527f4145543a2045786365656473206d617820737570706c790000000000000000006044820152606401610a0e565b61057c8484611176565b6001600160a01b03918216600090815260016020908152604080832093909416825291909152205490565b610e2a610fed565b6001600160a01b038116610e8f5760405162461bcd60e51b815260206004820152602660248201527f4f776e61626c653a206e6577206f776e657220697320746865207a65726f206160448201526564647265737360d01b6064820152608401610a0e565b6109a981611538565b6000806000610ea660025490565b936b019d971e4fe8401e7400000093506a295be96e6406697200000092509050565b6001600160a01b038316610f2a5760405162461bcd60e51b8152602060048201526024808201527f45524332303a20617070726f76652066726f6d20746865207a65726f206164646044820152637265737360e01b6064820152608401610a0e565b6001600160a01b038216610f8b5760405162461bcd60e51b815260206004820152602260248201527f45524332303a20617070726f766520746f20746865207a65726f206164647265604482015261737360f01b6064820152608401610a0e565b6001600160a01b0383811660008181526001602090815260408083209487168084529482529182902085905590518481527f8c5be1e5ebec7d5bd14f71427d1e84f3dd0314c0f7b2291e5b200ac8c7c3b92591015b60405180910390a3505050565b6005546001600160a01b03163314610cc35760405162461bcd60e51b815260206004820181905260248201527f4f776e61626c653a2063616c6c6572206973206e6f7420746865206f776e65726044820152606401610a0e565b6001600160a01b0382166110a75760405162461bcd60e51b815260206004820152602160248201527f45524332303a206275726e2066726f6d20746865207a65726f206164647265736044820152607360f81b6064820152608401610a0e565b6001600160a01b0382166000908152602081905260409020548181101561111b5760405162461bcd60e51b815260206004820152602260248201527f45524332303a206275726e20616d6f756e7420657863656564732062616c616e604482015261636560f01b6064820152608401610a0e565b6001600160a01b0383166000818152602081815260408083208686039055600280548790039055518581529192917fddf252ad1be2c89b69c2b068fc378daa952ba7f163c4a11628f55a4df523b3ef9101610fe0565b505050565b6001600160a01b0382166111cc5760405162461bcd60e51b815260206004820152601f60248201527f45524332303a206d696e7420746f20746865207a65726f2061646472657373006044820152606401610a0e565b80600260008282546111de9190611a8f565b90915550506001600160a01b038216600081815260208181526040808320805486019055518481527fddf252ad1be2c89b69c2b068fc378daa952ba7f163c4a11628f55a4df523b3ef910160405180910390a35050565b60006112418484610df7565b905060001981146112a9578181101561129c5760405162461bcd60e51b815260206004820152601d60248201527f45524332303a20696e73756666696369656e7420616c6c6f77616e63650000006044820152606401610a0e565b6112a98484848403610ec8565b50505050565b6001600160a01b0383166113135760405162461bcd60e51b815260206004820152602560248201527f45524332303a207472616e736665722066726f6d20746865207a65726f206164604482015264647265737360d81b6064820152608401610a0e565b6001600160a01b0382166113755760405162461bcd60e51b815260206004820152602360248201527f45524332303a207472616e7366657220746f20746865207a65726f206164647260448201526265737360e81b6064820152608401610a0e565b6001600160a01b038316600090815260208190526040902054818110156113ed5760405162461bcd60e51b815260206004820152602660248201527f45524332303a207472616e7366657220616d6f756e7420657863656564732062604482015265616c616e636560d01b6064820152608401610a0e565b6001600160a01b03848116600081815260208181526040808320878703905593871680835291849020805487019055925185815290927fddf252ad1be2c89b69c2b068fc378daa952ba7f163c4a11628f55a4df523b3ef910160405180910390a36112a9565b600a60006114636103e884611add565b90506001610384841061147857506003611496565b610320841061148957506002611496565b6102bc8410611496575060015b6000816114a38486611ac6565b6114ad9190611ac6565b90508015610ca9576114bf8682611176565b6001600160a01b038616600090815260086020526040812080548392906114e7908490611a8f565b909155505060408051828152602081018790526001600160a01b038816917f64ac2862f6638a0c296cd993feb9c3755016d5f5a95e251ff11d46c006234494910160405180910390a2505050505050565b600580546001600160a01b038381166001600160a01b0319831681179093556040519116919082907f8be0079c531659141344cd1fd0a4f28419497f9722a3daafe3b4186f6b6457e090600090a35050565b6000815180845260005b818110156115b057602081850181015186830182015201611594565b506000602082860101526020601f19601f83011685010191505092915050565b6020815260006115e3602083018461158a565b9392505050565b80356001600160a01b038116811461160157600080fd5b919050565b6000806040838503121561161957600080fd5b611622836115ea565b946020939093013593505050565b60008083601f84011261164257600080fd5b50813567ffffffffffffffff81111561165a57600080fd5b60208301915083602082850101111561167257600080fd5b9250929050565b6000806000806060858703121561168f57600080fd5b611698856115ea565b935060208501359250604085013567ffffffffffffffff8111156116bb57600080fd5b6116c787828801611630565b95989497509550505050565b6000806000604084860312156116e857600080fd5b6116f1846115ea565b9250602084013567ffffffffffffffff81111561170d57600080fd5b61171986828701611630565b9497909650939450505050565b60006020828403121561173857600080fd5b6115e3826115ea565b6000610120808301875184526020808901518186015260408901516040860152606089015160608601526080890151608086015260a089015160a08601528760c08601528660e086015282610100860152819250855180835261014092508286019350828160051b870101925081870160005b828110156117e35761013f198886030186526117d185835161158a565b958401959450908301906001016117b4565b50929a9950505050505050505050565b60008060006060848603121561180857600080fd5b611811846115ea565b925061181f602085016115ea565b9150604084013590509250925092565b60006020828403121561184157600080fd5b5035919050565b600080600080600060a0868803121561186057600080fd5b611869866115ea565b97602087013597506040870135966060810135965060800135945092505050565b6000806040838503121561189d57600080fd5b6118a6836115ea565b91506118b4602084016115ea565b90509250929050565b600181811c908216806118d157607f821691505b6020821081036118f157634e487b7160e01b600052602260045260246000fd5b50919050565b81835281816020850137506000828201602090810191909152601f909101601f19169091010190565b83815260406020820152600061193a6040830184866118f7565b95945050505050565b634e487b7160e01b600052604160045260246000fd5b601f82111561117157600081815260208120601f850160051c810160208610156119805750805b601f850160051c820191505b81811015610ca95782815560010161198c565b67ffffffffffffffff8311156119b7576119b7611943565b6119cb836119c583546118bd565b83611959565b6000601f8411600181146119ff57600085156119e75750838201355b600019600387901b1c1916600186901b178355611a59565b600083815260209020601f19861690835b82811015611a305786850135825560209485019460019092019101611a10565b5086821015611a4d5760001960f88860031b161c19848701351681555b505060018560011b0183555b5050505050565b634e487b7160e01b600052601160045260246000fd5b600060018201611a8857611a88611a60565b5060010190565b8082018082111561056457610564611a60565b604081526000611ab66040830185876118f7565b9050826020830152949350505050565b808202811582820484141761056457610564611a60565b600082611afa57634e487b7160e01b600052601260045260246000fd5b50049056fea264697066735822122065c1ab4f3d014eaf9d59d067ee0da872e08d30fb9259dd91b3b20695b63a1ffd64736f6c63430008140033",
  "linkReferences": {},
  "deployedLinkReferences": {}
}